{
	"data": {
		"bytecode": {
			"linkReferences": {},
			"object": "61016060405234801562000011575f80fd5b50604051620030e1380380620030e1833981810160405281019062000037919062000322565b6040518060400160405280601381526020017f417574686f72697a6174696f6e20746f6b656e000000000000000000000000008152506040518060400160405280600181526020017f3100000000000000000000000000000000000000000000000000000000000000815250620000b85f836200019960201b90919060201c565b6101208181525050620000d66001826200019960201b90919060201c565b6101408181525050818051906020012060e08181525050808051906020012061010081815250504660a0818152505062000115620001ee60201b60201c565b608081815250503073ffffffffffffffffffffffffffffffffffffffff1660c08173ffffffffffffffffffffffffffffffffffffffff168152505050508060025f6101000a81548173ffffffffffffffffffffffffffffffffffffffff021916908373ffffffffffffffffffffffffffffffffffffffff160217905550506200087b565b5f602083511015620001be57620001b6836200024a60201b60201c565b9050620001e8565b82620001d083620002b460201b60201c565b5f019081620001e09190620005b6565b5060ff5f1b90505b92915050565b5f7f8b73c3c69bb8fe3d512ecc4cf759cc79239f7b179b0ffacaa9a75d522b39400f60e0516101005146306040516020016200022f959493929190620006d6565b60405160208183030381529060405280519060200120905090565b5f80829050601f815111156200029957826040517f305a27a9000000000000000000000000000000000000000000000000000000008152600401620002909190620007bb565b60405180910390fd5b805181620002a7906200080c565b5f1c175f1b915050919050565b5f819050919050565b5f80fd5b5f73ffffffffffffffffffffffffffffffffffffffff82169050919050565b5f620002ec82620002c1565b9050919050565b620002fe81620002e0565b811462000309575f80fd5b50565b5f815190506200031c81620002f3565b92915050565b5f602082840312156200033a5762000339620002bd565b5b5f62000349848285016200030c565b91505092915050565b5f81519050919050565b7f4e487b71000000000000000000000000000000000000000000000000000000005f52604160045260245ffd5b7f4e487b71000000000000000000000000000000000000000000000000000000005f52602260045260245ffd5b5f6002820490506001821680620003ce57607f821691505b602082108103620003e457620003e362000389565b5b50919050565b5f819050815f5260205f209050919050565b5f6020601f8301049050919050565b5f82821b905092915050565b5f60088302620004487fffffffffffffffffffffffffffffffffffffffffffffffffffffffffffffffff826200040b565b6200045486836200040b565b95508019841693508086168417925050509392505050565b5f819050919050565b5f819050919050565b5f6200049e6200049862000492846200046c565b62000475565b6200046c565b9050919050565b5f819050919050565b620004b9836200047e565b620004d1620004c882620004a5565b84845462000417565b825550505050565b5f90565b620004e7620004d9565b620004f4818484620004ae565b505050565b5b818110156200051b576200050f5f82620004dd565b600181019050620004fa565b5050565b601f8211156200056a576200053481620003ea565b6200053f84620003fc565b810160208510156200054f578190505b620005676200055e85620003fc565b830182620004f9565b50505b505050565b5f82821c905092915050565b5f6200058c5f19846008026200056f565b1980831691505092915050565b5f620005a683836200057b565b9150826002028217905092915050565b620005c18262000352565b67ffffffffffffffff811115620005dd57620005dc6200035c565b5b620005e98254620003b6565b620005f68282856200051f565b5f60209050601f8311600181146200062c575f841562000617578287015190505b62000623858262000599565b86555062000692565b601f1984166200063c86620003ea565b5f5b8281101562000665578489015182556001820191506020850194506020810190506200063e565b8683101562000685578489015162000681601f8916826200057b565b8355505b6001600288020188555050505b505050505050565b5f819050919050565b620006ae816200069a565b82525050565b620006bf816200046c565b82525050565b620006d081620002e0565b82525050565b5f60a082019050620006eb5f830188620006a3565b620006fa6020830187620006a3565b620007096040830186620006a3565b620007186060830185620006b4565b620007276080830184620006c5565b9695505050505050565b5f82825260208201905092915050565b5f5b838110156200076057808201518184015260208101905062000743565b5f8484015250505050565b5f601f19601f8301169050919050565b5f620007878262000352565b62000793818562000731565b9350620007a581856020860162000741565b620007b0816200076b565b840191505092915050565b5f6020820190508181035f830152620007d581846200077b565b905092915050565b5f81519050919050565b5f819050602082019050919050565b5f6200080382516200069a565b80915050919050565b5f6200081882620007dd565b826200082484620007e7565b90506200083181620007f6565b9250602082101562000874576200086f7fffffffffffffffffffffffffffffffffffffffffffffffffffffffffffffffff836020036008026200040b565b831692505b5050919050565b60805160a05160c05160e051610100516101205161014051612814620008cd5f395f6113d401525f61139901525f61184201525f61182101525f61140901525f61145f01525f61148801526128145ff3fe608060405234801561000f575f80fd5b506004361061009c575f3560e01c80638509537011610064578063850953701461018457806387908527146101b4578063c80af768146101e4578063e959f15014610214578063eb301016146102445761009c565b80631632ae3e146100a0578063274c727c146100d057806369fa32b01461010057806382a9044b1461013057806384b0196e14610160575b5f80fd5b6100ba60048036038101906100b59190611c75565b610274565b6040516100c79190611d83565b60405180910390f35b6100ea60048036038101906100e59190611da3565b61043d565b6040516100f79190611d83565b60405180910390f35b61011a60048036038101906101159190611da3565b610615565b6040516101279190611d83565b60405180910390f35b61014a60048036038101906101459190611c75565b6107ed565b6040516101579190611d83565b60405180910390f35b6101686109b6565b60405161017b9796959493929190611f8d565b60405180910390f35b61019e60048036038101906101999190611c75565b610a5b565b6040516101ab9190611d83565b60405180910390f35b6101ce60048036038101906101c99190611da3565b610c24565b6040516101db9190611d83565b60405180910390f35b6101fe60048036038101906101f99190611c75565b610dfb565b60405161020b9190611d83565b60405180910390f35b61022e60048036038101906102299190611da3565b610fc4565b60405161023b9190611d83565b60405180910390f35b61025e6004803603810190610259919061200f565b61119c565b60405161026b919061203a565b60405180910390f35b60608484848080601f0160208091040260200160405190810160405280939291908181526020018383808284375f81840152601f19601f8201169050808301925050505050505087845f61030f7f051d137ae0e1fae6e3b6559fed4442b35a85a9a39789838ad5c9ea05e7da2dce866040516020016102f492919061205a565b604051602081830303815290604052805190602001206111bc565b90505f61031c82866111d5565b90505f610328856111ff565b90503373ffffffffffffffffffffffffffffffffffffffff168273ffffffffffffffffffffffffffffffffffffffff1614801561039057508373ffffffffffffffffffffffffffffffffffffffff163373ffffffffffffffffffffffffffffffffffffffff16145b806103ca5750806020015173ffffffffffffffffffffffffffffffffffffffff163373ffffffffffffffffffffffffffffffffffffffff16145b610409576040517f08c379a0000000000000000000000000000000000000000000000000000000008152600401610400906120f1565b60405180910390fd5b5f6104148e8b6112a7565b90505f61042682608001518f5f611355565b905080995050505050505050505095945050505050565b6060845f61044a826111ff565b9050806020015173ffffffffffffffffffffffffffffffffffffffff163373ffffffffffffffffffffffffffffffffffffffff1614610487575f80fd5b8585858080601f0160208091040260200160405190810160405280939291908181526020018383808284375f81840152601f19601f82011690508083019250505050505050885f61051f7f051d137ae0e1fae6e3b6559fed4442b35a85a9a39789838ad5c9ea05e7da2dce8560405160200161050492919061205a565b604051602081830303815290604052805190602001206111bc565b90505f61052c82856111d5565b90505f610538846111ff565b90503373ffffffffffffffffffffffffffffffffffffffff168273ffffffffffffffffffffffffffffffffffffffff1614806105a35750806020015173ffffffffffffffffffffffffffffffffffffffff163373ffffffffffffffffffffffffffffffffffffffff16145b6105e2576040517f08c379a00000000000000000000000000000000000000000000000000000000081526004016105d9906120f1565b60405180910390fd5b5f6105ec8e6111ff565b90505f6105fe82604001518f5f611355565b9050809a5050505050505050505050949350505050565b6060845f610622826111ff565b9050806020015173ffffffffffffffffffffffffffffffffffffffff163373ffffffffffffffffffffffffffffffffffffffff161461065f575f80fd5b8585858080601f0160208091040260200160405190810160405280939291908181526020018383808284375f81840152601f19601f82011690508083019250505050505050885f6106f77f051d137ae0e1fae6e3b6559fed4442b35a85a9a39789838ad5c9ea05e7da2dce856040516020016106dc92919061205a565b604051602081830303815290604052805190602001206111bc565b90505f61070482856111d5565b90505f610710846111ff565b90503373ffffffffffffffffffffffffffffffffffffffff168273ffffffffffffffffffffffffffffffffffffffff16148061077b5750806020015173ffffffffffffffffffffffffffffffffffffffff163373ffffffffffffffffffffffffffffffffffffffff16145b6107ba576040517f08c379a00000000000000000000000000000000000000000000000000000000081526004016107b1906120f1565b60405180910390fd5b5f6107c48e6111ff565b90505f6107d682606001518f5f611355565b9050809a5050505050505050505050949350505050565b60608484848080601f0160208091040260200160405190810160405280939291908181526020018383808284375f81840152601f19601f8201169050808301925050505050505087845f6108887f051d137ae0e1fae6e3b6559fed4442b35a85a9a39789838ad5c9ea05e7da2dce8660405160200161086d92919061205a565b604051602081830303815290604052805190602001206111bc565b90505f61089582866111d5565b90505f6108a1856111ff565b90503373ffffffffffffffffffffffffffffffffffffffff168273ffffffffffffffffffffffffffffffffffffffff1614801561090957508373ffffffffffffffffffffffffffffffffffffffff163373ffffffffffffffffffffffffffffffffffffffff16145b806109435750806020015173ffffffffffffffffffffffffffffffffffffffff163373ffffffffffffffffffffffffffffffffffffffff16145b610982576040517f08c379a0000000000000000000000000000000000000000000000000000000008152600401610979906120f1565b60405180910390fd5b5f61098d8e8b6112a7565b90505f61099f82604001518f5f611355565b905080995050505050505050505095945050505050565b5f6060805f805f60606109c7611391565b6109cf6113cb565b46305f801b5f67ffffffffffffffff8111156109ee576109ed61210f565b5b604051908082528060200260200182016040528015610a1c5781602001602082028036833780820191505090505b507f0f00000000000000000000000000000000000000000000000000000000000000959493929190965096509650965096509650965090919293949596565b60608484848080601f0160208091040260200160405190810160405280939291908181526020018383808284375f81840152601f19601f8201169050808301925050505050505087845f610af67f051d137ae0e1fae6e3b6559fed4442b35a85a9a39789838ad5c9ea05e7da2dce86604051602001610adb92919061205a565b604051602081830303815290604052805190602001206111bc565b90505f610b0382866111d5565b90505f610b0f856111ff565b90503373ffffffffffffffffffffffffffffffffffffffff168273ffffffffffffffffffffffffffffffffffffffff16148015610b7757508373ffffffffffffffffffffffffffffffffffffffff163373ffffffffffffffffffffffffffffffffffffffff16145b80610bb15750806020015173ffffffffffffffffffffffffffffffffffffffff163373ffffffffffffffffffffffffffffffffffffffff16145b610bf0576040517f08c379a0000000000000000000000000000000000000000000000000000000008152600401610be7906120f1565b60405180910390fd5b5f610bfb8e8b6112a7565b90505f610c0d82606001518f5f611355565b905080995050505050505050505095945050505050565b6060845f610c31826111ff565b9050806020015173ffffffffffffffffffffffffffffffffffffffff163373ffffffffffffffffffffffffffffffffffffffff1614610c6e575f80fd5b8585858080601f0160208091040260200160405190810160405280939291908181526020018383808284375f81840152601f19601f82011690508083019250505050505050885f610d067f051d137ae0e1fae6e3b6559fed4442b35a85a9a39789838ad5c9ea05e7da2dce85604051602001610ceb92919061205a565b604051602081830303815290604052805190602001206111bc565b90505f610d1382856111d5565b90505f610d1f846111ff565b90503373ffffffffffffffffffffffffffffffffffffffff168273ffffffffffffffffffffffffffffffffffffffff161480610d8a5750806020015173ffffffffffffffffffffffffffffffffffffffff163373ffffffffffffffffffffffffffffffffffffffff16145b610dc9576040517f08c379a0000000000000000000000000000000000000000000000000000000008152600401610dc0906120f1565b60405180910390fd5b5f610dd38e6111ff565b90505f610de4825f01518f5f611355565b9050809a5050505050505050505050949350505050565b60608484848080601f0160208091040260200160405190810160405280939291908181526020018383808284375f81840152601f19601f8201169050808301925050505050505087845f610e967f051d137ae0e1fae6e3b6559fed4442b35a85a9a39789838ad5c9ea05e7da2dce86604051602001610e7b92919061205a565b604051602081830303815290604052805190602001206111bc565b90505f610ea382866111d5565b90505f610eaf856111ff565b90503373ffffffffffffffffffffffffffffffffffffffff168273ffffffffffffffffffffffffffffffffffffffff16148015610f1757508373ffffffffffffffffffffffffffffffffffffffff163373ffffffffffffffffffffffffffffffffffffffff16145b80610f515750806020015173ffffffffffffffffffffffffffffffffffffffff163373ffffffffffffffffffffffffffffffffffffffff16145b610f90576040517f08c379a0000000000000000000000000000000000000000000000000000000008152600401610f87906120f1565b60405180910390fd5b5f610f9b8e8b6112a7565b90505f610fad8260e001518f5f611355565b905080995050505050505050505095945050505050565b6060845f610fd1826111ff565b9050806020015173ffffffffffffffffffffffffffffffffffffffff163373ffffffffffffffffffffffffffffffffffffffff161461100e575f80fd5b8585858080601f0160208091040260200160405190810160405280939291908181526020018383808284375f81840152601f19601f82011690508083019250505050505050885f6110a67f051d137ae0e1fae6e3b6559fed4442b35a85a9a39789838ad5c9ea05e7da2dce8560405160200161108b92919061205a565b604051602081830303815290604052805190602001206111bc565b90505f6110b382856111d5565b90505f6110bf846111ff565b90503373ffffffffffffffffffffffffffffffffffffffff168273ffffffffffffffffffffffffffffffffffffffff16148061112a5750806020015173ffffffffffffffffffffffffffffffffffffffff163373ffffffffffffffffffffffffffffffffffffffff16145b611169576040517f08c379a0000000000000000000000000000000000000000000000000000000008152600401611160906120f1565b60405180910390fd5b5f6111738e6111ff565b90505f61118582608001518f5f611355565b9050809a5050505050505050505050949350505050565b60605f6111a983336112a7565b90505f815f015190508092505050919050565b5f6111ce6111c8611406565b836114bc565b9050919050565b5f805f806111e386866114fc565b9250925092506111f38282611551565b82935050505092915050565b611207611ac0565b60025f9054906101000a900473ffffffffffffffffffffffffffffffffffffffff1673ffffffffffffffffffffffffffffffffffffffff166330f37b44836040518263ffffffff1660e01b8152600401611261919061213c565b60c060405180830381865afa15801561127c573d5f803e3d5ffd5b505050506040513d601f19601f820116820180604052508101906112a09190612283565b9050919050565b6112af611b1c565b60025f9054906101000a900473ffffffffffffffffffffffffffffffffffffffff1673ffffffffffffffffffffffffffffffffffffffff166380dc8ae884846040518363ffffffff1660e01b815260040161130b9291906122ae565b5f60405180830381865afa158015611325573d5f803e3d5ffd5b505050506040513d5f823e3d601f19601f8201168201806040525081019061134d91906124bd565b905092915050565b60605f841461136f5761136884846116b3565b905061138a565b6113876113818363ffffffff1661173d565b846116b3565b90505b9392505050565b60606113c65f7f000000000000000000000000000000000000000000000000000000000000000061175090919063ffffffff16565b905090565b606061140160017f000000000000000000000000000000000000000000000000000000000000000061175090919063ffffffff16565b905090565b5f7f000000000000000000000000000000000000000000000000000000000000000073ffffffffffffffffffffffffffffffffffffffff163073ffffffffffffffffffffffffffffffffffffffff1614801561148157507f000000000000000000000000000000000000000000000000000000000000000046145b156114ae577f000000000000000000000000000000000000000000000000000000000000000090506114b9565b6114b66117fd565b90505b90565b5f6040517f190100000000000000000000000000000000000000000000000000000000000081528360028201528260228201526042812091505092915050565b5f805f604184510361153c575f805f602087015192506040870151915060608701515f1a905061152e88828585611892565b95509550955050505061154a565b5f600285515f1b9250925092505b9250925092565b5f600381111561156457611563612504565b5b82600381111561157757611576612504565b5b03156116af576001600381111561159157611590612504565b5b8260038111156115a4576115a3612504565b5b036115db576040517ff645eedf00000000000000000000000000000000000000000000000000000000815260040160405180910390fd5b600260038111156115ef576115ee612504565b5b82600381111561160257611601612504565b5b0361164657805f1c6040517ffce698f700000000000000000000000000000000000000000000000000000000815260040161163d9190612531565b60405180910390fd5b60038081111561165957611658612504565b5b82600381111561166c5761166b612504565b5b036116ae57806040517fd78bce0c0000000000000000000000000000000000000000000000000000000081526004016116a5919061213c565b60405180910390fd5b5b5050565b6060605d73ffffffffffffffffffffffffffffffffffffffff1663d6ad57cd84845f1c6040518363ffffffff1660e01b81526004016116f392919061254a565b5f60405180830381865afa15801561170d573d5f803e3d5ffd5b505050506040513d5f823e3d601f19601f82011682018060405250810190611735919061260f565b905092915050565b5f611749826002611979565b9050919050565b606060ff5f1b831461176c5761176583611a00565b90506117f7565b81805461177890612683565b80601f01602080910402602001604051908101604052809291908181526020018280546117a490612683565b80156117ef5780601f106117c6576101008083540402835291602001916117ef565b820191905f5260205f20905b8154815290600101906020018083116117d257829003601f168201915b505050505090505b92915050565b5f7f8b73c3c69bb8fe3d512ecc4cf759cc79239f7b179b0ffacaa9a75d522b39400f7f00000000000000000000000000000000000000000000000000000000000000007f000000000000000000000000000000000000000000000000000000000000000046306040516020016118779594939291906126b3565b60405160208183030381529060405280519060200120905090565b5f805f7f7fffffffffffffffffffffffffffffff5d576e7357a4501ddfe92f46681b20a0845f1c11156118ce575f60038592509250925061196f565b5f6001888888886040515f81526020016040526040516118f1949392919061271f565b6020604051602081039080840390855afa158015611911573d5f803e3d5ffd5b5050506020604051035190505f73ffffffffffffffffffffffffffffffffffffffff168173ffffffffffffffffffffffffffffffffffffffff1603611962575f60015f801b9350935093505061196f565b805f805f1b935093509350505b9450945094915050565b5f605d73ffffffffffffffffffffffffffffffffffffffff1663e71746b8848460f81b6040518363ffffffff1660e01b81526004016119b9929190612762565b602060405180830381865afa1580156119d4573d5f803e3d5ffd5b505050506040513d601f19601f820116820180604052508101906119f891906127b3565b905092915050565b60605f611a0c83611a72565b90505f602067ffffffffffffffff811115611a2a57611a2961210f565b5b6040519080825280601f01601f191660200182016040528015611a5c5781602001600182028036833780820191505090505b5090508181528360208201528092505050919050565b5f8060ff835f1c169050601f811115611ab7576040517fb3512b0c00000000000000000000000000000000000000000000000000000000815260040160405180910390fd5b80915050919050565b6040518060c001604052805f81526020015f73ffffffffffffffffffffffffffffffffffffffff1681526020015f81526020015f81526020015f81526020015f73ffffffffffffffffffffffffffffffffffffffff1681525090565b604051806101000160405280606081526020015f73ffffffffffffffffffffffffffffffffffffffff1681526020015f81526020015f81526020015f81526020015f81526020015f63ffffffff1681526020015f81525090565b5f604051905090565b5f80fd5b5f80fd5b5f819050919050565b611b9981611b87565b8114611ba3575f80fd5b50565b5f81359050611bb481611b90565b92915050565b5f80fd5b5f80fd5b5f80fd5b5f8083601f840112611bdb57611bda611bba565b5b8235905067ffffffffffffffff811115611bf857611bf7611bbe565b5b602083019150836001820283011115611c1457611c13611bc2565b5b9250929050565b5f73ffffffffffffffffffffffffffffffffffffffff82169050919050565b5f611c4482611c1b565b9050919050565b611c5481611c3a565b8114611c5e575f80fd5b50565b5f81359050611c6f81611c4b565b92915050565b5f805f805f60808688031215611c8e57611c8d611b7f565b5b5f611c9b88828901611ba6565b9550506020611cac88828901611ba6565b945050604086013567ffffffffffffffff811115611ccd57611ccc611b83565b5b611cd988828901611bc6565b93509350506060611cec88828901611c61565b9150509295509295909350565b5f81519050919050565b5f82825260208201905092915050565b5f5b83811015611d30578082015181840152602081019050611d15565b5f8484015250505050565b5f601f19601f8301169050919050565b5f611d5582611cf9565b611d5f8185611d03565b9350611d6f818560208601611d13565b611d7881611d3b565b840191505092915050565b5f6020820190508181035f830152611d9b8184611d4b565b905092915050565b5f805f8060608587031215611dbb57611dba611b7f565b5b5f611dc887828801611ba6565b9450506020611dd987828801611ba6565b935050604085013567ffffffffffffffff811115611dfa57611df9611b83565b5b611e0687828801611bc6565b925092505092959194509250565b5f7fff0000000000000000000000000000000000000000000000000000000000000082169050919050565b611e4881611e14565b82525050565b5f81519050919050565b5f82825260208201905092915050565b5f611e7282611e4e565b611e7c8185611e58565b9350611e8c818560208601611d13565b611e9581611d3b565b840191505092915050565b5f819050919050565b611eb281611ea0565b82525050565b611ec181611c3a565b82525050565b611ed081611b87565b82525050565b5f81519050919050565b5f82825260208201905092915050565b5f819050602082019050919050565b611f0881611ea0565b82525050565b5f611f198383611eff565b60208301905092915050565b5f602082019050919050565b5f611f3b82611ed6565b611f458185611ee0565b9350611f5083611ef0565b805f5b83811015611f80578151611f678882611f0e565b9750611f7283611f25565b925050600181019050611f53565b5085935050505092915050565b5f60e082019050611fa05f83018a611e3f565b8181036020830152611fb28189611e68565b90508181036040830152611fc68188611e68565b9050611fd56060830187611ea9565b611fe26080830186611eb8565b611fef60a0830185611ec7565b81810360c08301526120018184611f31565b905098975050505050505050565b5f6020828403121561202457612023611b7f565b5b5f61203184828501611ba6565b91505092915050565b5f6020820190508181035f8301526120528184611e68565b905092915050565b5f60408201905061206d5f830185611ec7565b61207a6020830184611ec7565b9392505050565b7f454950373132207369676e657220616e64207472616e73616374696f6e2073695f8201527f676e657220646f206e6f74206d61746368000000000000000000000000000000602082015250565b5f6120db603183611e58565b91506120e682612081565b604082019050919050565b5f6020820190508181035f830152612108816120cf565b9050919050565b7f4e487b71000000000000000000000000000000000000000000000000000000005f52604160045260245ffd5b5f60208201905061214f5f830184611ec7565b92915050565b5f80fd5b61216282611d3b565b810181811067ffffffffffffffff821117156121815761218061210f565b5b80604052505050565b5f612193611b76565b905061219f8282612159565b919050565b5f80fd5b6121b181611ea0565b81146121bb575f80fd5b50565b5f815190506121cc816121a8565b92915050565b5f815190506121e081611c4b565b92915050565b5f60c082840312156121fb576121fa612155565b5b61220560c061218a565b90505f612214848285016121be565b5f830152506020612227848285016121d2565b602083015250604061223b848285016121be565b604083015250606061224f848285016121be565b6060830152506080612263848285016121be565b60808301525060a0612277848285016121d2565b60a08301525092915050565b5f60c0828403121561229857612297611b7f565b5b5f6122a5848285016121e6565b91505092915050565b5f6040820190506122c15f830185611ec7565b6122ce6020830184611eb8565b9392505050565b5f80fd5b5f67ffffffffffffffff8211156122f3576122f261210f565b5b6122fc82611d3b565b9050602081019050919050565b5f61231b612316846122d9565b61218a565b905082815260208101848484011115612337576123366122d5565b5b612342848285611d13565b509392505050565b5f82601f83011261235e5761235d611bba565b5b815161236e848260208601612309565b91505092915050565b61238081611ea0565b811461238a575f80fd5b50565b5f8151905061239b81612377565b92915050565b5f63ffffffff82169050919050565b6123b9816123a1565b81146123c3575f80fd5b50565b5f815190506123d4816123b0565b92915050565b5f61010082840312156123f0576123ef612155565b5b6123fb61010061218a565b90505f82015167ffffffffffffffff81111561241a576124196121a4565b5b6124268482850161234a565b5f830152506020612439848285016121d2565b602083015250604061244d848285016121be565b6040830152506060612461848285016121be565b6060830152506080612475848285016121be565b60808301525060a06124898482850161238d565b60a08301525060c061249d848285016123c6565b60c08301525060e06124b1848285016121be565b60e08301525092915050565b5f602082840312156124d2576124d1611b7f565b5b5f82015167ffffffffffffffff8111156124ef576124ee611b83565b5b6124fb848285016123da565b91505092915050565b7f4e487b71000000000000000000000000000000000000000000000000000000005f52602160045260245ffd5b5f6020820190506125445f830184611ea9565b92915050565b5f60408201905061255d5f830185611ea9565b61256a6020830184611ea9565b9392505050565b5f67ffffffffffffffff82111561258b5761258a61210f565b5b61259482611d3b565b9050602081019050919050565b5f6125b36125ae84612571565b61218a565b9050828152602081018484840111156125cf576125ce6122d5565b5b6125da848285611d13565b509392505050565b5f82601f8301126125f6576125f5611bba565b5b81516126068482602086016125a1565b91505092915050565b5f6020828403121561262457612623611b7f565b5b5f82015167ffffffffffffffff81111561264157612640611b83565b5b61264d848285016125e2565b91505092915050565b7f4e487b71000000000000000000000000000000000000000000000000000000005f52602260045260245ffd5b5f600282049050600182168061269a57607f821691505b6020821081036126ad576126ac612656565b5b50919050565b5f60a0820190506126c65f830188611ec7565b6126d36020830187611ec7565b6126e06040830186611ec7565b6126ed6060830185611ea9565b6126fa6080830184611eb8565b9695505050505050565b5f60ff82169050919050565b61271981612704565b82525050565b5f6080820190506127325f830187611ec7565b61273f6020830186612710565b61274c6040830185611ec7565b6127596060830184611ec7565b95945050505050565b5f6040820190506127755f830185611ea9565b6127826020830184611e3f565b9392505050565b61279281611ea0565b811461279c575f80fd5b50565b5f815190506127ad81612789565b92915050565b5f602082840312156127c8576127c7611b7f565b5b5f6127d58482850161279f565b9150509291505056fea264697066735822122064ba87d69449afc70e4ab4bb2040083c25ef5b98c19b3124f103b147a01cc7d864736f6c63430008180033",
			"opcodes": "PUSH2 0x160 PUSH1 0x40 MSTORE CALLVALUE DUP1 ISZERO PUSH3 0x11 JUMPI PUSH0 DUP1 REVERT JUMPDEST POP PUSH1 0x40 MLOAD PUSH3 0x30E1 CODESIZE SUB DUP1 PUSH3 0x30E1 DUP4 CODECOPY DUP2 DUP2 ADD PUSH1 0x40 MSTORE DUP2 ADD SWAP1 PUSH3 0x37 SWAP2 SWAP1 PUSH3 0x322 JUMP JUMPDEST PUSH1 0x40 MLOAD DUP1 PUSH1 0x40 ADD PUSH1 0x40 MSTORE DUP1 PUSH1 0x13 DUP2 MSTORE PUSH1 0x20 ADD PUSH32 0x417574686F72697A6174696F6E20746F6B656E00000000000000000000000000 DUP2 MSTORE POP PUSH1 0x40 MLOAD DUP1 PUSH1 0x40 ADD PUSH1 0x40 MSTORE DUP1 PUSH1 0x1 DUP2 MSTORE PUSH1 0x20 ADD PUSH32 0x3100000000000000000000000000000000000000000000000000000000000000 DUP2 MSTORE POP PUSH3 0xB8 PUSH0 DUP4 PUSH3 0x199 PUSH1 0x20 SHL SWAP1 SWAP2 SWAP1 PUSH1 0x20 SHR JUMP JUMPDEST PUSH2 0x120 DUP2 DUP2 MSTORE POP POP PUSH3 0xD6 PUSH1 0x1 DUP3 PUSH3 0x199 PUSH1 0x20 SHL SWAP1 SWAP2 SWAP1 PUSH1 0x20 SHR JUMP JUMPDEST PUSH2 0x140 DUP2 DUP2 MSTORE POP POP DUP2 DUP1 MLOAD SWAP1 PUSH1 0x20 ADD KECCAK256 PUSH1 0xE0 DUP2 DUP2 MSTORE POP POP DUP1 DUP1 MLOAD SWAP1 PUSH1 0x20 ADD KECCAK256 PUSH2 0x100 DUP2 DUP2 MSTORE POP POP CHAINID PUSH1 0xA0 DUP2 DUP2 MSTORE POP POP PUSH3 0x115 PUSH3 0x1EE PUSH1 0x20 SHL PUSH1 0x20 SHR JUMP JUMPDEST PUSH1 0x80 DUP2 DUP2 MSTORE POP POP ADDRESS PUSH20 0xFFFFFFFFFFFFFFFFFFFFFFFFFFFFFFFFFFFFFFFF AND PUSH1 0xC0 DUP2 PUSH20 0xFFFFFFFFFFFFFFFFFFFFFFFFFFFFFFFFFFFFFFFF AND DUP2 MSTORE POP POP POP POP DUP1 PUSH1 0x2 PUSH0 PUSH2 0x100 EXP DUP2 SLOAD DUP2 PUSH20 0xFFFFFFFFFFFFFFFFFFFFFFFFFFFFFFFFFFFFFFFF MUL NOT AND SWAP1 DUP4 PUSH20 0xFFFFFFFFFFFFFFFFFFFFFFFFFFFFFFFFFFFFFFFF AND MUL OR SWAP1 SSTORE POP POP PUSH3 0x87B JUMP JUMPDEST PUSH0 PUSH1 0x20 DUP4 MLOAD LT ISZERO PUSH3 0x1BE JUMPI PUSH3 0x1B6 DUP4 PUSH3 0x24A PUSH1 0x20 SHL PUSH1 0x20 SHR JUMP JUMPDEST SWAP1 POP PUSH3 0x1E8 JUMP JUMPDEST DUP3 PUSH3 0x1D0 DUP4 PUSH3 0x2B4 PUSH1 0x20 SHL PUSH1 0x20 SHR JUMP JUMPDEST PUSH0 ADD SWAP1 DUP2 PUSH3 0x1E0 SWAP2 SWAP1 PUSH3 0x5B6 JUMP JUMPDEST POP PUSH1 0xFF PUSH0 SHL SWAP1 POP JUMPDEST SWAP3 SWAP2 POP POP JUMP JUMPDEST PUSH0 PUSH32 0x8B73C3C69BB8FE3D512ECC4CF759CC79239F7B179B0FFACAA9A75D522B39400F PUSH1 0xE0 MLOAD PUSH2 0x100 MLOAD CHAINID ADDRESS PUSH1 0x40 MLOAD PUSH1 0x20 ADD PUSH3 0x22F SWAP6 SWAP5 SWAP4 SWAP3 SWAP2 SWAP1 PUSH3 0x6D6 JUMP JUMPDEST PUSH1 0x40 MLOAD PUSH1 0x20 DUP2 DUP4 SUB SUB DUP2 MSTORE SWAP1 PUSH1 0x40 MSTORE DUP1 MLOAD SWAP1 PUSH1 0x20 ADD KECCAK256 SWAP1 POP SWAP1 JUMP JUMPDEST PUSH0 DUP1 DUP3 SWAP1 POP PUSH1 0x1F DUP2 MLOAD GT ISZERO PUSH3 0x299 JUMPI DUP3 PUSH1 0x40 MLOAD PUSH32 0x305A27A900000000000000000000000000000000000000000000000000000000 DUP2 MSTORE PUSH1 0x4 ADD PUSH3 0x290 SWAP2 SWAP1 PUSH3 0x7BB JUMP JUMPDEST PUSH1 0x40 MLOAD DUP1 SWAP2 SUB SWAP1 REVERT JUMPDEST DUP1 MLOAD DUP2 PUSH3 0x2A7 SWAP1 PUSH3 0x80C JUMP JUMPDEST PUSH0 SHR OR PUSH0 SHL SWAP2 POP POP SWAP2 SWAP1 POP JUMP JUMPDEST PUSH0 DUP2 SWAP1 POP SWAP2 SWAP1 POP JUMP JUMPDEST PUSH0 DUP1 REVERT JUMPDEST PUSH0 PUSH20 0xFFFFFFFFFFFFFFFFFFFFFFFFFFFFFFFFFFFFFFFF DUP3 AND SWAP1 POP SWAP2 SWAP1 POP JUMP JUMPDEST PUSH0 PUSH3 0x2EC DUP3 PUSH3 0x2C1 JUMP JUMPDEST SWAP1 POP SWAP2 SWAP1 POP JUMP JUMPDEST PUSH3 0x2FE DUP2 PUSH3 0x2E0 JUMP JUMPDEST DUP2 EQ PUSH3 0x309 JUMPI PUSH0 DUP1 REVERT JUMPDEST POP JUMP JUMPDEST PUSH0 DUP2 MLOAD SWAP1 POP PUSH3 0x31C DUP2 PUSH3 0x2F3 JUMP JUMPDEST SWAP3 SWAP2 POP POP JUMP JUMPDEST PUSH0 PUSH1 0x20 DUP3 DUP5 SUB SLT ISZERO PUSH3 0x33A JUMPI PUSH3 0x339 PUSH3 0x2BD JUMP JUMPDEST JUMPDEST PUSH0 PUSH3 0x349 DUP5 DUP3 DUP6 ADD PUSH3 0x30C JUMP JUMPDEST SWAP2 POP POP SWAP3 SWAP2 POP POP JUMP JUMPDEST PUSH0 DUP2 MLOAD SWAP1 POP SWAP2 SWAP1 POP JUMP JUMPDEST PUSH32 0x4E487B7100000000000000000000000000000000000000000000000000000000 PUSH0 MSTORE PUSH1 0x41 PUSH1 0x4 MSTORE PUSH1 0x24 PUSH0 REVERT JUMPDEST PUSH32 0x4E487B7100000000000000000000000000000000000000000000000000000000 PUSH0 MSTORE PUSH1 0x22 PUSH1 0x4 MSTORE PUSH1 0x24 PUSH0 REVERT JUMPDEST PUSH0 PUSH1 0x2 DUP3 DIV SWAP1 POP PUSH1 0x1 DUP3 AND DUP1 PUSH3 0x3CE JUMPI PUSH1 0x7F DUP3 AND SWAP2 POP JUMPDEST PUSH1 0x20 DUP3 LT DUP2 SUB PUSH3 0x3E4 JUMPI PUSH3 0x3E3 PUSH3 0x389 JUMP JUMPDEST JUMPDEST POP SWAP2 SWAP1 POP JUMP JUMPDEST PUSH0 DUP2 SWAP1 POP DUP2 PUSH0 MSTORE PUSH1 0x20 PUSH0 KECCAK256 SWAP1 POP SWAP2 SWAP1 POP JUMP JUMPDEST PUSH0 PUSH1 0x20 PUSH1 0x1F DUP4 ADD DIV SWAP1 POP SWAP2 SWAP1 POP JUMP JUMPDEST PUSH0 DUP3 DUP3 SHL SWAP1 POP SWAP3 SWAP2 POP POP JUMP JUMPDEST PUSH0 PUSH1 0x8 DUP4 MUL PUSH3 0x448 PUSH32 0xFFFFFFFFFFFFFFFFFFFFFFFFFFFFFFFFFFFFFFFFFFFFFFFFFFFFFFFFFFFFFFFF DUP3 PUSH3 0x40B JUMP JUMPDEST PUSH3 0x454 DUP7 DUP4 PUSH3 0x40B JUMP JUMPDEST SWAP6 POP DUP1 NOT DUP5 AND SWAP4 POP DUP1 DUP7 AND DUP5 OR SWAP3 POP POP POP SWAP4 SWAP3 POP POP POP JUMP JUMPDEST PUSH0 DUP2 SWAP1 POP SWAP2 SWAP1 POP JUMP JUMPDEST PUSH0 DUP2 SWAP1 POP SWAP2 SWAP1 POP JUMP JUMPDEST PUSH0 PUSH3 0x49E PUSH3 0x498 PUSH3 0x492 DUP5 PUSH3 0x46C JUMP JUMPDEST PUSH3 0x475 JUMP JUMPDEST PUSH3 0x46C JUMP JUMPDEST SWAP1 POP SWAP2 SWAP1 POP JUMP JUMPDEST PUSH0 DUP2 SWAP1 POP SWAP2 SWAP1 POP JUMP JUMPDEST PUSH3 0x4B9 DUP4 PUSH3 0x47E JUMP JUMPDEST PUSH3 0x4D1 PUSH3 0x4C8 DUP3 PUSH3 0x4A5 JUMP JUMPDEST DUP5 DUP5 SLOAD PUSH3 0x417 JUMP JUMPDEST DUP3 SSTORE POP POP POP POP JUMP JUMPDEST PUSH0 SWAP1 JUMP JUMPDEST PUSH3 0x4E7 PUSH3 0x4D9 JUMP JUMPDEST PUSH3 0x4F4 DUP2 DUP5 DUP5 PUSH3 0x4AE JUMP JUMPDEST POP POP POP JUMP JUMPDEST JUMPDEST DUP2 DUP2 LT ISZERO PUSH3 0x51B JUMPI PUSH3 0x50F PUSH0 DUP3 PUSH3 0x4DD JUMP JUMPDEST PUSH1 0x1 DUP2 ADD SWAP1 POP PUSH3 0x4FA JUMP JUMPDEST POP POP JUMP JUMPDEST PUSH1 0x1F DUP3 GT ISZERO PUSH3 0x56A JUMPI PUSH3 0x534 DUP2 PUSH3 0x3EA JUMP JUMPDEST PUSH3 0x53F DUP5 PUSH3 0x3FC JUMP JUMPDEST DUP2 ADD PUSH1 0x20 DUP6 LT ISZERO PUSH3 0x54F JUMPI DUP2 SWAP1 POP JUMPDEST PUSH3 0x567 PUSH3 0x55E DUP6 PUSH3 0x3FC JUMP JUMPDEST DUP4 ADD DUP3 PUSH3 0x4F9 JUMP JUMPDEST POP POP JUMPDEST POP POP POP JUMP JUMPDEST PUSH0 DUP3 DUP3 SHR SWAP1 POP SWAP3 SWAP2 POP POP JUMP JUMPDEST PUSH0 PUSH3 0x58C PUSH0 NOT DUP5 PUSH1 0x8 MUL PUSH3 0x56F JUMP JUMPDEST NOT DUP1 DUP4 AND SWAP2 POP POP SWAP3 SWAP2 POP POP JUMP JUMPDEST PUSH0 PUSH3 0x5A6 DUP4 DUP4 PUSH3 0x57B JUMP JUMPDEST SWAP2 POP DUP3 PUSH1 0x2 MUL DUP3 OR SWAP1 POP SWAP3 SWAP2 POP POP JUMP JUMPDEST PUSH3 0x5C1 DUP3 PUSH3 0x352 JUMP JUMPDEST PUSH8 0xFFFFFFFFFFFFFFFF DUP2 GT ISZERO PUSH3 0x5DD JUMPI PUSH3 0x5DC PUSH3 0x35C JUMP JUMPDEST JUMPDEST PUSH3 0x5E9 DUP3 SLOAD PUSH3 0x3B6 JUMP JUMPDEST PUSH3 0x5F6 DUP3 DUP3 DUP6 PUSH3 0x51F JUMP JUMPDEST PUSH0 PUSH1 0x20 SWAP1 POP PUSH1 0x1F DUP4 GT PUSH1 0x1 DUP2 EQ PUSH3 0x62C JUMPI PUSH0 DUP5 ISZERO PUSH3 0x617 JUMPI DUP3 DUP8 ADD MLOAD SWAP1 POP JUMPDEST PUSH3 0x623 DUP6 DUP3 PUSH3 0x599 JUMP JUMPDEST DUP7 SSTORE POP PUSH3 0x692 JUMP JUMPDEST PUSH1 0x1F NOT DUP5 AND PUSH3 0x63C DUP7 PUSH3 0x3EA JUMP JUMPDEST PUSH0 JUMPDEST DUP3 DUP2 LT ISZERO PUSH3 0x665 JUMPI DUP5 DUP10 ADD MLOAD DUP3 SSTORE PUSH1 0x1 DUP3 ADD SWAP2 POP PUSH1 0x20 DUP6 ADD SWAP5 POP PUSH1 0x20 DUP2 ADD SWAP1 POP PUSH3 0x63E JUMP JUMPDEST DUP7 DUP4 LT ISZERO PUSH3 0x685 JUMPI DUP5 DUP10 ADD MLOAD PUSH3 0x681 PUSH1 0x1F DUP10 AND DUP3 PUSH3 0x57B JUMP JUMPDEST DUP4 SSTORE POP JUMPDEST PUSH1 0x1 PUSH1 0x2 DUP9 MUL ADD DUP9 SSTORE POP POP POP JUMPDEST POP POP POP POP POP POP JUMP JUMPDEST PUSH0 DUP2 SWAP1 POP SWAP2 SWAP1 POP JUMP JUMPDEST PUSH3 0x6AE DUP2 PUSH3 0x69A JUMP JUMPDEST DUP3 MSTORE POP POP JUMP JUMPDEST PUSH3 0x6BF DUP2 PUSH3 0x46C JUMP JUMPDEST DUP3 MSTORE POP POP JUMP JUMPDEST PUSH3 0x6D0 DUP2 PUSH3 0x2E0 JUMP JUMPDEST DUP3 MSTORE POP POP JUMP JUMPDEST PUSH0 PUSH1 0xA0 DUP3 ADD SWAP1 POP PUSH3 0x6EB PUSH0 DUP4 ADD DUP9 PUSH3 0x6A3 JUMP JUMPDEST PUSH3 0x6FA PUSH1 0x20 DUP4 ADD DUP8 PUSH3 0x6A3 JUMP JUMPDEST PUSH3 0x709 PUSH1 0x40 DUP4 ADD DUP7 PUSH3 0x6A3 JUMP JUMPDEST PUSH3 0x718 PUSH1 0x60 DUP4 ADD DUP6 PUSH3 0x6B4 JUMP JUMPDEST PUSH3 0x727 PUSH1 0x80 DUP4 ADD DUP5 PUSH3 0x6C5 JUMP JUMPDEST SWAP7 SWAP6 POP POP POP POP POP POP JUMP JUMPDEST PUSH0 DUP3 DUP3 MSTORE PUSH1 0x20 DUP3 ADD SWAP1 POP SWAP3 SWAP2 POP POP JUMP JUMPDEST PUSH0 JUMPDEST DUP4 DUP2 LT ISZERO PUSH3 0x760 JUMPI DUP1 DUP3 ADD MLOAD DUP2 DUP5 ADD MSTORE PUSH1 0x20 DUP2 ADD SWAP1 POP PUSH3 0x743 JUMP JUMPDEST PUSH0 DUP5 DUP5 ADD MSTORE POP POP POP POP JUMP JUMPDEST PUSH0 PUSH1 0x1F NOT PUSH1 0x1F DUP4 ADD AND SWAP1 POP SWAP2 SWAP1 POP JUMP JUMPDEST PUSH0 PUSH3 0x787 DUP3 PUSH3 0x352 JUMP JUMPDEST PUSH3 0x793 DUP2 DUP6 PUSH3 0x731 JUMP JUMPDEST SWAP4 POP PUSH3 0x7A5 DUP2 DUP6 PUSH1 0x20 DUP7 ADD PUSH3 0x741 JUMP JUMPDEST PUSH3 0x7B0 DUP2 PUSH3 0x76B JUMP JUMPDEST DUP5 ADD SWAP2 POP POP SWAP3 SWAP2 POP POP JUMP JUMPDEST PUSH0 PUSH1 0x20 DUP3 ADD SWAP1 POP DUP2 DUP2 SUB PUSH0 DUP4 ADD MSTORE PUSH3 0x7D5 DUP2 DUP5 PUSH3 0x77B JUMP JUMPDEST SWAP1 POP SWAP3 SWAP2 POP POP JUMP JUMPDEST PUSH0 DUP2 MLOAD SWAP1 POP SWAP2 SWAP1 POP JUMP JUMPDEST PUSH0 DUP2 SWAP1 POP PUSH1 0x20 DUP3 ADD SWAP1 POP SWAP2 SWAP1 POP JUMP JUMPDEST PUSH0 PUSH3 0x803 DUP3 MLOAD PUSH3 0x69A JUMP JUMPDEST DUP1 SWAP2 POP POP SWAP2 SWAP1 POP JUMP JUMPDEST PUSH0 PUSH3 0x818 DUP3 PUSH3 0x7DD JUMP JUMPDEST DUP3 PUSH3 0x824 DUP5 PUSH3 0x7E7 JUMP JUMPDEST SWAP1 POP PUSH3 0x831 DUP2 PUSH3 0x7F6 JUMP JUMPDEST SWAP3 POP PUSH1 0x20 DUP3 LT ISZERO PUSH3 0x874 JUMPI PUSH3 0x86F PUSH32 0xFFFFFFFFFFFFFFFFFFFFFFFFFFFFFFFFFFFFFFFFFFFFFFFFFFFFFFFFFFFFFFFF DUP4 PUSH1 0x20 SUB PUSH1 0x8 MUL PUSH3 0x40B JUMP JUMPDEST DUP4 AND SWAP3 POP JUMPDEST POP POP SWAP2 SWAP1 POP JUMP JUMPDEST PUSH1 0x80 MLOAD PUSH1 0xA0 MLOAD PUSH1 0xC0 MLOAD PUSH1 0xE0 MLOAD PUSH2 0x100 MLOAD PUSH2 0x120 MLOAD PUSH2 0x140 MLOAD PUSH2 0x2814 PUSH3 0x8CD PUSH0 CODECOPY PUSH0 PUSH2 0x13D4 ADD MSTORE PUSH0 PUSH2 0x1399 ADD MSTORE PUSH0 PUSH2 0x1842 ADD MSTORE PUSH0 PUSH2 0x1821 ADD MSTORE PUSH0 PUSH2 0x1409 ADD MSTORE PUSH0 PUSH2 0x145F ADD MSTORE PUSH0 PUSH2 0x1488 ADD MSTORE PUSH2 0x2814 PUSH0 RETURN INVALID PUSH1 0x80 PUSH1 0x40 MSTORE CALLVALUE DUP1 ISZERO PUSH2 0xF JUMPI PUSH0 DUP1 REVERT JUMPDEST POP PUSH1 0x4 CALLDATASIZE LT PUSH2 0x9C JUMPI PUSH0 CALLDATALOAD PUSH1 0xE0 SHR DUP1 PUSH4 0x85095370 GT PUSH2 0x64 JUMPI DUP1 PUSH4 0x85095370 EQ PUSH2 0x184 JUMPI DUP1 PUSH4 0x87908527 EQ PUSH2 0x1B4 JUMPI DUP1 PUSH4 0xC80AF768 EQ PUSH2 0x1E4 JUMPI DUP1 PUSH4 0xE959F150 EQ PUSH2 0x214 JUMPI DUP1 PUSH4 0xEB301016 EQ PUSH2 0x244 JUMPI PUSH2 0x9C JUMP JUMPDEST DUP1 PUSH4 0x1632AE3E EQ PUSH2 0xA0 JUMPI DUP1 PUSH4 0x274C727C EQ PUSH2 0xD0 JUMPI DUP1 PUSH4 0x69FA32B0 EQ PUSH2 0x100 JUMPI DUP1 PUSH4 0x82A9044B EQ PUSH2 0x130 JUMPI DUP1 PUSH4 0x84B0196E EQ PUSH2 0x160 JUMPI JUMPDEST PUSH0 DUP1 REVERT JUMPDEST PUSH2 0xBA PUSH1 0x4 DUP1 CALLDATASIZE SUB DUP2 ADD SWAP1 PUSH2 0xB5 SWAP2 SWAP1 PUSH2 0x1C75 JUMP JUMPDEST PUSH2 0x274 JUMP JUMPDEST PUSH1 0x40 MLOAD PUSH2 0xC7 SWAP2 SWAP1 PUSH2 0x1D83 JUMP JUMPDEST PUSH1 0x40 MLOAD DUP1 SWAP2 SUB SWAP1 RETURN JUMPDEST PUSH2 0xEA PUSH1 0x4 DUP1 CALLDATASIZE SUB DUP2 ADD SWAP1 PUSH2 0xE5 SWAP2 SWAP1 PUSH2 0x1DA3 JUMP JUMPDEST PUSH2 0x43D JUMP JUMPDEST PUSH1 0x40 MLOAD PUSH2 0xF7 SWAP2 SWAP1 PUSH2 0x1D83 JUMP JUMPDEST PUSH1 0x40 MLOAD DUP1 SWAP2 SUB SWAP1 RETURN JUMPDEST PUSH2 0x11A PUSH1 0x4 DUP1 CALLDATASIZE SUB DUP2 ADD SWAP1 PUSH2 0x115 SWAP2 SWAP1 PUSH2 0x1DA3 JUMP JUMPDEST PUSH2 0x615 JUMP JUMPDEST PUSH1 0x40 MLOAD PUSH2 0x127 SWAP2 SWAP1 PUSH2 0x1D83 JUMP JUMPDEST PUSH1 0x40 MLOAD DUP1 SWAP2 SUB SWAP1 RETURN JUMPDEST PUSH2 0x14A PUSH1 0x4 DUP1 CALLDATASIZE SUB DUP2 ADD SWAP1 PUSH2 0x145 SWAP2 SWAP1 PUSH2 0x1C75 JUMP JUMPDEST PUSH2 0x7ED JUMP JUMPDEST PUSH1 0x40 MLOAD PUSH2 0x157 SWAP2 SWAP1 PUSH2 0x1D83 JUMP JUMPDEST PUSH1 0x40 MLOAD DUP1 SWAP2 SUB SWAP1 RETURN JUMPDEST PUSH2 0x168 PUSH2 0x9B6 JUMP JUMPDEST PUSH1 0x40 MLOAD PUSH2 0x17B SWAP8 SWAP7 SWAP6 SWAP5 SWAP4 SWAP3 SWAP2 SWAP1 PUSH2 0x1F8D JUMP JUMPDEST PUSH1 0x40 MLOAD DUP1 SWAP2 SUB SWAP1 RETURN JUMPDEST PUSH2 0x19E PUSH1 0x4 DUP1 CALLDATASIZE SUB DUP2 ADD SWAP1 PUSH2 0x199 SWAP2 SWAP1 PUSH2 0x1C75 JUMP JUMPDEST PUSH2 0xA5B JUMP JUMPDEST PUSH1 0x40 MLOAD PUSH2 0x1AB SWAP2 SWAP1 PUSH2 0x1D83 JUMP JUMPDEST PUSH1 0x40 MLOAD DUP1 SWAP2 SUB SWAP1 RETURN JUMPDEST PUSH2 0x1CE PUSH1 0x4 DUP1 CALLDATASIZE SUB DUP2 ADD SWAP1 PUSH2 0x1C9 SWAP2 SWAP1 PUSH2 0x1DA3 JUMP JUMPDEST PUSH2 0xC24 JUMP JUMPDEST PUSH1 0x40 MLOAD PUSH2 0x1DB SWAP2 SWAP1 PUSH2 0x1D83 JUMP JUMPDEST PUSH1 0x40 MLOAD DUP1 SWAP2 SUB SWAP1 RETURN JUMPDEST PUSH2 0x1FE PUSH1 0x4 DUP1 CALLDATASIZE SUB DUP2 ADD SWAP1 PUSH2 0x1F9 SWAP2 SWAP1 PUSH2 0x1C75 JUMP JUMPDEST PUSH2 0xDFB JUMP JUMPDEST PUSH1 0x40 MLOAD PUSH2 0x20B SWAP2 SWAP1 PUSH2 0x1D83 JUMP JUMPDEST PUSH1 0x40 MLOAD DUP1 SWAP2 SUB SWAP1 RETURN JUMPDEST PUSH2 0x22E PUSH1 0x4 DUP1 CALLDATASIZE SUB DUP2 ADD SWAP1 PUSH2 0x229 SWAP2 SWAP1 PUSH2 0x1DA3 JUMP JUMPDEST PUSH2 0xFC4 JUMP JUMPDEST PUSH1 0x40 MLOAD PUSH2 0x23B SWAP2 SWAP1 PUSH2 0x1D83 JUMP JUMPDEST PUSH1 0x40 MLOAD DUP1 SWAP2 SUB SWAP1 RETURN JUMPDEST PUSH2 0x25E PUSH1 0x4 DUP1 CALLDATASIZE SUB DUP2 ADD SWAP1 PUSH2 0x259 SWAP2 SWAP1 PUSH2 0x200F JUMP JUMPDEST PUSH2 0x119C JUMP JUMPDEST PUSH1 0x40 MLOAD PUSH2 0x26B SWAP2 SWAP1 PUSH2 0x203A JUMP JUMPDEST PUSH1 0x40 MLOAD DUP1 SWAP2 SUB SWAP1 RETURN JUMPDEST PUSH1 0x60 DUP5 DUP5 DUP5 DUP1 DUP1 PUSH1 0x1F ADD PUSH1 0x20 DUP1 SWAP2 DIV MUL PUSH1 0x20 ADD PUSH1 0x40 MLOAD SWAP1 DUP2 ADD PUSH1 0x40 MSTORE DUP1 SWAP4 SWAP3 SWAP2 SWAP1 DUP2 DUP2 MSTORE PUSH1 0x20 ADD DUP4 DUP4 DUP1 DUP3 DUP5 CALLDATACOPY PUSH0 DUP2 DUP5 ADD MSTORE PUSH1 0x1F NOT PUSH1 0x1F DUP3 ADD AND SWAP1 POP DUP1 DUP4 ADD SWAP3 POP POP POP POP POP POP POP DUP8 DUP5 PUSH0 PUSH2 0x30F PUSH32 0x51D137AE0E1FAE6E3B6559FED4442B35A85A9A39789838AD5C9EA05E7DA2DCE DUP7 PUSH1 0x40 MLOAD PUSH1 0x20 ADD PUSH2 0x2F4 SWAP3 SWAP2 SWAP1 PUSH2 0x205A JUMP JUMPDEST PUSH1 0x40 MLOAD PUSH1 0x20 DUP2 DUP4 SUB SUB DUP2 MSTORE SWAP1 PUSH1 0x40 MSTORE DUP1 MLOAD SWAP1 PUSH1 0x20 ADD KECCAK256 PUSH2 0x11BC JUMP JUMPDEST SWAP1 POP PUSH0 PUSH2 0x31C DUP3 DUP7 PUSH2 0x11D5 JUMP JUMPDEST SWAP1 POP PUSH0 PUSH2 0x328 DUP6 PUSH2 0x11FF JUMP JUMPDEST SWAP1 POP CALLER PUSH20 0xFFFFFFFFFFFFFFFFFFFFFFFFFFFFFFFFFFFFFFFF AND DUP3 PUSH20 0xFFFFFFFFFFFFFFFFFFFFFFFFFFFFFFFFFFFFFFFF AND EQ DUP1 ISZERO PUSH2 0x390 JUMPI POP DUP4 PUSH20 0xFFFFFFFFFFFFFFFFFFFFFFFFFFFFFFFFFFFFFFFF AND CALLER PUSH20 0xFFFFFFFFFFFFFFFFFFFFFFFFFFFFFFFFFFFFFFFF AND EQ JUMPDEST DUP1 PUSH2 0x3CA JUMPI POP DUP1 PUSH1 0x20 ADD MLOAD PUSH20 0xFFFFFFFFFFFFFFFFFFFFFFFFFFFFFFFFFFFFFFFF AND CALLER PUSH20 0xFFFFFFFFFFFFFFFFFFFFFFFFFFFFFFFFFFFFFFFF AND EQ JUMPDEST PUSH2 0x409 JUMPI PUSH1 0x40 MLOAD PUSH32 0x8C379A000000000000000000000000000000000000000000000000000000000 DUP2 MSTORE PUSH1 0x4 ADD PUSH2 0x400 SWAP1 PUSH2 0x20F1 JUMP JUMPDEST PUSH1 0x40 MLOAD DUP1 SWAP2 SUB SWAP1 REVERT JUMPDEST PUSH0 PUSH2 0x414 DUP15 DUP12 PUSH2 0x12A7 JUMP JUMPDEST SWAP1 POP PUSH0 PUSH2 0x426 DUP3 PUSH1 0x80 ADD MLOAD DUP16 PUSH0 PUSH2 0x1355 JUMP JUMPDEST SWAP1 POP DUP1 SWAP10 POP POP POP POP POP POP POP POP POP POP SWAP6 SWAP5 POP POP POP POP POP JUMP JUMPDEST PUSH1 0x60 DUP5 PUSH0 PUSH2 0x44A DUP3 PUSH2 0x11FF JUMP JUMPDEST SWAP1 POP DUP1 PUSH1 0x20 ADD MLOAD PUSH20 0xFFFFFFFFFFFFFFFFFFFFFFFFFFFFFFFFFFFFFFFF AND CALLER PUSH20 0xFFFFFFFFFFFFFFFFFFFFFFFFFFFFFFFFFFFFFFFF AND EQ PUSH2 0x487 JUMPI PUSH0 DUP1 REVERT JUMPDEST DUP6 DUP6 DUP6 DUP1 DUP1 PUSH1 0x1F ADD PUSH1 0x20 DUP1 SWAP2 DIV MUL PUSH1 0x20 ADD PUSH1 0x40 MLOAD SWAP1 DUP2 ADD PUSH1 0x40 MSTORE DUP1 SWAP4 SWAP3 SWAP2 SWAP1 DUP2 DUP2 MSTORE PUSH1 0x20 ADD DUP4 DUP4 DUP1 DUP3 DUP5 CALLDATACOPY PUSH0 DUP2 DUP5 ADD MSTORE PUSH1 0x1F NOT PUSH1 0x1F DUP3 ADD AND SWAP1 POP DUP1 DUP4 ADD SWAP3 POP POP POP POP POP POP POP DUP9 PUSH0 PUSH2 0x51F PUSH32 0x51D137AE0E1FAE6E3B6559FED4442B35A85A9A39789838AD5C9EA05E7DA2DCE DUP6 PUSH1 0x40 MLOAD PUSH1 0x20 ADD PUSH2 0x504 SWAP3 SWAP2 SWAP1 PUSH2 0x205A JUMP JUMPDEST PUSH1 0x40 MLOAD PUSH1 0x20 DUP2 DUP4 SUB SUB DUP2 MSTORE SWAP1 PUSH1 0x40 MSTORE DUP1 MLOAD SWAP1 PUSH1 0x20 ADD KECCAK256 PUSH2 0x11BC JUMP JUMPDEST SWAP1 POP PUSH0 PUSH2 0x52C DUP3 DUP6 PUSH2 0x11D5 JUMP JUMPDEST SWAP1 POP PUSH0 PUSH2 0x538 DUP5 PUSH2 0x11FF JUMP JUMPDEST SWAP1 POP CALLER PUSH20 0xFFFFFFFFFFFFFFFFFFFFFFFFFFFFFFFFFFFFFFFF AND DUP3 PUSH20 0xFFFFFFFFFFFFFFFFFFFFFFFFFFFFFFFFFFFFFFFF AND EQ DUP1 PUSH2 0x5A3 JUMPI POP DUP1 PUSH1 0x20 ADD MLOAD PUSH20 0xFFFFFFFFFFFFFFFFFFFFFFFFFFFFFFFFFFFFFFFF AND CALLER PUSH20 0xFFFFFFFFFFFFFFFFFFFFFFFFFFFFFFFFFFFFFFFF AND EQ JUMPDEST PUSH2 0x5E2 JUMPI PUSH1 0x40 MLOAD PUSH32 0x8C379A000000000000000000000000000000000000000000000000000000000 DUP2 MSTORE PUSH1 0x4 ADD PUSH2 0x5D9 SWAP1 PUSH2 0x20F1 JUMP JUMPDEST PUSH1 0x40 MLOAD DUP1 SWAP2 SUB SWAP1 REVERT JUMPDEST PUSH0 PUSH2 0x5EC DUP15 PUSH2 0x11FF JUMP JUMPDEST SWAP1 POP PUSH0 PUSH2 0x5FE DUP3 PUSH1 0x40 ADD MLOAD DUP16 PUSH0 PUSH2 0x1355 JUMP JUMPDEST SWAP1 POP DUP1 SWAP11 POP POP POP POP POP POP POP POP POP POP POP SWAP5 SWAP4 POP POP POP POP JUMP JUMPDEST PUSH1 0x60 DUP5 PUSH0 PUSH2 0x622 DUP3 PUSH2 0x11FF JUMP JUMPDEST SWAP1 POP DUP1 PUSH1 0x20 ADD MLOAD PUSH20 0xFFFFFFFFFFFFFFFFFFFFFFFFFFFFFFFFFFFFFFFF AND CALLER PUSH20 0xFFFFFFFFFFFFFFFFFFFFFFFFFFFFFFFFFFFFFFFF AND EQ PUSH2 0x65F JUMPI PUSH0 DUP1 REVERT JUMPDEST DUP6 DUP6 DUP6 DUP1 DUP1 PUSH1 0x1F ADD PUSH1 0x20 DUP1 SWAP2 DIV MUL PUSH1 0x20 ADD PUSH1 0x40 MLOAD SWAP1 DUP2 ADD PUSH1 0x40 MSTORE DUP1 SWAP4 SWAP3 SWAP2 SWAP1 DUP2 DUP2 MSTORE PUSH1 0x20 ADD DUP4 DUP4 DUP1 DUP3 DUP5 CALLDATACOPY PUSH0 DUP2 DUP5 ADD MSTORE PUSH1 0x1F NOT PUSH1 0x1F DUP3 ADD AND SWAP1 POP DUP1 DUP4 ADD SWAP3 POP POP POP POP POP POP POP DUP9 PUSH0 PUSH2 0x6F7 PUSH32 0x51D137AE0E1FAE6E3B6559FED4442B35A85A9A39789838AD5C9EA05E7DA2DCE DUP6 PUSH1 0x40 MLOAD PUSH1 0x20 ADD PUSH2 0x6DC SWAP3 SWAP2 SWAP1 PUSH2 0x205A JUMP JUMPDEST PUSH1 0x40 MLOAD PUSH1 0x20 DUP2 DUP4 SUB SUB DUP2 MSTORE SWAP1 PUSH1 0x40 MSTORE DUP1 MLOAD SWAP1 PUSH1 0x20 ADD KECCAK256 PUSH2 0x11BC JUMP JUMPDEST SWAP1 POP PUSH0 PUSH2 0x704 DUP3 DUP6 PUSH2 0x11D5 JUMP JUMPDEST SWAP1 POP PUSH0 PUSH2 0x710 DUP5 PUSH2 0x11FF JUMP JUMPDEST SWAP1 POP CALLER PUSH20 0xFFFFFFFFFFFFFFFFFFFFFFFFFFFFFFFFFFFFFFFF AND DUP3 PUSH20 0xFFFFFFFFFFFFFFFFFFFFFFFFFFFFFFFFFFFFFFFF AND EQ DUP1 PUSH2 0x77B JUMPI POP DUP1 PUSH1 0x20 ADD MLOAD PUSH20 0xFFFFFFFFFFFFFFFFFFFFFFFFFFFFFFFFFFFFFFFF AND CALLER PUSH20 0xFFFFFFFFFFFFFFFFFFFFFFFFFFFFFFFFFFFFFFFF AND EQ JUMPDEST PUSH2 0x7BA JUMPI PUSH1 0x40 MLOAD PUSH32 0x8C379A000000000000000000000000000000000000000000000000000000000 DUP2 MSTORE PUSH1 0x4 ADD PUSH2 0x7B1 SWAP1 PUSH2 0x20F1 JUMP JUMPDEST PUSH1 0x40 MLOAD DUP1 SWAP2 SUB SWAP1 REVERT JUMPDEST PUSH0 PUSH2 0x7C4 DUP15 PUSH2 0x11FF JUMP JUMPDEST SWAP1 POP PUSH0 PUSH2 0x7D6 DUP3 PUSH1 0x60 ADD MLOAD DUP16 PUSH0 PUSH2 0x1355 JUMP JUMPDEST SWAP1 POP DUP1 SWAP11 POP POP POP POP POP POP POP POP POP POP POP SWAP5 SWAP4 POP POP POP POP JUMP JUMPDEST PUSH1 0x60 DUP5 DUP5 DUP5 DUP1 DUP1 PUSH1 0x1F ADD PUSH1 0x20 DUP1 SWAP2 DIV MUL PUSH1 0x20 ADD PUSH1 0x40 MLOAD SWAP1 DUP2 ADD PUSH1 0x40 MSTORE DUP1 SWAP4 SWAP3 SWAP2 SWAP1 DUP2 DUP2 MSTORE PUSH1 0x20 ADD DUP4 DUP4 DUP1 DUP3 DUP5 CALLDATACOPY PUSH0 DUP2 DUP5 ADD MSTORE PUSH1 0x1F NOT PUSH1 0x1F DUP3 ADD AND SWAP1 POP DUP1 DUP4 ADD SWAP3 POP POP POP POP POP POP POP DUP8 DUP5 PUSH0 PUSH2 0x888 PUSH32 0x51D137AE0E1FAE6E3B6559FED4442B35A85A9A39789838AD5C9EA05E7DA2DCE DUP7 PUSH1 0x40 MLOAD PUSH1 0x20 ADD PUSH2 0x86D SWAP3 SWAP2 SWAP1 PUSH2 0x205A JUMP JUMPDEST PUSH1 0x40 MLOAD PUSH1 0x20 DUP2 DUP4 SUB SUB DUP2 MSTORE SWAP1 PUSH1 0x40 MSTORE DUP1 MLOAD SWAP1 PUSH1 0x20 ADD KECCAK256 PUSH2 0x11BC JUMP JUMPDEST SWAP1 POP PUSH0 PUSH2 0x895 DUP3 DUP7 PUSH2 0x11D5 JUMP JUMPDEST SWAP1 POP PUSH0 PUSH2 0x8A1 DUP6 PUSH2 0x11FF JUMP JUMPDEST SWAP1 POP CALLER PUSH20 0xFFFFFFFFFFFFFFFFFFFFFFFFFFFFFFFFFFFFFFFF AND DUP3 PUSH20 0xFFFFFFFFFFFFFFFFFFFFFFFFFFFFFFFFFFFFFFFF AND EQ DUP1 ISZERO PUSH2 0x909 JUMPI POP DUP4 PUSH20 0xFFFFFFFFFFFFFFFFFFFFFFFFFFFFFFFFFFFFFFFF AND CALLER PUSH20 0xFFFFFFFFFFFFFFFFFFFFFFFFFFFFFFFFFFFFFFFF AND EQ JUMPDEST DUP1 PUSH2 0x943 JUMPI POP DUP1 PUSH1 0x20 ADD MLOAD PUSH20 0xFFFFFFFFFFFFFFFFFFFFFFFFFFFFFFFFFFFFFFFF AND CALLER PUSH20 0xFFFFFFFFFFFFFFFFFFFFFFFFFFFFFFFFFFFFFFFF AND EQ JUMPDEST PUSH2 0x982 JUMPI PUSH1 0x40 MLOAD PUSH32 0x8C379A000000000000000000000000000000000000000000000000000000000 DUP2 MSTORE PUSH1 0x4 ADD PUSH2 0x979 SWAP1 PUSH2 0x20F1 JUMP JUMPDEST PUSH1 0x40 MLOAD DUP1 SWAP2 SUB SWAP1 REVERT JUMPDEST PUSH0 PUSH2 0x98D DUP15 DUP12 PUSH2 0x12A7 JUMP JUMPDEST SWAP1 POP PUSH0 PUSH2 0x99F DUP3 PUSH1 0x40 ADD MLOAD DUP16 PUSH0 PUSH2 0x1355 JUMP JUMPDEST SWAP1 POP DUP1 SWAP10 POP POP POP POP POP POP POP POP POP POP SWAP6 SWAP5 POP POP POP POP POP JUMP JUMPDEST PUSH0 PUSH1 0x60 DUP1 PUSH0 DUP1 PUSH0 PUSH1 0x60 PUSH2 0x9C7 PUSH2 0x1391 JUMP JUMPDEST PUSH2 0x9CF PUSH2 0x13CB JUMP JUMPDEST CHAINID ADDRESS PUSH0 DUP1 SHL PUSH0 PUSH8 0xFFFFFFFFFFFFFFFF DUP2 GT ISZERO PUSH2 0x9EE JUMPI PUSH2 0x9ED PUSH2 0x210F JUMP JUMPDEST JUMPDEST PUSH1 0x40 MLOAD SWAP1 DUP1 DUP3 MSTORE DUP1 PUSH1 0x20 MUL PUSH1 0x20 ADD DUP3 ADD PUSH1 0x40 MSTORE DUP1 ISZERO PUSH2 0xA1C JUMPI DUP2 PUSH1 0x20 ADD PUSH1 0x20 DUP3 MUL DUP1 CALLDATASIZE DUP4 CALLDATACOPY DUP1 DUP3 ADD SWAP2 POP POP SWAP1 POP JUMPDEST POP PUSH32 0xF00000000000000000000000000000000000000000000000000000000000000 SWAP6 SWAP5 SWAP4 SWAP3 SWAP2 SWAP1 SWAP7 POP SWAP7 POP SWAP7 POP SWAP7 POP SWAP7 POP SWAP7 POP SWAP7 POP SWAP1 SWAP2 SWAP3 SWAP4 SWAP5 SWAP6 SWAP7 JUMP JUMPDEST PUSH1 0x60 DUP5 DUP5 DUP5 DUP1 DUP1 PUSH1 0x1F ADD PUSH1 0x20 DUP1 SWAP2 DIV MUL PUSH1 0x20 ADD PUSH1 0x40 MLOAD SWAP1 DUP2 ADD PUSH1 0x40 MSTORE DUP1 SWAP4 SWAP3 SWAP2 SWAP1 DUP2 DUP2 MSTORE PUSH1 0x20 ADD DUP4 DUP4 DUP1 DUP3 DUP5 CALLDATACOPY PUSH0 DUP2 DUP5 ADD MSTORE PUSH1 0x1F NOT PUSH1 0x1F DUP3 ADD AND SWAP1 POP DUP1 DUP4 ADD SWAP3 POP POP POP POP POP POP POP DUP8 DUP5 PUSH0 PUSH2 0xAF6 PUSH32 0x51D137AE0E1FAE6E3B6559FED4442B35A85A9A39789838AD5C9EA05E7DA2DCE DUP7 PUSH1 0x40 MLOAD PUSH1 0x20 ADD PUSH2 0xADB SWAP3 SWAP2 SWAP1 PUSH2 0x205A JUMP JUMPDEST PUSH1 0x40 MLOAD PUSH1 0x20 DUP2 DUP4 SUB SUB DUP2 MSTORE SWAP1 PUSH1 0x40 MSTORE DUP1 MLOAD SWAP1 PUSH1 0x20 ADD KECCAK256 PUSH2 0x11BC JUMP JUMPDEST SWAP1 POP PUSH0 PUSH2 0xB03 DUP3 DUP7 PUSH2 0x11D5 JUMP JUMPDEST SWAP1 POP PUSH0 PUSH2 0xB0F DUP6 PUSH2 0x11FF JUMP JUMPDEST SWAP1 POP CALLER PUSH20 0xFFFFFFFFFFFFFFFFFFFFFFFFFFFFFFFFFFFFFFFF AND DUP3 PUSH20 0xFFFFFFFFFFFFFFFFFFFFFFFFFFFFFFFFFFFFFFFF AND EQ DUP1 ISZERO PUSH2 0xB77 JUMPI POP DUP4 PUSH20 0xFFFFFFFFFFFFFFFFFFFFFFFFFFFFFFFFFFFFFFFF AND CALLER PUSH20 0xFFFFFFFFFFFFFFFFFFFFFFFFFFFFFFFFFFFFFFFF AND EQ JUMPDEST DUP1 PUSH2 0xBB1 JUMPI POP DUP1 PUSH1 0x20 ADD MLOAD PUSH20 0xFFFFFFFFFFFFFFFFFFFFFFFFFFFFFFFFFFFFFFFF AND CALLER PUSH20 0xFFFFFFFFFFFFFFFFFFFFFFFFFFFFFFFFFFFFFFFF AND EQ JUMPDEST PUSH2 0xBF0 JUMPI PUSH1 0x40 MLOAD PUSH32 0x8C379A000000000000000000000000000000000000000000000000000000000 DUP2 MSTORE PUSH1 0x4 ADD PUSH2 0xBE7 SWAP1 PUSH2 0x20F1 JUMP JUMPDEST PUSH1 0x40 MLOAD DUP1 SWAP2 SUB SWAP1 REVERT JUMPDEST PUSH0 PUSH2 0xBFB DUP15 DUP12 PUSH2 0x12A7 JUMP JUMPDEST SWAP1 POP PUSH0 PUSH2 0xC0D DUP3 PUSH1 0x60 ADD MLOAD DUP16 PUSH0 PUSH2 0x1355 JUMP JUMPDEST SWAP1 POP DUP1 SWAP10 POP POP POP POP POP POP POP POP POP POP SWAP6 SWAP5 POP POP POP POP POP JUMP JUMPDEST PUSH1 0x60 DUP5 PUSH0 PUSH2 0xC31 DUP3 PUSH2 0x11FF JUMP JUMPDEST SWAP1 POP DUP1 PUSH1 0x20 ADD MLOAD PUSH20 0xFFFFFFFFFFFFFFFFFFFFFFFFFFFFFFFFFFFFFFFF AND CALLER PUSH20 0xFFFFFFFFFFFFFFFFFFFFFFFFFFFFFFFFFFFFFFFF AND EQ PUSH2 0xC6E JUMPI PUSH0 DUP1 REVERT JUMPDEST DUP6 DUP6 DUP6 DUP1 DUP1 PUSH1 0x1F ADD PUSH1 0x20 DUP1 SWAP2 DIV MUL PUSH1 0x20 ADD PUSH1 0x40 MLOAD SWAP1 DUP2 ADD PUSH1 0x40 MSTORE DUP1 SWAP4 SWAP3 SWAP2 SWAP1 DUP2 DUP2 MSTORE PUSH1 0x20 ADD DUP4 DUP4 DUP1 DUP3 DUP5 CALLDATACOPY PUSH0 DUP2 DUP5 ADD MSTORE PUSH1 0x1F NOT PUSH1 0x1F DUP3 ADD AND SWAP1 POP DUP1 DUP4 ADD SWAP3 POP POP POP POP POP POP POP DUP9 PUSH0 PUSH2 0xD06 PUSH32 0x51D137AE0E1FAE6E3B6559FED4442B35A85A9A39789838AD5C9EA05E7DA2DCE DUP6 PUSH1 0x40 MLOAD PUSH1 0x20 ADD PUSH2 0xCEB SWAP3 SWAP2 SWAP1 PUSH2 0x205A JUMP JUMPDEST PUSH1 0x40 MLOAD PUSH1 0x20 DUP2 DUP4 SUB SUB DUP2 MSTORE SWAP1 PUSH1 0x40 MSTORE DUP1 MLOAD SWAP1 PUSH1 0x20 ADD KECCAK256 PUSH2 0x11BC JUMP JUMPDEST SWAP1 POP PUSH0 PUSH2 0xD13 DUP3 DUP6 PUSH2 0x11D5 JUMP JUMPDEST SWAP1 POP PUSH0 PUSH2 0xD1F DUP5 PUSH2 0x11FF JUMP JUMPDEST SWAP1 POP CALLER PUSH20 0xFFFFFFFFFFFFFFFFFFFFFFFFFFFFFFFFFFFFFFFF AND DUP3 PUSH20 0xFFFFFFFFFFFFFFFFFFFFFFFFFFFFFFFFFFFFFFFF AND EQ DUP1 PUSH2 0xD8A JUMPI POP DUP1 PUSH1 0x20 ADD MLOAD PUSH20 0xFFFFFFFFFFFFFFFFFFFFFFFFFFFFFFFFFFFFFFFF AND CALLER PUSH20 0xFFFFFFFFFFFFFFFFFFFFFFFFFFFFFFFFFFFFFFFF AND EQ JUMPDEST PUSH2 0xDC9 JUMPI PUSH1 0x40 MLOAD PUSH32 0x8C379A000000000000000000000000000000000000000000000000000000000 DUP2 MSTORE PUSH1 0x4 ADD PUSH2 0xDC0 SWAP1 PUSH2 0x20F1 JUMP JUMPDEST PUSH1 0x40 MLOAD DUP1 SWAP2 SUB SWAP1 REVERT JUMPDEST PUSH0 PUSH2 0xDD3 DUP15 PUSH2 0x11FF JUMP JUMPDEST SWAP1 POP PUSH0 PUSH2 0xDE4 DUP3 PUSH0 ADD MLOAD DUP16 PUSH0 PUSH2 0x1355 JUMP JUMPDEST SWAP1 POP DUP1 SWAP11 POP POP POP POP POP POP POP POP POP POP POP SWAP5 SWAP4 POP POP POP POP JUMP JUMPDEST PUSH1 0x60 DUP5 DUP5 DUP5 DUP1 DUP1 PUSH1 0x1F ADD PUSH1 0x20 DUP1 SWAP2 DIV MUL PUSH1 0x20 ADD PUSH1 0x40 MLOAD SWAP1 DUP2 ADD PUSH1 0x40 MSTORE DUP1 SWAP4 SWAP3 SWAP2 SWAP1 DUP2 DUP2 MSTORE PUSH1 0x20 ADD DUP4 DUP4 DUP1 DUP3 DUP5 CALLDATACOPY PUSH0 DUP2 DUP5 ADD MSTORE PUSH1 0x1F NOT PUSH1 0x1F DUP3 ADD AND SWAP1 POP DUP1 DUP4 ADD SWAP3 POP POP POP POP POP POP POP DUP8 DUP5 PUSH0 PUSH2 0xE96 PUSH32 0x51D137AE0E1FAE6E3B6559FED4442B35A85A9A39789838AD5C9EA05E7DA2DCE DUP7 PUSH1 0x40 MLOAD PUSH1 0x20 ADD PUSH2 0xE7B SWAP3 SWAP2 SWAP1 PUSH2 0x205A JUMP JUMPDEST PUSH1 0x40 MLOAD PUSH1 0x20 DUP2 DUP4 SUB SUB DUP2 MSTORE SWAP1 PUSH1 0x40 MSTORE DUP1 MLOAD SWAP1 PUSH1 0x20 ADD KECCAK256 PUSH2 0x11BC JUMP JUMPDEST SWAP1 POP PUSH0 PUSH2 0xEA3 DUP3 DUP7 PUSH2 0x11D5 JUMP JUMPDEST SWAP1 POP PUSH0 PUSH2 0xEAF DUP6 PUSH2 0x11FF JUMP JUMPDEST SWAP1 POP CALLER PUSH20 0xFFFFFFFFFFFFFFFFFFFFFFFFFFFFFFFFFFFFFFFF AND DUP3 PUSH20 0xFFFFFFFFFFFFFFFFFFFFFFFFFFFFFFFFFFFFFFFF AND EQ DUP1 ISZERO PUSH2 0xF17 JUMPI POP DUP4 PUSH20 0xFFFFFFFFFFFFFFFFFFFFFFFFFFFFFFFFFFFFFFFF AND CALLER PUSH20 0xFFFFFFFFFFFFFFFFFFFFFFFFFFFFFFFFFFFFFFFF AND EQ JUMPDEST DUP1 PUSH2 0xF51 JUMPI POP DUP1 PUSH1 0x20 ADD MLOAD PUSH20 0xFFFFFFFFFFFFFFFFFFFFFFFFFFFFFFFFFFFFFFFF AND CALLER PUSH20 0xFFFFFFFFFFFFFFFFFFFFFFFFFFFFFFFFFFFFFFFF AND EQ JUMPDEST PUSH2 0xF90 JUMPI PUSH1 0x40 MLOAD PUSH32 0x8C379A000000000000000000000000000000000000000000000000000000000 DUP2 MSTORE PUSH1 0x4 ADD PUSH2 0xF87 SWAP1 PUSH2 0x20F1 JUMP JUMPDEST PUSH1 0x40 MLOAD DUP1 SWAP2 SUB SWAP1 REVERT JUMPDEST PUSH0 PUSH2 0xF9B DUP15 DUP12 PUSH2 0x12A7 JUMP JUMPDEST SWAP1 POP PUSH0 PUSH2 0xFAD DUP3 PUSH1 0xE0 ADD MLOAD DUP16 PUSH0 PUSH2 0x1355 JUMP JUMPDEST SWAP1 POP DUP1 SWAP10 POP POP POP POP POP POP POP POP POP POP SWAP6 SWAP5 POP POP POP POP POP JUMP JUMPDEST PUSH1 0x60 DUP5 PUSH0 PUSH2 0xFD1 DUP3 PUSH2 0x11FF JUMP JUMPDEST SWAP1 POP DUP1 PUSH1 0x20 ADD MLOAD PUSH20 0xFFFFFFFFFFFFFFFFFFFFFFFFFFFFFFFFFFFFFFFF AND CALLER PUSH20 0xFFFFFFFFFFFFFFFFFFFFFFFFFFFFFFFFFFFFFFFF AND EQ PUSH2 0x100E JUMPI PUSH0 DUP1 REVERT JUMPDEST DUP6 DUP6 DUP6 DUP1 DUP1 PUSH1 0x1F ADD PUSH1 0x20 DUP1 SWAP2 DIV MUL PUSH1 0x20 ADD PUSH1 0x40 MLOAD SWAP1 DUP2 ADD PUSH1 0x40 MSTORE DUP1 SWAP4 SWAP3 SWAP2 SWAP1 DUP2 DUP2 MSTORE PUSH1 0x20 ADD DUP4 DUP4 DUP1 DUP3 DUP5 CALLDATACOPY PUSH0 DUP2 DUP5 ADD MSTORE PUSH1 0x1F NOT PUSH1 0x1F DUP3 ADD AND SWAP1 POP DUP1 DUP4 ADD SWAP3 POP POP POP POP POP POP POP DUP9 PUSH0 PUSH2 0x10A6 PUSH32 0x51D137AE0E1FAE6E3B6559FED4442B35A85A9A39789838AD5C9EA05E7DA2DCE DUP6 PUSH1 0x40 MLOAD PUSH1 0x20 ADD PUSH2 0x108B SWAP3 SWAP2 SWAP1 PUSH2 0x205A JUMP JUMPDEST PUSH1 0x40 MLOAD PUSH1 0x20 DUP2 DUP4 SUB SUB DUP2 MSTORE SWAP1 PUSH1 0x40 MSTORE DUP1 MLOAD SWAP1 PUSH1 0x20 ADD KECCAK256 PUSH2 0x11BC JUMP JUMPDEST SWAP1 POP PUSH0 PUSH2 0x10B3 DUP3 DUP6 PUSH2 0x11D5 JUMP JUMPDEST SWAP1 POP PUSH0 PUSH2 0x10BF DUP5 PUSH2 0x11FF JUMP JUMPDEST SWAP1 POP CALLER PUSH20 0xFFFFFFFFFFFFFFFFFFFFFFFFFFFFFFFFFFFFFFFF AND DUP3 PUSH20 0xFFFFFFFFFFFFFFFFFFFFFFFFFFFFFFFFFFFFFFFF AND EQ DUP1 PUSH2 0x112A JUMPI POP DUP1 PUSH1 0x20 ADD MLOAD PUSH20 0xFFFFFFFFFFFFFFFFFFFFFFFFFFFFFFFFFFFFFFFF AND CALLER PUSH20 0xFFFFFFFFFFFFFFFFFFFFFFFFFFFFFFFFFFFFFFFF AND EQ JUMPDEST PUSH2 0x1169 JUMPI PUSH1 0x40 MLOAD PUSH32 0x8C379A000000000000000000000000000000000000000000000000000000000 DUP2 MSTORE PUSH1 0x4 ADD PUSH2 0x1160 SWAP1 PUSH2 0x20F1 JUMP JUMPDEST PUSH1 0x40 MLOAD DUP1 SWAP2 SUB SWAP1 REVERT JUMPDEST PUSH0 PUSH2 0x1173 DUP15 PUSH2 0x11FF JUMP JUMPDEST SWAP1 POP PUSH0 PUSH2 0x1185 DUP3 PUSH1 0x80 ADD MLOAD DUP16 PUSH0 PUSH2 0x1355 JUMP JUMPDEST SWAP1 POP DUP1 SWAP11 POP POP POP POP POP POP POP POP POP POP POP SWAP5 SWAP4 POP POP POP POP JUMP JUMPDEST PUSH1 0x60 PUSH0 PUSH2 0x11A9 DUP4 CALLER PUSH2 0x12A7 JUMP JUMPDEST SWAP1 POP PUSH0 DUP2 PUSH0 ADD MLOAD SWAP1 POP DUP1 SWAP3 POP POP POP SWAP2 SWAP1 POP JUMP JUMPDEST PUSH0 PUSH2 0x11CE PUSH2 0x11C8 PUSH2 0x1406 JUMP JUMPDEST DUP4 PUSH2 0x14BC JUMP JUMPDEST SWAP1 POP SWAP2 SWAP1 POP JUMP JUMPDEST PUSH0 DUP1 PUSH0 DUP1 PUSH2 0x11E3 DUP7 DUP7 PUSH2 0x14FC JUMP JUMPDEST SWAP3 POP SWAP3 POP SWAP3 POP PUSH2 0x11F3 DUP3 DUP3 PUSH2 0x1551 JUMP JUMPDEST DUP3 SWAP4 POP POP POP POP SWAP3 SWAP2 POP POP JUMP JUMPDEST PUSH2 0x1207 PUSH2 0x1AC0 JUMP JUMPDEST PUSH1 0x2 PUSH0 SWAP1 SLOAD SWAP1 PUSH2 0x100 EXP SWAP1 DIV PUSH20 0xFFFFFFFFFFFFFFFFFFFFFFFFFFFFFFFFFFFFFFFF AND PUSH20 0xFFFFFFFFFFFFFFFFFFFFFFFFFFFFFFFFFFFFFFFF AND PUSH4 0x30F37B44 DUP4 PUSH1 0x40 MLOAD DUP3 PUSH4 0xFFFFFFFF AND PUSH1 0xE0 SHL DUP2 MSTORE PUSH1 0x4 ADD PUSH2 0x1261 SWAP2 SWAP1 PUSH2 0x213C JUMP JUMPDEST PUSH1 0xC0 PUSH1 0x40 MLOAD DUP1 DUP4 SUB DUP2 DUP7 GAS STATICCALL ISZERO DUP1 ISZERO PUSH2 0x127C JUMPI RETURNDATASIZE PUSH0 DUP1 RETURNDATACOPY RETURNDATASIZE PUSH0 REVERT JUMPDEST POP POP POP POP PUSH1 0x40 MLOAD RETURNDATASIZE PUSH1 0x1F NOT PUSH1 0x1F DUP3 ADD AND DUP3 ADD DUP1 PUSH1 0x40 MSTORE POP DUP2 ADD SWAP1 PUSH2 0x12A0 SWAP2 SWAP1 PUSH2 0x2283 JUMP JUMPDEST SWAP1 POP SWAP2 SWAP1 POP JUMP JUMPDEST PUSH2 0x12AF PUSH2 0x1B1C JUMP JUMPDEST PUSH1 0x2 PUSH0 SWAP1 SLOAD SWAP1 PUSH2 0x100 EXP SWAP1 DIV PUSH20 0xFFFFFFFFFFFFFFFFFFFFFFFFFFFFFFFFFFFFFFFF AND PUSH20 0xFFFFFFFFFFFFFFFFFFFFFFFFFFFFFFFFFFFFFFFF AND PUSH4 0x80DC8AE8 DUP5 DUP5 PUSH1 0x40 MLOAD DUP4 PUSH4 0xFFFFFFFF AND PUSH1 0xE0 SHL DUP2 MSTORE PUSH1 0x4 ADD PUSH2 0x130B SWAP3 SWAP2 SWAP1 PUSH2 0x22AE JUMP JUMPDEST PUSH0 PUSH1 0x40 MLOAD DUP1 DUP4 SUB DUP2 DUP7 GAS STATICCALL ISZERO DUP1 ISZERO PUSH2 0x1325 JUMPI RETURNDATASIZE PUSH0 DUP1 RETURNDATACOPY RETURNDATASIZE PUSH0 REVERT JUMPDEST POP POP POP POP PUSH1 0x40 MLOAD RETURNDATASIZE PUSH0 DUP3 RETURNDATACOPY RETURNDATASIZE PUSH1 0x1F NOT PUSH1 0x1F DUP3 ADD AND DUP3 ADD DUP1 PUSH1 0x40 MSTORE POP DUP2 ADD SWAP1 PUSH2 0x134D SWAP2 SWAP1 PUSH2 0x24BD JUMP JUMPDEST SWAP1 POP SWAP3 SWAP2 POP POP JUMP JUMPDEST PUSH1 0x60 PUSH0 DUP5 EQ PUSH2 0x136F JUMPI PUSH2 0x1368 DUP5 DUP5 PUSH2 0x16B3 JUMP JUMPDEST SWAP1 POP PUSH2 0x138A JUMP JUMPDEST PUSH2 0x1387 PUSH2 0x1381 DUP4 PUSH4 0xFFFFFFFF AND PUSH2 0x173D JUMP JUMPDEST DUP5 PUSH2 0x16B3 JUMP JUMPDEST SWAP1 POP JUMPDEST SWAP4 SWAP3 POP POP POP JUMP JUMPDEST PUSH1 0x60 PUSH2 0x13C6 PUSH0 PUSH32 0x0 PUSH2 0x1750 SWAP1 SWAP2 SWAP1 PUSH4 0xFFFFFFFF AND JUMP JUMPDEST SWAP1 POP SWAP1 JUMP JUMPDEST PUSH1 0x60 PUSH2 0x1401 PUSH1 0x1 PUSH32 0x0 PUSH2 0x1750 SWAP1 SWAP2 SWAP1 PUSH4 0xFFFFFFFF AND JUMP JUMPDEST SWAP1 POP SWAP1 JUMP JUMPDEST PUSH0 PUSH32 0x0 PUSH20 0xFFFFFFFFFFFFFFFFFFFFFFFFFFFFFFFFFFFFFFFF AND ADDRESS PUSH20 0xFFFFFFFFFFFFFFFFFFFFFFFFFFFFFFFFFFFFFFFF AND EQ DUP1 ISZERO PUSH2 0x1481 JUMPI POP PUSH32 0x0 CHAINID EQ JUMPDEST ISZERO PUSH2 0x14AE JUMPI PUSH32 0x0 SWAP1 POP PUSH2 0x14B9 JUMP JUMPDEST PUSH2 0x14B6 PUSH2 0x17FD JUMP JUMPDEST SWAP1 POP JUMPDEST SWAP1 JUMP JUMPDEST PUSH0 PUSH1 0x40 MLOAD PUSH32 0x1901000000000000000000000000000000000000000000000000000000000000 DUP2 MSTORE DUP4 PUSH1 0x2 DUP3 ADD MSTORE DUP3 PUSH1 0x22 DUP3 ADD MSTORE PUSH1 0x42 DUP2 KECCAK256 SWAP2 POP POP SWAP3 SWAP2 POP POP JUMP JUMPDEST PUSH0 DUP1 PUSH0 PUSH1 0x41 DUP5 MLOAD SUB PUSH2 0x153C JUMPI PUSH0 DUP1 PUSH0 PUSH1 0x20 DUP8 ADD MLOAD SWAP3 POP PUSH1 0x40 DUP8 ADD MLOAD SWAP2 POP PUSH1 0x60 DUP8 ADD MLOAD PUSH0 BYTE SWAP1 POP PUSH2 0x152E DUP9 DUP3 DUP6 DUP6 PUSH2 0x1892 JUMP JUMPDEST SWAP6 POP SWAP6 POP SWAP6 POP POP POP POP PUSH2 0x154A JUMP JUMPDEST PUSH0 PUSH1 0x2 DUP6 MLOAD PUSH0 SHL SWAP3 POP SWAP3 POP SWAP3 POP JUMPDEST SWAP3 POP SWAP3 POP SWAP3 JUMP JUMPDEST PUSH0 PUSH1 0x3 DUP2 GT ISZERO PUSH2 0x1564 JUMPI PUSH2 0x1563 PUSH2 0x2504 JUMP JUMPDEST JUMPDEST DUP3 PUSH1 0x3 DUP2 GT ISZERO PUSH2 0x1577 JUMPI PUSH2 0x1576 PUSH2 0x2504 JUMP JUMPDEST JUMPDEST SUB ISZERO PUSH2 0x16AF JUMPI PUSH1 0x1 PUSH1 0x3 DUP2 GT ISZERO PUSH2 0x1591 JUMPI PUSH2 0x1590 PUSH2 0x2504 JUMP JUMPDEST JUMPDEST DUP3 PUSH1 0x3 DUP2 GT ISZERO PUSH2 0x15A4 JUMPI PUSH2 0x15A3 PUSH2 0x2504 JUMP JUMPDEST JUMPDEST SUB PUSH2 0x15DB JUMPI PUSH1 0x40 MLOAD PUSH32 0xF645EEDF00000000000000000000000000000000000000000000000000000000 DUP2 MSTORE PUSH1 0x4 ADD PUSH1 0x40 MLOAD DUP1 SWAP2 SUB SWAP1 REVERT JUMPDEST PUSH1 0x2 PUSH1 0x3 DUP2 GT ISZERO PUSH2 0x15EF JUMPI PUSH2 0x15EE PUSH2 0x2504 JUMP JUMPDEST JUMPDEST DUP3 PUSH1 0x3 DUP2 GT ISZERO PUSH2 0x1602 JUMPI PUSH2 0x1601 PUSH2 0x2504 JUMP JUMPDEST JUMPDEST SUB PUSH2 0x1646 JUMPI DUP1 PUSH0 SHR PUSH1 0x40 MLOAD PUSH32 0xFCE698F700000000000000000000000000000000000000000000000000000000 DUP2 MSTORE PUSH1 0x4 ADD PUSH2 0x163D SWAP2 SWAP1 PUSH2 0x2531 JUMP JUMPDEST PUSH1 0x40 MLOAD DUP1 SWAP2 SUB SWAP1 REVERT JUMPDEST PUSH1 0x3 DUP1 DUP2 GT ISZERO PUSH2 0x1659 JUMPI PUSH2 0x1658 PUSH2 0x2504 JUMP JUMPDEST JUMPDEST DUP3 PUSH1 0x3 DUP2 GT ISZERO PUSH2 0x166C JUMPI PUSH2 0x166B PUSH2 0x2504 JUMP JUMPDEST JUMPDEST SUB PUSH2 0x16AE JUMPI DUP1 PUSH1 0x40 MLOAD PUSH32 0xD78BCE0C00000000000000000000000000000000000000000000000000000000 DUP2 MSTORE PUSH1 0x4 ADD PUSH2 0x16A5 SWAP2 SWAP1 PUSH2 0x213C JUMP JUMPDEST PUSH1 0x40 MLOAD DUP1 SWAP2 SUB SWAP1 REVERT JUMPDEST JUMPDEST POP POP JUMP JUMPDEST PUSH1 0x60 PUSH1 0x5D PUSH20 0xFFFFFFFFFFFFFFFFFFFFFFFFFFFFFFFFFFFFFFFF AND PUSH4 0xD6AD57CD DUP5 DUP5 PUSH0 SHR PUSH1 0x40 MLOAD DUP4 PUSH4 0xFFFFFFFF AND PUSH1 0xE0 SHL DUP2 MSTORE PUSH1 0x4 ADD PUSH2 0x16F3 SWAP3 SWAP2 SWAP1 PUSH2 0x254A JUMP JUMPDEST PUSH0 PUSH1 0x40 MLOAD DUP1 DUP4 SUB DUP2 DUP7 GAS STATICCALL ISZERO DUP1 ISZERO PUSH2 0x170D JUMPI RETURNDATASIZE PUSH0 DUP1 RETURNDATACOPY RETURNDATASIZE PUSH0 REVERT JUMPDEST POP POP POP POP PUSH1 0x40 MLOAD RETURNDATASIZE PUSH0 DUP3 RETURNDATACOPY RETURNDATASIZE PUSH1 0x1F NOT PUSH1 0x1F DUP3 ADD AND DUP3 ADD DUP1 PUSH1 0x40 MSTORE POP DUP2 ADD SWAP1 PUSH2 0x1735 SWAP2 SWAP1 PUSH2 0x260F JUMP JUMPDEST SWAP1 POP SWAP3 SWAP2 POP POP JUMP JUMPDEST PUSH0 PUSH2 0x1749 DUP3 PUSH1 0x2 PUSH2 0x1979 JUMP JUMPDEST SWAP1 POP SWAP2 SWAP1 POP JUMP JUMPDEST PUSH1 0x60 PUSH1 0xFF PUSH0 SHL DUP4 EQ PUSH2 0x176C JUMPI PUSH2 0x1765 DUP4 PUSH2 0x1A00 JUMP JUMPDEST SWAP1 POP PUSH2 0x17F7 JUMP JUMPDEST DUP2 DUP1 SLOAD PUSH2 0x1778 SWAP1 PUSH2 0x2683 JUMP JUMPDEST DUP1 PUSH1 0x1F ADD PUSH1 0x20 DUP1 SWAP2 DIV MUL PUSH1 0x20 ADD PUSH1 0x40 MLOAD SWAP1 DUP2 ADD PUSH1 0x40 MSTORE DUP1 SWAP3 SWAP2 SWAP1 DUP2 DUP2 MSTORE PUSH1 0x20 ADD DUP3 DUP1 SLOAD PUSH2 0x17A4 SWAP1 PUSH2 0x2683 JUMP JUMPDEST DUP1 ISZERO PUSH2 0x17EF JUMPI DUP1 PUSH1 0x1F LT PUSH2 0x17C6 JUMPI PUSH2 0x100 DUP1 DUP4 SLOAD DIV MUL DUP4 MSTORE SWAP2 PUSH1 0x20 ADD SWAP2 PUSH2 0x17EF JUMP JUMPDEST DUP3 ADD SWAP2 SWAP1 PUSH0 MSTORE PUSH1 0x20 PUSH0 KECCAK256 SWAP1 JUMPDEST DUP2 SLOAD DUP2 MSTORE SWAP1 PUSH1 0x1 ADD SWAP1 PUSH1 0x20 ADD DUP1 DUP4 GT PUSH2 0x17D2 JUMPI DUP3 SWAP1 SUB PUSH1 0x1F AND DUP3 ADD SWAP2 JUMPDEST POP POP POP POP POP SWAP1 POP JUMPDEST SWAP3 SWAP2 POP POP JUMP JUMPDEST PUSH0 PUSH32 0x8B73C3C69BB8FE3D512ECC4CF759CC79239F7B179B0FFACAA9A75D522B39400F PUSH32 0x0 PUSH32 0x0 CHAINID ADDRESS PUSH1 0x40 MLOAD PUSH1 0x20 ADD PUSH2 0x1877 SWAP6 SWAP5 SWAP4 SWAP3 SWAP2 SWAP1 PUSH2 0x26B3 JUMP JUMPDEST PUSH1 0x40 MLOAD PUSH1 0x20 DUP2 DUP4 SUB SUB DUP2 MSTORE SWAP1 PUSH1 0x40 MSTORE DUP1 MLOAD SWAP1 PUSH1 0x20 ADD KECCAK256 SWAP1 POP SWAP1 JUMP JUMPDEST PUSH0 DUP1 PUSH0 PUSH32 0x7FFFFFFFFFFFFFFFFFFFFFFFFFFFFFFF5D576E7357A4501DDFE92F46681B20A0 DUP5 PUSH0 SHR GT ISZERO PUSH2 0x18CE JUMPI PUSH0 PUSH1 0x3 DUP6 SWAP3 POP SWAP3 POP SWAP3 POP PUSH2 0x196F JUMP JUMPDEST PUSH0 PUSH1 0x1 DUP9 DUP9 DUP9 DUP9 PUSH1 0x40 MLOAD PUSH0 DUP2 MSTORE PUSH1 0x20 ADD PUSH1 0x40 MSTORE PUSH1 0x40 MLOAD PUSH2 0x18F1 SWAP5 SWAP4 SWAP3 SWAP2 SWAP1 PUSH2 0x271F JUMP JUMPDEST PUSH1 0x20 PUSH1 0x40 MLOAD PUSH1 0x20 DUP2 SUB SWAP1 DUP1 DUP5 SUB SWAP1 DUP6 GAS STATICCALL ISZERO DUP1 ISZERO PUSH2 0x1911 JUMPI RETURNDATASIZE PUSH0 DUP1 RETURNDATACOPY RETURNDATASIZE PUSH0 REVERT JUMPDEST POP POP POP PUSH1 0x20 PUSH1 0x40 MLOAD SUB MLOAD SWAP1 POP PUSH0 PUSH20 0xFFFFFFFFFFFFFFFFFFFFFFFFFFFFFFFFFFFFFFFF AND DUP2 PUSH20 0xFFFFFFFFFFFFFFFFFFFFFFFFFFFFFFFFFFFFFFFF AND SUB PUSH2 0x1962 JUMPI PUSH0 PUSH1 0x1 PUSH0 DUP1 SHL SWAP4 POP SWAP4 POP SWAP4 POP POP PUSH2 0x196F JUMP JUMPDEST DUP1 PUSH0 DUP1 PUSH0 SHL SWAP4 POP SWAP4 POP SWAP4 POP POP JUMPDEST SWAP5 POP SWAP5 POP SWAP5 SWAP2 POP POP JUMP JUMPDEST PUSH0 PUSH1 0x5D PUSH20 0xFFFFFFFFFFFFFFFFFFFFFFFFFFFFFFFFFFFFFFFF AND PUSH4 0xE71746B8 DUP5 DUP5 PUSH1 0xF8 SHL PUSH1 0x40 MLOAD DUP4 PUSH4 0xFFFFFFFF AND PUSH1 0xE0 SHL DUP2 MSTORE PUSH1 0x4 ADD PUSH2 0x19B9 SWAP3 SWAP2 SWAP1 PUSH2 0x2762 JUMP JUMPDEST PUSH1 0x20 PUSH1 0x40 MLOAD DUP1 DUP4 SUB DUP2 DUP7 GAS STATICCALL ISZERO DUP1 ISZERO PUSH2 0x19D4 JUMPI RETURNDATASIZE PUSH0 DUP1 RETURNDATACOPY RETURNDATASIZE PUSH0 REVERT JUMPDEST POP POP POP POP PUSH1 0x40 MLOAD RETURNDATASIZE PUSH1 0x1F NOT PUSH1 0x1F DUP3 ADD AND DUP3 ADD DUP1 PUSH1 0x40 MSTORE POP DUP2 ADD SWAP1 PUSH2 0x19F8 SWAP2 SWAP1 PUSH2 0x27B3 JUMP JUMPDEST SWAP1 POP SWAP3 SWAP2 POP POP JUMP JUMPDEST PUSH1 0x60 PUSH0 PUSH2 0x1A0C DUP4 PUSH2 0x1A72 JUMP JUMPDEST SWAP1 POP PUSH0 PUSH1 0x20 PUSH8 0xFFFFFFFFFFFFFFFF DUP2 GT ISZERO PUSH2 0x1A2A JUMPI PUSH2 0x1A29 PUSH2 0x210F JUMP JUMPDEST JUMPDEST PUSH1 0x40 MLOAD SWAP1 DUP1 DUP3 MSTORE DUP1 PUSH1 0x1F ADD PUSH1 0x1F NOT AND PUSH1 0x20 ADD DUP3 ADD PUSH1 0x40 MSTORE DUP1 ISZERO PUSH2 0x1A5C JUMPI DUP2 PUSH1 0x20 ADD PUSH1 0x1 DUP3 MUL DUP1 CALLDATASIZE DUP4 CALLDATACOPY DUP1 DUP3 ADD SWAP2 POP POP SWAP1 POP JUMPDEST POP SWAP1 POP DUP2 DUP2 MSTORE DUP4 PUSH1 0x20 DUP3 ADD MSTORE DUP1 SWAP3 POP POP POP SWAP2 SWAP1 POP JUMP JUMPDEST PUSH0 DUP1 PUSH1 0xFF DUP4 PUSH0 SHR AND SWAP1 POP PUSH1 0x1F DUP2 GT ISZERO PUSH2 0x1AB7 JUMPI PUSH1 0x40 MLOAD PUSH32 0xB3512B0C00000000000000000000000000000000000000000000000000000000 DUP2 MSTORE PUSH1 0x4 ADD PUSH1 0x40 MLOAD DUP1 SWAP2 SUB SWAP1 REVERT JUMPDEST DUP1 SWAP2 POP POP SWAP2 SWAP1 POP JUMP JUMPDEST PUSH1 0x40 MLOAD DUP1 PUSH1 0xC0 ADD PUSH1 0x40 MSTORE DUP1 PUSH0 DUP2 MSTORE PUSH1 0x20 ADD PUSH0 PUSH20 0xFFFFFFFFFFFFFFFFFFFFFFFFFFFFFFFFFFFFFFFF AND DUP2 MSTORE PUSH1 0x20 ADD PUSH0 DUP2 MSTORE PUSH1 0x20 ADD PUSH0 DUP2 MSTORE PUSH1 0x20 ADD PUSH0 DUP2 MSTORE PUSH1 0x20 ADD PUSH0 PUSH20 0xFFFFFFFFFFFFFFFFFFFFFFFFFFFFFFFFFFFFFFFF AND DUP2 MSTORE POP SWAP1 JUMP JUMPDEST PUSH1 0x40 MLOAD DUP1 PUSH2 0x100 ADD PUSH1 0x40 MSTORE DUP1 PUSH1 0x60 DUP2 MSTORE PUSH1 0x20 ADD PUSH0 PUSH20 0xFFFFFFFFFFFFFFFFFFFFFFFFFFFFFFFFFFFFFFFF AND DUP2 MSTORE PUSH1 0x20 ADD PUSH0 DUP2 MSTORE PUSH1 0x20 ADD PUSH0 DUP2 MSTORE PUSH1 0x20 ADD PUSH0 DUP2 MSTORE PUSH1 0x20 ADD PUSH0 DUP2 MSTORE PUSH1 0x20 ADD PUSH0 PUSH4 0xFFFFFFFF AND DUP2 MSTORE PUSH1 0x20 ADD PUSH0 DUP2 MSTORE POP SWAP1 JUMP JUMPDEST PUSH0 PUSH1 0x40 MLOAD SWAP1 POP SWAP1 JUMP JUMPDEST PUSH0 DUP1 REVERT JUMPDEST PUSH0 DUP1 REVERT JUMPDEST PUSH0 DUP2 SWAP1 POP SWAP2 SWAP1 POP JUMP JUMPDEST PUSH2 0x1B99 DUP2 PUSH2 0x1B87 JUMP JUMPDEST DUP2 EQ PUSH2 0x1BA3 JUMPI PUSH0 DUP1 REVERT JUMPDEST POP JUMP JUMPDEST PUSH0 DUP2 CALLDATALOAD SWAP1 POP PUSH2 0x1BB4 DUP2 PUSH2 0x1B90 JUMP JUMPDEST SWAP3 SWAP2 POP POP JUMP JUMPDEST PUSH0 DUP1 REVERT JUMPDEST PUSH0 DUP1 REVERT JUMPDEST PUSH0 DUP1 REVERT JUMPDEST PUSH0 DUP1 DUP4 PUSH1 0x1F DUP5 ADD SLT PUSH2 0x1BDB JUMPI PUSH2 0x1BDA PUSH2 0x1BBA JUMP JUMPDEST JUMPDEST DUP3 CALLDATALOAD SWAP1 POP PUSH8 0xFFFFFFFFFFFFFFFF DUP2 GT ISZERO PUSH2 0x1BF8 JUMPI PUSH2 0x1BF7 PUSH2 0x1BBE JUMP JUMPDEST JUMPDEST PUSH1 0x20 DUP4 ADD SWAP2 POP DUP4 PUSH1 0x1 DUP3 MUL DUP4 ADD GT ISZERO PUSH2 0x1C14 JUMPI PUSH2 0x1C13 PUSH2 0x1BC2 JUMP JUMPDEST JUMPDEST SWAP3 POP SWAP3 SWAP1 POP JUMP JUMPDEST PUSH0 PUSH20 0xFFFFFFFFFFFFFFFFFFFFFFFFFFFFFFFFFFFFFFFF DUP3 AND SWAP1 POP SWAP2 SWAP1 POP JUMP JUMPDEST PUSH0 PUSH2 0x1C44 DUP3 PUSH2 0x1C1B JUMP JUMPDEST SWAP1 POP SWAP2 SWAP1 POP JUMP JUMPDEST PUSH2 0x1C54 DUP2 PUSH2 0x1C3A JUMP JUMPDEST DUP2 EQ PUSH2 0x1C5E JUMPI PUSH0 DUP1 REVERT JUMPDEST POP JUMP JUMPDEST PUSH0 DUP2 CALLDATALOAD SWAP1 POP PUSH2 0x1C6F DUP2 PUSH2 0x1C4B JUMP JUMPDEST SWAP3 SWAP2 POP POP JUMP JUMPDEST PUSH0 DUP1 PUSH0 DUP1 PUSH0 PUSH1 0x80 DUP7 DUP9 SUB SLT ISZERO PUSH2 0x1C8E JUMPI PUSH2 0x1C8D PUSH2 0x1B7F JUMP JUMPDEST JUMPDEST PUSH0 PUSH2 0x1C9B DUP9 DUP3 DUP10 ADD PUSH2 0x1BA6 JUMP JUMPDEST SWAP6 POP POP PUSH1 0x20 PUSH2 0x1CAC DUP9 DUP3 DUP10 ADD PUSH2 0x1BA6 JUMP JUMPDEST SWAP5 POP POP PUSH1 0x40 DUP7 ADD CALLDATALOAD PUSH8 0xFFFFFFFFFFFFFFFF DUP2 GT ISZERO PUSH2 0x1CCD JUMPI PUSH2 0x1CCC PUSH2 0x1B83 JUMP JUMPDEST JUMPDEST PUSH2 0x1CD9 DUP9 DUP3 DUP10 ADD PUSH2 0x1BC6 JUMP JUMPDEST SWAP4 POP SWAP4 POP POP PUSH1 0x60 PUSH2 0x1CEC DUP9 DUP3 DUP10 ADD PUSH2 0x1C61 JUMP JUMPDEST SWAP2 POP POP SWAP3 SWAP6 POP SWAP3 SWAP6 SWAP1 SWAP4 POP JUMP JUMPDEST PUSH0 DUP2 MLOAD SWAP1 POP SWAP2 SWAP1 POP JUMP JUMPDEST PUSH0 DUP3 DUP3 MSTORE PUSH1 0x20 DUP3 ADD SWAP1 POP SWAP3 SWAP2 POP POP JUMP JUMPDEST PUSH0 JUMPDEST DUP4 DUP2 LT ISZERO PUSH2 0x1D30 JUMPI DUP1 DUP3 ADD MLOAD DUP2 DUP5 ADD MSTORE PUSH1 0x20 DUP2 ADD SWAP1 POP PUSH2 0x1D15 JUMP JUMPDEST PUSH0 DUP5 DUP5 ADD MSTORE POP POP POP POP JUMP JUMPDEST PUSH0 PUSH1 0x1F NOT PUSH1 0x1F DUP4 ADD AND SWAP1 POP SWAP2 SWAP1 POP JUMP JUMPDEST PUSH0 PUSH2 0x1D55 DUP3 PUSH2 0x1CF9 JUMP JUMPDEST PUSH2 0x1D5F DUP2 DUP6 PUSH2 0x1D03 JUMP JUMPDEST SWAP4 POP PUSH2 0x1D6F DUP2 DUP6 PUSH1 0x20 DUP7 ADD PUSH2 0x1D13 JUMP JUMPDEST PUSH2 0x1D78 DUP2 PUSH2 0x1D3B JUMP JUMPDEST DUP5 ADD SWAP2 POP POP SWAP3 SWAP2 POP POP JUMP JUMPDEST PUSH0 PUSH1 0x20 DUP3 ADD SWAP1 POP DUP2 DUP2 SUB PUSH0 DUP4 ADD MSTORE PUSH2 0x1D9B DUP2 DUP5 PUSH2 0x1D4B JUMP JUMPDEST SWAP1 POP SWAP3 SWAP2 POP POP JUMP JUMPDEST PUSH0 DUP1 PUSH0 DUP1 PUSH1 0x60 DUP6 DUP8 SUB SLT ISZERO PUSH2 0x1DBB JUMPI PUSH2 0x1DBA PUSH2 0x1B7F JUMP JUMPDEST JUMPDEST PUSH0 PUSH2 0x1DC8 DUP8 DUP3 DUP9 ADD PUSH2 0x1BA6 JUMP JUMPDEST SWAP5 POP POP PUSH1 0x20 PUSH2 0x1DD9 DUP8 DUP3 DUP9 ADD PUSH2 0x1BA6 JUMP JUMPDEST SWAP4 POP POP PUSH1 0x40 DUP6 ADD CALLDATALOAD PUSH8 0xFFFFFFFFFFFFFFFF DUP2 GT ISZERO PUSH2 0x1DFA JUMPI PUSH2 0x1DF9 PUSH2 0x1B83 JUMP JUMPDEST JUMPDEST PUSH2 0x1E06 DUP8 DUP3 DUP9 ADD PUSH2 0x1BC6 JUMP JUMPDEST SWAP3 POP SWAP3 POP POP SWAP3 SWAP6 SWAP2 SWAP5 POP SWAP3 POP JUMP JUMPDEST PUSH0 PUSH32 0xFF00000000000000000000000000000000000000000000000000000000000000 DUP3 AND SWAP1 POP SWAP2 SWAP1 POP JUMP JUMPDEST PUSH2 0x1E48 DUP2 PUSH2 0x1E14 JUMP JUMPDEST DUP3 MSTORE POP POP JUMP JUMPDEST PUSH0 DUP2 MLOAD SWAP1 POP SWAP2 SWAP1 POP JUMP JUMPDEST PUSH0 DUP3 DUP3 MSTORE PUSH1 0x20 DUP3 ADD SWAP1 POP SWAP3 SWAP2 POP POP JUMP JUMPDEST PUSH0 PUSH2 0x1E72 DUP3 PUSH2 0x1E4E JUMP JUMPDEST PUSH2 0x1E7C DUP2 DUP6 PUSH2 0x1E58 JUMP JUMPDEST SWAP4 POP PUSH2 0x1E8C DUP2 DUP6 PUSH1 0x20 DUP7 ADD PUSH2 0x1D13 JUMP JUMPDEST PUSH2 0x1E95 DUP2 PUSH2 0x1D3B JUMP JUMPDEST DUP5 ADD SWAP2 POP POP SWAP3 SWAP2 POP POP JUMP JUMPDEST PUSH0 DUP2 SWAP1 POP SWAP2 SWAP1 POP JUMP JUMPDEST PUSH2 0x1EB2 DUP2 PUSH2 0x1EA0 JUMP JUMPDEST DUP3 MSTORE POP POP JUMP JUMPDEST PUSH2 0x1EC1 DUP2 PUSH2 0x1C3A JUMP JUMPDEST DUP3 MSTORE POP POP JUMP JUMPDEST PUSH2 0x1ED0 DUP2 PUSH2 0x1B87 JUMP JUMPDEST DUP3 MSTORE POP POP JUMP JUMPDEST PUSH0 DUP2 MLOAD SWAP1 POP SWAP2 SWAP1 POP JUMP JUMPDEST PUSH0 DUP3 DUP3 MSTORE PUSH1 0x20 DUP3 ADD SWAP1 POP SWAP3 SWAP2 POP POP JUMP JUMPDEST PUSH0 DUP2 SWAP1 POP PUSH1 0x20 DUP3 ADD SWAP1 POP SWAP2 SWAP1 POP JUMP JUMPDEST PUSH2 0x1F08 DUP2 PUSH2 0x1EA0 JUMP JUMPDEST DUP3 MSTORE POP POP JUMP JUMPDEST PUSH0 PUSH2 0x1F19 DUP4 DUP4 PUSH2 0x1EFF JUMP JUMPDEST PUSH1 0x20 DUP4 ADD SWAP1 POP SWAP3 SWAP2 POP POP JUMP JUMPDEST PUSH0 PUSH1 0x20 DUP3 ADD SWAP1 POP SWAP2 SWAP1 POP JUMP JUMPDEST PUSH0 PUSH2 0x1F3B DUP3 PUSH2 0x1ED6 JUMP JUMPDEST PUSH2 0x1F45 DUP2 DUP6 PUSH2 0x1EE0 JUMP JUMPDEST SWAP4 POP PUSH2 0x1F50 DUP4 PUSH2 0x1EF0 JUMP JUMPDEST DUP1 PUSH0 JUMPDEST DUP4 DUP2 LT ISZERO PUSH2 0x1F80 JUMPI DUP2 MLOAD PUSH2 0x1F67 DUP9 DUP3 PUSH2 0x1F0E JUMP JUMPDEST SWAP8 POP PUSH2 0x1F72 DUP4 PUSH2 0x1F25 JUMP JUMPDEST SWAP3 POP POP PUSH1 0x1 DUP2 ADD SWAP1 POP PUSH2 0x1F53 JUMP JUMPDEST POP DUP6 SWAP4 POP POP POP POP SWAP3 SWAP2 POP POP JUMP JUMPDEST PUSH0 PUSH1 0xE0 DUP3 ADD SWAP1 POP PUSH2 0x1FA0 PUSH0 DUP4 ADD DUP11 PUSH2 0x1E3F JUMP JUMPDEST DUP2 DUP2 SUB PUSH1 0x20 DUP4 ADD MSTORE PUSH2 0x1FB2 DUP2 DUP10 PUSH2 0x1E68 JUMP JUMPDEST SWAP1 POP DUP2 DUP2 SUB PUSH1 0x40 DUP4 ADD MSTORE PUSH2 0x1FC6 DUP2 DUP9 PUSH2 0x1E68 JUMP JUMPDEST SWAP1 POP PUSH2 0x1FD5 PUSH1 0x60 DUP4 ADD DUP8 PUSH2 0x1EA9 JUMP JUMPDEST PUSH2 0x1FE2 PUSH1 0x80 DUP4 ADD DUP7 PUSH2 0x1EB8 JUMP JUMPDEST PUSH2 0x1FEF PUSH1 0xA0 DUP4 ADD DUP6 PUSH2 0x1EC7 JUMP JUMPDEST DUP2 DUP2 SUB PUSH1 0xC0 DUP4 ADD MSTORE PUSH2 0x2001 DUP2 DUP5 PUSH2 0x1F31 JUMP JUMPDEST SWAP1 POP SWAP9 SWAP8 POP POP POP POP POP POP POP POP JUMP JUMPDEST PUSH0 PUSH1 0x20 DUP3 DUP5 SUB SLT ISZERO PUSH2 0x2024 JUMPI PUSH2 0x2023 PUSH2 0x1B7F JUMP JUMPDEST JUMPDEST PUSH0 PUSH2 0x2031 DUP5 DUP3 DUP6 ADD PUSH2 0x1BA6 JUMP JUMPDEST SWAP2 POP POP SWAP3 SWAP2 POP POP JUMP JUMPDEST PUSH0 PUSH1 0x20 DUP3 ADD SWAP1 POP DUP2 DUP2 SUB PUSH0 DUP4 ADD MSTORE PUSH2 0x2052 DUP2 DUP5 PUSH2 0x1E68 JUMP JUMPDEST SWAP1 POP SWAP3 SWAP2 POP POP JUMP JUMPDEST PUSH0 PUSH1 0x40 DUP3 ADD SWAP1 POP PUSH2 0x206D PUSH0 DUP4 ADD DUP6 PUSH2 0x1EC7 JUMP JUMPDEST PUSH2 0x207A PUSH1 0x20 DUP4 ADD DUP5 PUSH2 0x1EC7 JUMP JUMPDEST SWAP4 SWAP3 POP POP POP JUMP JUMPDEST PUSH32 0x454950373132207369676E657220616E64207472616E73616374696F6E207369 PUSH0 DUP3 ADD MSTORE PUSH32 0x676E657220646F206E6F74206D61746368000000000000000000000000000000 PUSH1 0x20 DUP3 ADD MSTORE POP JUMP JUMPDEST PUSH0 PUSH2 0x20DB PUSH1 0x31 DUP4 PUSH2 0x1E58 JUMP JUMPDEST SWAP2 POP PUSH2 0x20E6 DUP3 PUSH2 0x2081 JUMP JUMPDEST PUSH1 0x40 DUP3 ADD SWAP1 POP SWAP2 SWAP1 POP JUMP JUMPDEST PUSH0 PUSH1 0x20 DUP3 ADD SWAP1 POP DUP2 DUP2 SUB PUSH0 DUP4 ADD MSTORE PUSH2 0x2108 DUP2 PUSH2 0x20CF JUMP JUMPDEST SWAP1 POP SWAP2 SWAP1 POP JUMP JUMPDEST PUSH32 0x4E487B7100000000000000000000000000000000000000000000000000000000 PUSH0 MSTORE PUSH1 0x41 PUSH1 0x4 MSTORE PUSH1 0x24 PUSH0 REVERT JUMPDEST PUSH0 PUSH1 0x20 DUP3 ADD SWAP1 POP PUSH2 0x214F PUSH0 DUP4 ADD DUP5 PUSH2 0x1EC7 JUMP JUMPDEST SWAP3 SWAP2 POP POP JUMP JUMPDEST PUSH0 DUP1 REVERT JUMPDEST PUSH2 0x2162 DUP3 PUSH2 0x1D3B JUMP JUMPDEST DUP2 ADD DUP2 DUP2 LT PUSH8 0xFFFFFFFFFFFFFFFF DUP3 GT OR ISZERO PUSH2 0x2181 JUMPI PUSH2 0x2180 PUSH2 0x210F JUMP JUMPDEST JUMPDEST DUP1 PUSH1 0x40 MSTORE POP POP POP JUMP JUMPDEST PUSH0 PUSH2 0x2193 PUSH2 0x1B76 JUMP JUMPDEST SWAP1 POP PUSH2 0x219F DUP3 DUP3 PUSH2 0x2159 JUMP JUMPDEST SWAP2 SWAP1 POP JUMP JUMPDEST PUSH0 DUP1 REVERT JUMPDEST PUSH2 0x21B1 DUP2 PUSH2 0x1EA0 JUMP JUMPDEST DUP2 EQ PUSH2 0x21BB JUMPI PUSH0 DUP1 REVERT JUMPDEST POP JUMP JUMPDEST PUSH0 DUP2 MLOAD SWAP1 POP PUSH2 0x21CC DUP2 PUSH2 0x21A8 JUMP JUMPDEST SWAP3 SWAP2 POP POP JUMP JUMPDEST PUSH0 DUP2 MLOAD SWAP1 POP PUSH2 0x21E0 DUP2 PUSH2 0x1C4B JUMP JUMPDEST SWAP3 SWAP2 POP POP JUMP JUMPDEST PUSH0 PUSH1 0xC0 DUP3 DUP5 SUB SLT ISZERO PUSH2 0x21FB JUMPI PUSH2 0x21FA PUSH2 0x2155 JUMP JUMPDEST JUMPDEST PUSH2 0x2205 PUSH1 0xC0 PUSH2 0x218A JUMP JUMPDEST SWAP1 POP PUSH0 PUSH2 0x2214 DUP5 DUP3 DUP6 ADD PUSH2 0x21BE JUMP JUMPDEST PUSH0 DUP4 ADD MSTORE POP PUSH1 0x20 PUSH2 0x2227 DUP5 DUP3 DUP6 ADD PUSH2 0x21D2 JUMP JUMPDEST PUSH1 0x20 DUP4 ADD MSTORE POP PUSH1 0x40 PUSH2 0x223B DUP5 DUP3 DUP6 ADD PUSH2 0x21BE JUMP JUMPDEST PUSH1 0x40 DUP4 ADD MSTORE POP PUSH1 0x60 PUSH2 0x224F DUP5 DUP3 DUP6 ADD PUSH2 0x21BE JUMP JUMPDEST PUSH1 0x60 DUP4 ADD MSTORE POP PUSH1 0x80 PUSH2 0x2263 DUP5 DUP3 DUP6 ADD PUSH2 0x21BE JUMP JUMPDEST PUSH1 0x80 DUP4 ADD MSTORE POP PUSH1 0xA0 PUSH2 0x2277 DUP5 DUP3 DUP6 ADD PUSH2 0x21D2 JUMP JUMPDEST PUSH1 0xA0 DUP4 ADD MSTORE POP SWAP3 SWAP2 POP POP JUMP JUMPDEST PUSH0 PUSH1 0xC0 DUP3 DUP5 SUB SLT ISZERO PUSH2 0x2298 JUMPI PUSH2 0x2297 PUSH2 0x1B7F JUMP JUMPDEST JUMPDEST PUSH0 PUSH2 0x22A5 DUP5 DUP3 DUP6 ADD PUSH2 0x21E6 JUMP JUMPDEST SWAP2 POP POP SWAP3 SWAP2 POP POP JUMP JUMPDEST PUSH0 PUSH1 0x40 DUP3 ADD SWAP1 POP PUSH2 0x22C1 PUSH0 DUP4 ADD DUP6 PUSH2 0x1EC7 JUMP JUMPDEST PUSH2 0x22CE PUSH1 0x20 DUP4 ADD DUP5 PUSH2 0x1EB8 JUMP JUMPDEST SWAP4 SWAP3 POP POP POP JUMP JUMPDEST PUSH0 DUP1 REVERT JUMPDEST PUSH0 PUSH8 0xFFFFFFFFFFFFFFFF DUP3 GT ISZERO PUSH2 0x22F3 JUMPI PUSH2 0x22F2 PUSH2 0x210F JUMP JUMPDEST JUMPDEST PUSH2 0x22FC DUP3 PUSH2 0x1D3B JUMP JUMPDEST SWAP1 POP PUSH1 0x20 DUP2 ADD SWAP1 POP SWAP2 SWAP1 POP JUMP JUMPDEST PUSH0 PUSH2 0x231B PUSH2 0x2316 DUP5 PUSH2 0x22D9 JUMP JUMPDEST PUSH2 0x218A JUMP JUMPDEST SWAP1 POP DUP3 DUP2 MSTORE PUSH1 0x20 DUP2 ADD DUP5 DUP5 DUP5 ADD GT ISZERO PUSH2 0x2337 JUMPI PUSH2 0x2336 PUSH2 0x22D5 JUMP JUMPDEST JUMPDEST PUSH2 0x2342 DUP5 DUP3 DUP6 PUSH2 0x1D13 JUMP JUMPDEST POP SWAP4 SWAP3 POP POP POP JUMP JUMPDEST PUSH0 DUP3 PUSH1 0x1F DUP4 ADD SLT PUSH2 0x235E JUMPI PUSH2 0x235D PUSH2 0x1BBA JUMP JUMPDEST JUMPDEST DUP2 MLOAD PUSH2 0x236E DUP5 DUP3 PUSH1 0x20 DUP7 ADD PUSH2 0x2309 JUMP JUMPDEST SWAP2 POP POP SWAP3 SWAP2 POP POP JUMP JUMPDEST PUSH2 0x2380 DUP2 PUSH2 0x1EA0 JUMP JUMPDEST DUP2 EQ PUSH2 0x238A JUMPI PUSH0 DUP1 REVERT JUMPDEST POP JUMP JUMPDEST PUSH0 DUP2 MLOAD SWAP1 POP PUSH2 0x239B DUP2 PUSH2 0x2377 JUMP JUMPDEST SWAP3 SWAP2 POP POP JUMP JUMPDEST PUSH0 PUSH4 0xFFFFFFFF DUP3 AND SWAP1 POP SWAP2 SWAP1 POP JUMP JUMPDEST PUSH2 0x23B9 DUP2 PUSH2 0x23A1 JUMP JUMPDEST DUP2 EQ PUSH2 0x23C3 JUMPI PUSH0 DUP1 REVERT JUMPDEST POP JUMP JUMPDEST PUSH0 DUP2 MLOAD SWAP1 POP PUSH2 0x23D4 DUP2 PUSH2 0x23B0 JUMP JUMPDEST SWAP3 SWAP2 POP POP JUMP JUMPDEST PUSH0 PUSH2 0x100 DUP3 DUP5 SUB SLT ISZERO PUSH2 0x23F0 JUMPI PUSH2 0x23EF PUSH2 0x2155 JUMP JUMPDEST JUMPDEST PUSH2 0x23FB PUSH2 0x100 PUSH2 0x218A JUMP JUMPDEST SWAP1 POP PUSH0 DUP3 ADD MLOAD PUSH8 0xFFFFFFFFFFFFFFFF DUP2 GT ISZERO PUSH2 0x241A JUMPI PUSH2 0x2419 PUSH2 0x21A4 JUMP JUMPDEST JUMPDEST PUSH2 0x2426 DUP5 DUP3 DUP6 ADD PUSH2 0x234A JUMP JUMPDEST PUSH0 DUP4 ADD MSTORE POP PUSH1 0x20 PUSH2 0x2439 DUP5 DUP3 DUP6 ADD PUSH2 0x21D2 JUMP JUMPDEST PUSH1 0x20 DUP4 ADD MSTORE POP PUSH1 0x40 PUSH2 0x244D DUP5 DUP3 DUP6 ADD PUSH2 0x21BE JUMP JUMPDEST PUSH1 0x40 DUP4 ADD MSTORE POP PUSH1 0x60 PUSH2 0x2461 DUP5 DUP3 DUP6 ADD PUSH2 0x21BE JUMP JUMPDEST PUSH1 0x60 DUP4 ADD MSTORE POP PUSH1 0x80 PUSH2 0x2475 DUP5 DUP3 DUP6 ADD PUSH2 0x21BE JUMP JUMPDEST PUSH1 0x80 DUP4 ADD MSTORE POP PUSH1 0xA0 PUSH2 0x2489 DUP5 DUP3 DUP6 ADD PUSH2 0x238D JUMP JUMPDEST PUSH1 0xA0 DUP4 ADD MSTORE POP PUSH1 0xC0 PUSH2 0x249D DUP5 DUP3 DUP6 ADD PUSH2 0x23C6 JUMP JUMPDEST PUSH1 0xC0 DUP4 ADD MSTORE POP PUSH1 0xE0 PUSH2 0x24B1 DUP5 DUP3 DUP6 ADD PUSH2 0x21BE JUMP JUMPDEST PUSH1 0xE0 DUP4 ADD MSTORE POP SWAP3 SWAP2 POP POP JUMP JUMPDEST PUSH0 PUSH1 0x20 DUP3 DUP5 SUB SLT ISZERO PUSH2 0x24D2 JUMPI PUSH2 0x24D1 PUSH2 0x1B7F JUMP JUMPDEST JUMPDEST PUSH0 DUP3 ADD MLOAD PUSH8 0xFFFFFFFFFFFFFFFF DUP2 GT ISZERO PUSH2 0x24EF JUMPI PUSH2 0x24EE PUSH2 0x1B83 JUMP JUMPDEST JUMPDEST PUSH2 0x24FB DUP5 DUP3 DUP6 ADD PUSH2 0x23DA JUMP JUMPDEST SWAP2 POP POP SWAP3 SWAP2 POP POP JUMP JUMPDEST PUSH32 0x4E487B7100000000000000000000000000000000000000000000000000000000 PUSH0 MSTORE PUSH1 0x21 PUSH1 0x4 MSTORE PUSH1 0x24 PUSH0 REVERT JUMPDEST PUSH0 PUSH1 0x20 DUP3 ADD SWAP1 POP PUSH2 0x2544 PUSH0 DUP4 ADD DUP5 PUSH2 0x1EA9 JUMP JUMPDEST SWAP3 SWAP2 POP POP JUMP JUMPDEST PUSH0 PUSH1 0x40 DUP3 ADD SWAP1 POP PUSH2 0x255D PUSH0 DUP4 ADD DUP6 PUSH2 0x1EA9 JUMP JUMPDEST PUSH2 0x256A PUSH1 0x20 DUP4 ADD DUP5 PUSH2 0x1EA9 JUMP JUMPDEST SWAP4 SWAP3 POP POP POP JUMP JUMPDEST PUSH0 PUSH8 0xFFFFFFFFFFFFFFFF DUP3 GT ISZERO PUSH2 0x258B JUMPI PUSH2 0x258A PUSH2 0x210F JUMP JUMPDEST JUMPDEST PUSH2 0x2594 DUP3 PUSH2 0x1D3B JUMP JUMPDEST SWAP1 POP PUSH1 0x20 DUP2 ADD SWAP1 POP SWAP2 SWAP1 POP JUMP JUMPDEST PUSH0 PUSH2 0x25B3 PUSH2 0x25AE DUP5 PUSH2 0x2571 JUMP JUMPDEST PUSH2 0x218A JUMP JUMPDEST SWAP1 POP DUP3 DUP2 MSTORE PUSH1 0x20 DUP2 ADD DUP5 DUP5 DUP5 ADD GT ISZERO PUSH2 0x25CF JUMPI PUSH2 0x25CE PUSH2 0x22D5 JUMP JUMPDEST JUMPDEST PUSH2 0x25DA DUP5 DUP3 DUP6 PUSH2 0x1D13 JUMP JUMPDEST POP SWAP4 SWAP3 POP POP POP JUMP JUMPDEST PUSH0 DUP3 PUSH1 0x1F DUP4 ADD SLT PUSH2 0x25F6 JUMPI PUSH2 0x25F5 PUSH2 0x1BBA JUMP JUMPDEST JUMPDEST DUP2 MLOAD PUSH2 0x2606 DUP5 DUP3 PUSH1 0x20 DUP7 ADD PUSH2 0x25A1 JUMP JUMPDEST SWAP2 POP POP SWAP3 SWAP2 POP POP JUMP JUMPDEST PUSH0 PUSH1 0x20 DUP3 DUP5 SUB SLT ISZERO PUSH2 0x2624 JUMPI PUSH2 0x2623 PUSH2 0x1B7F JUMP JUMPDEST JUMPDEST PUSH0 DUP3 ADD MLOAD PUSH8 0xFFFFFFFFFFFFFFFF DUP2 GT ISZERO PUSH2 0x2641 JUMPI PUSH2 0x2640 PUSH2 0x1B83 JUMP JUMPDEST JUMPDEST PUSH2 0x264D DUP5 DUP3 DUP6 ADD PUSH2 0x25E2 JUMP JUMPDEST SWAP2 POP POP SWAP3 SWAP2 POP POP JUMP JUMPDEST PUSH32 0x4E487B7100000000000000000000000000000000000000000000000000000000 PUSH0 MSTORE PUSH1 0x22 PUSH1 0x4 MSTORE PUSH1 0x24 PUSH0 REVERT JUMPDEST PUSH0 PUSH1 0x2 DUP3 DIV SWAP1 POP PUSH1 0x1 DUP3 AND DUP1 PUSH2 0x269A JUMPI PUSH1 0x7F DUP3 AND SWAP2 POP JUMPDEST PUSH1 0x20 DUP3 LT DUP2 SUB PUSH2 0x26AD JUMPI PUSH2 0x26AC PUSH2 0x2656 JUMP JUMPDEST JUMPDEST POP SWAP2 SWAP1 POP JUMP JUMPDEST PUSH0 PUSH1 0xA0 DUP3 ADD SWAP1 POP PUSH2 0x26C6 PUSH0 DUP4 ADD DUP9 PUSH2 0x1EC7 JUMP JUMPDEST PUSH2 0x26D3 PUSH1 0x20 DUP4 ADD DUP8 PUSH2 0x1EC7 JUMP JUMPDEST PUSH2 0x26E0 PUSH1 0x40 DUP4 ADD DUP7 PUSH2 0x1EC7 JUMP JUMPDEST PUSH2 0x26ED PUSH1 0x60 DUP4 ADD DUP6 PUSH2 0x1EA9 JUMP JUMPDEST PUSH2 0x26FA PUSH1 0x80 DUP4 ADD DUP5 PUSH2 0x1EB8 JUMP JUMPDEST SWAP7 SWAP6 POP POP POP POP POP POP JUMP JUMPDEST PUSH0 PUSH1 0xFF DUP3 AND SWAP1 POP SWAP2 SWAP1 POP JUMP JUMPDEST PUSH2 0x2719 DUP2 PUSH2 0x2704 JUMP JUMPDEST DUP3 MSTORE POP POP JUMP JUMPDEST PUSH0 PUSH1 0x80 DUP3 ADD SWAP1 POP PUSH2 0x2732 PUSH0 DUP4 ADD DUP8 PUSH2 0x1EC7 JUMP JUMPDEST PUSH2 0x273F PUSH1 0x20 DUP4 ADD DUP7 PUSH2 0x2710 JUMP JUMPDEST PUSH2 0x274C PUSH1 0x40 DUP4 ADD DUP6 PUSH2 0x1EC7 JUMP JUMPDEST PUSH2 0x2759 PUSH1 0x60 DUP4 ADD DUP5 PUSH2 0x1EC7 JUMP JUMPDEST SWAP6 SWAP5 POP POP POP POP POP JUMP JUMPDEST PUSH0 PUSH1 0x40 DUP3 ADD SWAP1 POP PUSH2 0x2775 PUSH0 DUP4 ADD DUP6 PUSH2 0x1EA9 JUMP JUMPDEST PUSH2 0x2782 PUSH1 0x20 DUP4 ADD DUP5 PUSH2 0x1E3F JUMP JUMPDEST SWAP4 SWAP3 POP POP POP JUMP JUMPDEST PUSH2 0x2792 DUP2 PUSH2 0x1EA0 JUMP JUMPDEST DUP2 EQ PUSH2 0x279C JUMPI PUSH0 DUP1 REVERT JUMPDEST POP JUMP JUMPDEST PUSH0 DUP2 MLOAD SWAP1 POP PUSH2 0x27AD DUP2 PUSH2 0x2789 JUMP JUMPDEST SWAP3 SWAP2 POP POP JUMP JUMPDEST PUSH0 PUSH1 0x20 DUP3 DUP5 SUB SLT ISZERO PUSH2 0x27C8 JUMPI PUSH2 0x27C7 PUSH2 0x1B7F JUMP JUMPDEST JUMPDEST PUSH0 PUSH2 0x27D5 DUP5 DUP3 DUP6 ADD PUSH2 0x279F JUMP JUMPDEST SWAP2 POP POP SWAP3 SWAP2 POP POP JUMP INVALID LOG2 PUSH5 0x6970667358 0x22 SLT KECCAK256 PUSH5 0xBA87D69449 0xAF 0xC7 0xE BLOBBASEFEE 0xB4 0xBB KECCAK256 BLOCKHASH ADDMOD EXTCODECOPY 0x25 0xEF JUMPDEST SWAP9 0xC1 SWAP12 BALANCE 0x24 CALL SUB 0xB1 SELFBALANCE LOG0 SHR 0xC7 0xD8 PUSH5 0x736F6C6343 STOP ADDMOD XOR STOP CALLER "
		},
		"gasEstimates": {
			"creation": {
				"codeDepositCost": "2052000",
				"executionCost": "infinite",
				"totalCost": "infinite"
			},
			"external": {
				"eip712Domain()": "infinite",
				"viewCompanyemploys(bytes32,bytes32,bytes)": "infinite",
				"viewCompanytotalClaimedFund(bytes32,bytes32,bytes)": "infinite",
				"viewCompanytotalFund(bytes32,bytes32,bytes)": "infinite",
				"viewCompanytotalLocked(bytes32,bytes32,bytes)": "infinite",
				"viewEmployeClaimed(bytes32,bytes32,bytes,address)": "infinite",
				"viewEmployeLastClaimed(bytes32,bytes32,bytes,address)": "infinite",
				"viewEmployeName(bytes32)": "infinite",
				"viewEmployeTotalAllocation(bytes32,bytes32,bytes,address)": "infinite",
				"viewEmployeUnlocked(bytes32,bytes32,bytes,address)": "infinite"
			},
			"internal": {
				"getCompany(bytes32)": "infinite",
				"getEmployee(bytes32,address)": "infinite"
			}
		},
		"methodIdentifiers": {
			"eip712Domain()": "84b0196e",
			"viewCompanyemploys(bytes32,bytes32,bytes)": "87908527",
			"viewCompanytotalClaimedFund(bytes32,bytes32,bytes)": "69fa32b0",
			"viewCompanytotalFund(bytes32,bytes32,bytes)": "274c727c",
			"viewCompanytotalLocked(bytes32,bytes32,bytes)": "e959f150",
			"viewEmployeClaimed(bytes32,bytes32,bytes,address)": "1632ae3e",
			"viewEmployeLastClaimed(bytes32,bytes32,bytes,address)": "c80af768",
			"viewEmployeName(bytes32)": "eb301016",
			"viewEmployeTotalAllocation(bytes32,bytes32,bytes,address)": "82a9044b",
			"viewEmployeUnlocked(bytes32,bytes32,bytes,address)": "85095370"
		}
	},
	"abi": [
		{
			"inputs": [
				{
					"internalType": "address",
					"name": "capTableAddr",
					"type": "address"
				}
			],
			"stateMutability": "nonpayable",
			"type": "constructor"
		},
		{
			"inputs": [],
			"name": "ECDSAInvalidSignature",
			"type": "error"
		},
		{
			"inputs": [
				{
					"internalType": "uint256",
					"name": "length",
					"type": "uint256"
				}
			],
			"name": "ECDSAInvalidSignatureLength",
			"type": "error"
		},
		{
			"inputs": [
				{
					"internalType": "bytes32",
					"name": "s",
					"type": "bytes32"
				}
			],
			"name": "ECDSAInvalidSignatureS",
			"type": "error"
		},
		{
			"inputs": [],
			"name": "InvalidShortString",
			"type": "error"
		},
		{
			"inputs": [
				{
					"internalType": "string",
					"name": "str",
					"type": "string"
				}
			],
			"name": "StringTooLong",
			"type": "error"
		},
		{
			"anonymous": false,
			"inputs": [],
			"name": "EIP712DomainChanged",
			"type": "event"
		},
		{
			"inputs": [],
			"name": "eip712Domain",
			"outputs": [
				{
					"internalType": "bytes1",
					"name": "fields",
					"type": "bytes1"
				},
				{
					"internalType": "string",
					"name": "name",
					"type": "string"
				},
				{
					"internalType": "string",
					"name": "version",
					"type": "string"
				},
				{
					"internalType": "uint256",
					"name": "chainId",
					"type": "uint256"
				},
				{
					"internalType": "address",
					"name": "verifyingContract",
					"type": "address"
				},
				{
					"internalType": "bytes32",
					"name": "salt",
					"type": "bytes32"
				},
				{
					"internalType": "uint256[]",
					"name": "extensions",
					"type": "uint256[]"
				}
			],
			"stateMutability": "view",
			"type": "function"
		},
		{
			"inputs": [
				{
					"internalType": "bytes32",
					"name": "key",
					"type": "bytes32"
				},
				{
					"internalType": "bytes32",
					"name": "publicKey",
					"type": "bytes32"
				},
				{
					"internalType": "bytes",
					"name": "signature",
					"type": "bytes"
				}
			],
			"name": "viewCompanyemploys",
			"outputs": [
				{
					"internalType": "bytes",
					"name": "",
					"type": "bytes"
				}
			],
			"stateMutability": "view",
			"type": "function"
		},
		{
			"inputs": [
				{
					"internalType": "bytes32",
					"name": "key",
					"type": "bytes32"
				},
				{
					"internalType": "bytes32",
					"name": "publicKey",
					"type": "bytes32"
				},
				{
					"internalType": "bytes",
					"name": "signature",
					"type": "bytes"
				}
			],
			"name": "viewCompanytotalClaimedFund",
			"outputs": [
				{
					"internalType": "bytes",
					"name": "",
					"type": "bytes"
				}
			],
			"stateMutability": "view",
			"type": "function"
		},
		{
			"inputs": [
				{
					"internalType": "bytes32",
					"name": "key",
					"type": "bytes32"
				},
				{
					"internalType": "bytes32",
					"name": "publicKey",
					"type": "bytes32"
				},
				{
					"internalType": "bytes",
					"name": "signature",
					"type": "bytes"
				}
			],
			"name": "viewCompanytotalFund",
			"outputs": [
				{
					"internalType": "bytes",
					"name": "",
					"type": "bytes"
				}
			],
			"stateMutability": "view",
			"type": "function"
		},
		{
			"inputs": [
				{
					"internalType": "bytes32",
					"name": "key",
					"type": "bytes32"
				},
				{
					"internalType": "bytes32",
					"name": "publicKey",
					"type": "bytes32"
				},
				{
					"internalType": "bytes",
					"name": "signature",
					"type": "bytes"
				}
			],
			"name": "viewCompanytotalLocked",
			"outputs": [
				{
					"internalType": "bytes",
					"name": "",
					"type": "bytes"
				}
			],
			"stateMutability": "view",
			"type": "function"
		},
		{
			"inputs": [
				{
					"internalType": "bytes32",
					"name": "key",
					"type": "bytes32"
				},
				{
					"internalType": "bytes32",
					"name": "publicKey",
					"type": "bytes32"
				},
				{
					"internalType": "bytes",
					"name": "signature",
					"type": "bytes"
				},
				{
					"internalType": "address",
					"name": "caller",
					"type": "address"
				}
			],
			"name": "viewEmployeClaimed",
			"outputs": [
				{
					"internalType": "bytes",
					"name": "",
					"type": "bytes"
				}
			],
			"stateMutability": "view",
			"type": "function"
		},
		{
			"inputs": [
				{
					"internalType": "bytes32",
					"name": "key",
					"type": "bytes32"
				},
				{
					"internalType": "bytes32",
					"name": "publicKey",
					"type": "bytes32"
				},
				{
					"internalType": "bytes",
					"name": "signature",
					"type": "bytes"
				},
				{
					"internalType": "address",
					"name": "caller",
					"type": "address"
				}
			],
			"name": "viewEmployeLastClaimed",
			"outputs": [
				{
					"internalType": "bytes",
					"name": "",
					"type": "bytes"
				}
			],
			"stateMutability": "view",
			"type": "function"
		},
		{
			"inputs": [
				{
					"internalType": "bytes32",
					"name": "key",
					"type": "bytes32"
				}
			],
			"name": "viewEmployeName",
			"outputs": [
				{
					"internalType": "string",
					"name": "",
					"type": "string"
				}
			],
			"stateMutability": "view",
			"type": "function"
		},
		{
			"inputs": [
				{
					"internalType": "bytes32",
					"name": "key",
					"type": "bytes32"
				},
				{
					"internalType": "bytes32",
					"name": "publicKey",
					"type": "bytes32"
				},
				{
					"internalType": "bytes",
					"name": "signature",
					"type": "bytes"
				},
				{
					"internalType": "address",
					"name": "caller",
					"type": "address"
				}
			],
			"name": "viewEmployeTotalAllocation",
			"outputs": [
				{
					"internalType": "bytes",
					"name": "",
					"type": "bytes"
				}
			],
			"stateMutability": "view",
			"type": "function"
		},
		{
			"inputs": [
				{
					"internalType": "bytes32",
					"name": "key",
					"type": "bytes32"
				},
				{
					"internalType": "bytes32",
					"name": "publicKey",
					"type": "bytes32"
				},
				{
					"internalType": "bytes",
					"name": "signature",
					"type": "bytes"
				},
				{
					"internalType": "address",
					"name": "caller",
					"type": "address"
				}
			],
			"name": "viewEmployeUnlocked",
			"outputs": [
				{
					"internalType": "bytes",
					"name": "",
					"type": "bytes"
				}
			],
			"stateMutability": "view",
			"type": "function"
		}
	]
}