{
	"data": {
		"bytecode": {
			"linkReferences": {},
			"object": "6080604052348015600e575f80fd5b503360025f6101000a81548173ffffffffffffffffffffffffffffffffffffffff021916908373ffffffffffffffffffffffffffffffffffffffff1602179055506111218061005c5f395ff3fe608060405234801561000f575f80fd5b506004361061004a575f3560e01c8063481edb401461004e5780635a0ef09d1461006a5780635a373db51461008657806389a499f4146100a2575b5f80fd5b610068600480360381019061006391906109cb565b6100be565b005b610084600480360381019061007f9190610a47565b610151565b005b6100a0600480360381019061009b9190610afb565b61033d565b005b6100bc60048036038101906100b79190610b44565b6103d7565b005b5f8054906101000a900473ffffffffffffffffffffffffffffffffffffffff1673ffffffffffffffffffffffffffffffffffffffff1663b09246e1610102836105f1565b846040518363ffffffff1660e01b8152600401610120929190610bef565b5f604051808303815f87803b158015610137575f80fd5b505af1158015610149573d5f803e3d5ffd5b505050505050565b5f6040518060e001604052806101b684805f019061016f9190610c22565b8080601f0160208091040260200160405190810160405280939291908181526020018383808284375f81840152601f19601f820116905080830192505050505050506105f1565b81526020016102158480602001906101ce9190610c22565b8080601f0160208091040260200160405190810160405280939291908181526020018383808284375f81840152601f19601f820116905080830192505050505050506105f1565b815260200161027484806040019061022d9190610c22565b8080601f0160208091040260200160405190810160405280939291908181526020018383808284375f81840152601f19601f820116905080830192505050505050506105f1565b81526020016102825f610604565b81526020016102905f610604565b815260200161029e5f610604565b81526020016102ac5f610604565b81525090505f8054906101000a900473ffffffffffffffffffffffffffffffffffffffff1673ffffffffffffffffffffffffffffffffffffffff1663283f03f082856040518363ffffffff1660e01b815260040161030b929190610d1f565b5f604051808303815f87803b158015610322575f80fd5b505af1158015610334573d5f803e3d5ffd5b50505050505050565b60025f9054906101000a900473ffffffffffffffffffffffffffffffffffffffff1673ffffffffffffffffffffffffffffffffffffffff163373ffffffffffffffffffffffffffffffffffffffff1614610395575f80fd5b805f806101000a81548173ffffffffffffffffffffffffffffffffffffffff021916908373ffffffffffffffffffffffffffffffffffffffff16021790555050565b815f6103e282610617565b9050806020015173ffffffffffffffffffffffffffffffffffffffff163373ffffffffffffffffffffffffffffffffffffffff1614610456576040517f08c379a000000000000000000000000000000000000000000000000000000000815260040161044d90610da1565b60405180910390fd5b5f8054906101000a900473ffffffffffffffffffffffffffffffffffffffff1673ffffffffffffffffffffffffffffffffffffffff16633e3871e96104ea85805f01906104a39190610c22565b8080601f0160208091040260200160405190810160405280939291908181526020018383808284375f81840152601f19601f820116905080830192505050505050506105f1565b6105448680602001906104fd9190610c22565b8080601f0160208091040260200160405190810160405280939291908181526020018383808284375f81840152601f19601f820116905080830192505050505050506105f1565b61059e8780604001906105579190610c22565b8080601f0160208091040260200160405190810160405280939291908181526020018383808284375f81840152601f19601f820116905080830192505050505050506105f1565b886040518563ffffffff1660e01b81526004016105be9493929190610dbf565b5f604051808303815f87803b1580156105d5575f80fd5b505af11580156105e7573d5f803e3d5ffd5b5050505050505050565b5f6105fd8260026106bd565b9050919050565b5f610610826002610768565b9050919050565b61061f6107ef565b5f8054906101000a900473ffffffffffffffffffffffffffffffffffffffff1673ffffffffffffffffffffffffffffffffffffffff166330f37b44836040518263ffffffff1660e01b81526004016106779190610e02565b60c060405180830381865afa158015610692573d5f803e3d5ffd5b505050506040513d601f19601f820116820180604052508101906106b69190610efa565b9050919050565b5f80838360f81b6040516020016106d5929190610fc2565b6040516020818303038152906040529050605d73ffffffffffffffffffffffffffffffffffffffff16634b252ec8826040518263ffffffff1660e01b81526004016107209190611031565b602060405180830381865afa15801561073b573d5f803e3d5ffd5b505050506040513d601f19601f8201168201806040525081019061075f919061107b565b91505092915050565b5f605d73ffffffffffffffffffffffffffffffffffffffff1663e71746b8848460f81b6040518363ffffffff1660e01b81526004016107a89291906110c4565b602060405180830381865afa1580156107c3573d5f803e3d5ffd5b505050506040513d601f19601f820116820180604052508101906107e7919061107b565b905092915050565b6040518060c001604052805f81526020015f73ffffffffffffffffffffffffffffffffffffffff1681526020015f81526020015f81526020015f81526020015f73ffffffffffffffffffffffffffffffffffffffff1681525090565b5f604051905090565b5f80fd5b5f80fd5b5f819050919050565b61086e8161085c565b8114610878575f80fd5b50565b5f8135905061088981610865565b92915050565b5f80fd5b5f80fd5b5f601f19601f8301169050919050565b7f4e487b71000000000000000000000000000000000000000000000000000000005f52604160045260245ffd5b6108dd82610897565b810181811067ffffffffffffffff821117156108fc576108fb6108a7565b5b80604052505050565b5f61090e61084b565b905061091a82826108d4565b919050565b5f67ffffffffffffffff821115610939576109386108a7565b5b61094282610897565b9050602081019050919050565b828183375f83830152505050565b5f61096f61096a8461091f565b610905565b90508281526020810184848401111561098b5761098a610893565b5b61099684828561094f565b509392505050565b5f82601f8301126109b2576109b161088f565b5b81356109c284826020860161095d565b91505092915050565b5f80604083850312156109e1576109e0610854565b5b5f6109ee8582860161087b565b925050602083013567ffffffffffffffff811115610a0f57610a0e610858565b5b610a1b8582860161099e565b9150509250929050565b5f80fd5b5f60608284031215610a3e57610a3d610a25565b5b81905092915050565b5f8060408385031215610a5d57610a5c610854565b5b5f610a6a8582860161087b565b925050602083013567ffffffffffffffff811115610a8b57610a8a610858565b5b610a9785828601610a29565b9150509250929050565b5f73ffffffffffffffffffffffffffffffffffffffff82169050919050565b5f610aca82610aa1565b9050919050565b610ada81610ac0565b8114610ae4575f80fd5b50565b5f81359050610af581610ad1565b92915050565b5f60208284031215610b1057610b0f610854565b5b5f610b1d84828501610ae7565b91505092915050565b5f60608284031215610b3b57610b3a610a25565b5b81905092915050565b5f8060408385031215610b5a57610b59610854565b5b5f610b678582860161087b565b925050602083013567ffffffffffffffff811115610b8857610b87610858565b5b610b9485828601610b26565b9150509250929050565b5f819050919050565b5f819050919050565b5f610bca610bc5610bc084610b9e565b610ba7565b610b9e565b9050919050565b610bda81610bb0565b82525050565b610be98161085c565b82525050565b5f604082019050610c025f830185610bd1565b610c0f6020830184610be0565b9392505050565b5f80fd5b5f80fd5b5f80fd5b5f8083356001602003843603038112610c3e57610c3d610c16565b5b80840192508235915067ffffffffffffffff821115610c6057610c5f610c1a565b5b602083019250600182023603831315610c7c57610c7b610c1e565b5b509250929050565b610c8d81610bb0565b82525050565b60e082015f820151610ca75f850182610c84565b506020820151610cba6020850182610c84565b506040820151610ccd6040850182610c84565b506060820151610ce06060850182610c84565b506080820151610cf36080850182610c84565b5060a0820151610d0660a0850182610c84565b5060c0820151610d1960c0850182610c84565b50505050565b5f61010082019050610d335f830185610c93565b610d4060e0830184610be0565b9392505050565b5f82825260208201905092915050565b7f6e6f742061646d696e00000000000000000000000000000000000000000000005f82015250565b5f610d8b600983610d47565b9150610d9682610d57565b602082019050919050565b5f6020820190508181035f830152610db881610d7f565b9050919050565b5f608082019050610dd25f830187610bd1565b610ddf6020830186610bd1565b610dec6040830185610bd1565b610df96060830184610be0565b95945050505050565b5f602082019050610e155f830184610be0565b92915050565b5f80fd5b610e2881610b9e565b8114610e32575f80fd5b50565b5f81519050610e4381610e1f565b92915050565b5f81519050610e5781610ad1565b92915050565b5f60c08284031215610e7257610e71610e1b565b5b610e7c60c0610905565b90505f610e8b84828501610e35565b5f830152506020610e9e84828501610e49565b6020830152506040610eb284828501610e35565b6040830152506060610ec684828501610e35565b6060830152506080610eda84828501610e35565b60808301525060a0610eee84828501610e49565b60a08301525092915050565b5f60c08284031215610f0f57610f0e610854565b5b5f610f1c84828501610e5d565b91505092915050565b5f81519050919050565b5f81905092915050565b8281835e5f83830152505050565b5f610f5182610f25565b610f5b8185610f2f565b9350610f6b818560208601610f39565b80840191505092915050565b5f7fff0000000000000000000000000000000000000000000000000000000000000082169050919050565b5f819050919050565b610fbc610fb782610f77565b610fa2565b82525050565b5f610fcd8285610f47565b9150610fd98284610fab565b6001820191508190509392505050565b5f82825260208201905092915050565b5f61100382610f25565b61100d8185610fe9565b935061101d818560208601610f39565b61102681610897565b840191505092915050565b5f6020820190508181035f8301526110498184610ff9565b905092915050565b61105a81610b9e565b8114611064575f80fd5b50565b5f8151905061107581611051565b92915050565b5f602082840312156110905761108f610854565b5b5f61109d84828501611067565b91505092915050565b6110af81610b9e565b82525050565b6110be81610f77565b82525050565b5f6040820190506110d75f8301856110a6565b6110e460208301846110b5565b939250505056fea2646970667358221220741eb274552b6f0e89a8f6be0aa683ed0fae23085797a5ab94e116e39485a40b64736f6c63430008190033",
			"opcodes": "PUSH1 0x80 PUSH1 0x40 MSTORE CALLVALUE DUP1 ISZERO PUSH1 0xE JUMPI PUSH0 DUP1 REVERT JUMPDEST POP CALLER PUSH1 0x2 PUSH0 PUSH2 0x100 EXP DUP2 SLOAD DUP2 PUSH20 0xFFFFFFFFFFFFFFFFFFFFFFFFFFFFFFFFFFFFFFFF MUL NOT AND SWAP1 DUP4 PUSH20 0xFFFFFFFFFFFFFFFFFFFFFFFFFFFFFFFFFFFFFFFF AND MUL OR SWAP1 SSTORE POP PUSH2 0x1121 DUP1 PUSH2 0x5C PUSH0 CODECOPY PUSH0 RETURN INVALID PUSH1 0x80 PUSH1 0x40 MSTORE CALLVALUE DUP1 ISZERO PUSH2 0xF JUMPI PUSH0 DUP1 REVERT JUMPDEST POP PUSH1 0x4 CALLDATASIZE LT PUSH2 0x4A JUMPI PUSH0 CALLDATALOAD PUSH1 0xE0 SHR DUP1 PUSH4 0x481EDB40 EQ PUSH2 0x4E JUMPI DUP1 PUSH4 0x5A0EF09D EQ PUSH2 0x6A JUMPI DUP1 PUSH4 0x5A373DB5 EQ PUSH2 0x86 JUMPI DUP1 PUSH4 0x89A499F4 EQ PUSH2 0xA2 JUMPI JUMPDEST PUSH0 DUP1 REVERT JUMPDEST PUSH2 0x68 PUSH1 0x4 DUP1 CALLDATASIZE SUB DUP2 ADD SWAP1 PUSH2 0x63 SWAP2 SWAP1 PUSH2 0x9CB JUMP JUMPDEST PUSH2 0xBE JUMP JUMPDEST STOP JUMPDEST PUSH2 0x84 PUSH1 0x4 DUP1 CALLDATASIZE SUB DUP2 ADD SWAP1 PUSH2 0x7F SWAP2 SWAP1 PUSH2 0xA47 JUMP JUMPDEST PUSH2 0x151 JUMP JUMPDEST STOP JUMPDEST PUSH2 0xA0 PUSH1 0x4 DUP1 CALLDATASIZE SUB DUP2 ADD SWAP1 PUSH2 0x9B SWAP2 SWAP1 PUSH2 0xAFB JUMP JUMPDEST PUSH2 0x33D JUMP JUMPDEST STOP JUMPDEST PUSH2 0xBC PUSH1 0x4 DUP1 CALLDATASIZE SUB DUP2 ADD SWAP1 PUSH2 0xB7 SWAP2 SWAP1 PUSH2 0xB44 JUMP JUMPDEST PUSH2 0x3D7 JUMP JUMPDEST STOP JUMPDEST PUSH0 DUP1 SLOAD SWAP1 PUSH2 0x100 EXP SWAP1 DIV PUSH20 0xFFFFFFFFFFFFFFFFFFFFFFFFFFFFFFFFFFFFFFFF AND PUSH20 0xFFFFFFFFFFFFFFFFFFFFFFFFFFFFFFFFFFFFFFFF AND PUSH4 0xB09246E1 PUSH2 0x102 DUP4 PUSH2 0x5F1 JUMP JUMPDEST DUP5 PUSH1 0x40 MLOAD DUP4 PUSH4 0xFFFFFFFF AND PUSH1 0xE0 SHL DUP2 MSTORE PUSH1 0x4 ADD PUSH2 0x120 SWAP3 SWAP2 SWAP1 PUSH2 0xBEF JUMP JUMPDEST PUSH0 PUSH1 0x40 MLOAD DUP1 DUP4 SUB DUP2 PUSH0 DUP8 DUP1 EXTCODESIZE ISZERO DUP1 ISZERO PUSH2 0x137 JUMPI PUSH0 DUP1 REVERT JUMPDEST POP GAS CALL ISZERO DUP1 ISZERO PUSH2 0x149 JUMPI RETURNDATASIZE PUSH0 DUP1 RETURNDATACOPY RETURNDATASIZE PUSH0 REVERT JUMPDEST POP POP POP POP POP POP JUMP JUMPDEST PUSH0 PUSH1 0x40 MLOAD DUP1 PUSH1 0xE0 ADD PUSH1 0x40 MSTORE DUP1 PUSH2 0x1B6 DUP5 DUP1 PUSH0 ADD SWAP1 PUSH2 0x16F SWAP2 SWAP1 PUSH2 0xC22 JUMP JUMPDEST DUP1 DUP1 PUSH1 0x1F ADD PUSH1 0x20 DUP1 SWAP2 DIV MUL PUSH1 0x20 ADD PUSH1 0x40 MLOAD SWAP1 DUP2 ADD PUSH1 0x40 MSTORE DUP1 SWAP4 SWAP3 SWAP2 SWAP1 DUP2 DUP2 MSTORE PUSH1 0x20 ADD DUP4 DUP4 DUP1 DUP3 DUP5 CALLDATACOPY PUSH0 DUP2 DUP5 ADD MSTORE PUSH1 0x1F NOT PUSH1 0x1F DUP3 ADD AND SWAP1 POP DUP1 DUP4 ADD SWAP3 POP POP POP POP POP POP POP PUSH2 0x5F1 JUMP JUMPDEST DUP2 MSTORE PUSH1 0x20 ADD PUSH2 0x215 DUP5 DUP1 PUSH1 0x20 ADD SWAP1 PUSH2 0x1CE SWAP2 SWAP1 PUSH2 0xC22 JUMP JUMPDEST DUP1 DUP1 PUSH1 0x1F ADD PUSH1 0x20 DUP1 SWAP2 DIV MUL PUSH1 0x20 ADD PUSH1 0x40 MLOAD SWAP1 DUP2 ADD PUSH1 0x40 MSTORE DUP1 SWAP4 SWAP3 SWAP2 SWAP1 DUP2 DUP2 MSTORE PUSH1 0x20 ADD DUP4 DUP4 DUP1 DUP3 DUP5 CALLDATACOPY PUSH0 DUP2 DUP5 ADD MSTORE PUSH1 0x1F NOT PUSH1 0x1F DUP3 ADD AND SWAP1 POP DUP1 DUP4 ADD SWAP3 POP POP POP POP POP POP POP PUSH2 0x5F1 JUMP JUMPDEST DUP2 MSTORE PUSH1 0x20 ADD PUSH2 0x274 DUP5 DUP1 PUSH1 0x40 ADD SWAP1 PUSH2 0x22D SWAP2 SWAP1 PUSH2 0xC22 JUMP JUMPDEST DUP1 DUP1 PUSH1 0x1F ADD PUSH1 0x20 DUP1 SWAP2 DIV MUL PUSH1 0x20 ADD PUSH1 0x40 MLOAD SWAP1 DUP2 ADD PUSH1 0x40 MSTORE DUP1 SWAP4 SWAP3 SWAP2 SWAP1 DUP2 DUP2 MSTORE PUSH1 0x20 ADD DUP4 DUP4 DUP1 DUP3 DUP5 CALLDATACOPY PUSH0 DUP2 DUP5 ADD MSTORE PUSH1 0x1F NOT PUSH1 0x1F DUP3 ADD AND SWAP1 POP DUP1 DUP4 ADD SWAP3 POP POP POP POP POP POP POP PUSH2 0x5F1 JUMP JUMPDEST DUP2 MSTORE PUSH1 0x20 ADD PUSH2 0x282 PUSH0 PUSH2 0x604 JUMP JUMPDEST DUP2 MSTORE PUSH1 0x20 ADD PUSH2 0x290 PUSH0 PUSH2 0x604 JUMP JUMPDEST DUP2 MSTORE PUSH1 0x20 ADD PUSH2 0x29E PUSH0 PUSH2 0x604 JUMP JUMPDEST DUP2 MSTORE PUSH1 0x20 ADD PUSH2 0x2AC PUSH0 PUSH2 0x604 JUMP JUMPDEST DUP2 MSTORE POP SWAP1 POP PUSH0 DUP1 SLOAD SWAP1 PUSH2 0x100 EXP SWAP1 DIV PUSH20 0xFFFFFFFFFFFFFFFFFFFFFFFFFFFFFFFFFFFFFFFF AND PUSH20 0xFFFFFFFFFFFFFFFFFFFFFFFFFFFFFFFFFFFFFFFF AND PUSH4 0x283F03F0 DUP3 DUP6 PUSH1 0x40 MLOAD DUP4 PUSH4 0xFFFFFFFF AND PUSH1 0xE0 SHL DUP2 MSTORE PUSH1 0x4 ADD PUSH2 0x30B SWAP3 SWAP2 SWAP1 PUSH2 0xD1F JUMP JUMPDEST PUSH0 PUSH1 0x40 MLOAD DUP1 DUP4 SUB DUP2 PUSH0 DUP8 DUP1 EXTCODESIZE ISZERO DUP1 ISZERO PUSH2 0x322 JUMPI PUSH0 DUP1 REVERT JUMPDEST POP GAS CALL ISZERO DUP1 ISZERO PUSH2 0x334 JUMPI RETURNDATASIZE PUSH0 DUP1 RETURNDATACOPY RETURNDATASIZE PUSH0 REVERT JUMPDEST POP POP POP POP POP POP POP JUMP JUMPDEST PUSH1 0x2 PUSH0 SWAP1 SLOAD SWAP1 PUSH2 0x100 EXP SWAP1 DIV PUSH20 0xFFFFFFFFFFFFFFFFFFFFFFFFFFFFFFFFFFFFFFFF AND PUSH20 0xFFFFFFFFFFFFFFFFFFFFFFFFFFFFFFFFFFFFFFFF AND CALLER PUSH20 0xFFFFFFFFFFFFFFFFFFFFFFFFFFFFFFFFFFFFFFFF AND EQ PUSH2 0x395 JUMPI PUSH0 DUP1 REVERT JUMPDEST DUP1 PUSH0 DUP1 PUSH2 0x100 EXP DUP2 SLOAD DUP2 PUSH20 0xFFFFFFFFFFFFFFFFFFFFFFFFFFFFFFFFFFFFFFFF MUL NOT AND SWAP1 DUP4 PUSH20 0xFFFFFFFFFFFFFFFFFFFFFFFFFFFFFFFFFFFFFFFF AND MUL OR SWAP1 SSTORE POP POP JUMP JUMPDEST DUP2 PUSH0 PUSH2 0x3E2 DUP3 PUSH2 0x617 JUMP JUMPDEST SWAP1 POP DUP1 PUSH1 0x20 ADD MLOAD PUSH20 0xFFFFFFFFFFFFFFFFFFFFFFFFFFFFFFFFFFFFFFFF AND CALLER PUSH20 0xFFFFFFFFFFFFFFFFFFFFFFFFFFFFFFFFFFFFFFFF AND EQ PUSH2 0x456 JUMPI PUSH1 0x40 MLOAD PUSH32 0x8C379A000000000000000000000000000000000000000000000000000000000 DUP2 MSTORE PUSH1 0x4 ADD PUSH2 0x44D SWAP1 PUSH2 0xDA1 JUMP JUMPDEST PUSH1 0x40 MLOAD DUP1 SWAP2 SUB SWAP1 REVERT JUMPDEST PUSH0 DUP1 SLOAD SWAP1 PUSH2 0x100 EXP SWAP1 DIV PUSH20 0xFFFFFFFFFFFFFFFFFFFFFFFFFFFFFFFFFFFFFFFF AND PUSH20 0xFFFFFFFFFFFFFFFFFFFFFFFFFFFFFFFFFFFFFFFF AND PUSH4 0x3E3871E9 PUSH2 0x4EA DUP6 DUP1 PUSH0 ADD SWAP1 PUSH2 0x4A3 SWAP2 SWAP1 PUSH2 0xC22 JUMP JUMPDEST DUP1 DUP1 PUSH1 0x1F ADD PUSH1 0x20 DUP1 SWAP2 DIV MUL PUSH1 0x20 ADD PUSH1 0x40 MLOAD SWAP1 DUP2 ADD PUSH1 0x40 MSTORE DUP1 SWAP4 SWAP3 SWAP2 SWAP1 DUP2 DUP2 MSTORE PUSH1 0x20 ADD DUP4 DUP4 DUP1 DUP3 DUP5 CALLDATACOPY PUSH0 DUP2 DUP5 ADD MSTORE PUSH1 0x1F NOT PUSH1 0x1F DUP3 ADD AND SWAP1 POP DUP1 DUP4 ADD SWAP3 POP POP POP POP POP POP POP PUSH2 0x5F1 JUMP JUMPDEST PUSH2 0x544 DUP7 DUP1 PUSH1 0x20 ADD SWAP1 PUSH2 0x4FD SWAP2 SWAP1 PUSH2 0xC22 JUMP JUMPDEST DUP1 DUP1 PUSH1 0x1F ADD PUSH1 0x20 DUP1 SWAP2 DIV MUL PUSH1 0x20 ADD PUSH1 0x40 MLOAD SWAP1 DUP2 ADD PUSH1 0x40 MSTORE DUP1 SWAP4 SWAP3 SWAP2 SWAP1 DUP2 DUP2 MSTORE PUSH1 0x20 ADD DUP4 DUP4 DUP1 DUP3 DUP5 CALLDATACOPY PUSH0 DUP2 DUP5 ADD MSTORE PUSH1 0x1F NOT PUSH1 0x1F DUP3 ADD AND SWAP1 POP DUP1 DUP4 ADD SWAP3 POP POP POP POP POP POP POP PUSH2 0x5F1 JUMP JUMPDEST PUSH2 0x59E DUP8 DUP1 PUSH1 0x40 ADD SWAP1 PUSH2 0x557 SWAP2 SWAP1 PUSH2 0xC22 JUMP JUMPDEST DUP1 DUP1 PUSH1 0x1F ADD PUSH1 0x20 DUP1 SWAP2 DIV MUL PUSH1 0x20 ADD PUSH1 0x40 MLOAD SWAP1 DUP2 ADD PUSH1 0x40 MSTORE DUP1 SWAP4 SWAP3 SWAP2 SWAP1 DUP2 DUP2 MSTORE PUSH1 0x20 ADD DUP4 DUP4 DUP1 DUP3 DUP5 CALLDATACOPY PUSH0 DUP2 DUP5 ADD MSTORE PUSH1 0x1F NOT PUSH1 0x1F DUP3 ADD AND SWAP1 POP DUP1 DUP4 ADD SWAP3 POP POP POP POP POP POP POP PUSH2 0x5F1 JUMP JUMPDEST DUP9 PUSH1 0x40 MLOAD DUP6 PUSH4 0xFFFFFFFF AND PUSH1 0xE0 SHL DUP2 MSTORE PUSH1 0x4 ADD PUSH2 0x5BE SWAP5 SWAP4 SWAP3 SWAP2 SWAP1 PUSH2 0xDBF JUMP JUMPDEST PUSH0 PUSH1 0x40 MLOAD DUP1 DUP4 SUB DUP2 PUSH0 DUP8 DUP1 EXTCODESIZE ISZERO DUP1 ISZERO PUSH2 0x5D5 JUMPI PUSH0 DUP1 REVERT JUMPDEST POP GAS CALL ISZERO DUP1 ISZERO PUSH2 0x5E7 JUMPI RETURNDATASIZE PUSH0 DUP1 RETURNDATACOPY RETURNDATASIZE PUSH0 REVERT JUMPDEST POP POP POP POP POP POP POP POP JUMP JUMPDEST PUSH0 PUSH2 0x5FD DUP3 PUSH1 0x2 PUSH2 0x6BD JUMP JUMPDEST SWAP1 POP SWAP2 SWAP1 POP JUMP JUMPDEST PUSH0 PUSH2 0x610 DUP3 PUSH1 0x2 PUSH2 0x768 JUMP JUMPDEST SWAP1 POP SWAP2 SWAP1 POP JUMP JUMPDEST PUSH2 0x61F PUSH2 0x7EF JUMP JUMPDEST PUSH0 DUP1 SLOAD SWAP1 PUSH2 0x100 EXP SWAP1 DIV PUSH20 0xFFFFFFFFFFFFFFFFFFFFFFFFFFFFFFFFFFFFFFFF AND PUSH20 0xFFFFFFFFFFFFFFFFFFFFFFFFFFFFFFFFFFFFFFFF AND PUSH4 0x30F37B44 DUP4 PUSH1 0x40 MLOAD DUP3 PUSH4 0xFFFFFFFF AND PUSH1 0xE0 SHL DUP2 MSTORE PUSH1 0x4 ADD PUSH2 0x677 SWAP2 SWAP1 PUSH2 0xE02 JUMP JUMPDEST PUSH1 0xC0 PUSH1 0x40 MLOAD DUP1 DUP4 SUB DUP2 DUP7 GAS STATICCALL ISZERO DUP1 ISZERO PUSH2 0x692 JUMPI RETURNDATASIZE PUSH0 DUP1 RETURNDATACOPY RETURNDATASIZE PUSH0 REVERT JUMPDEST POP POP POP POP PUSH1 0x40 MLOAD RETURNDATASIZE PUSH1 0x1F NOT PUSH1 0x1F DUP3 ADD AND DUP3 ADD DUP1 PUSH1 0x40 MSTORE POP DUP2 ADD SWAP1 PUSH2 0x6B6 SWAP2 SWAP1 PUSH2 0xEFA JUMP JUMPDEST SWAP1 POP SWAP2 SWAP1 POP JUMP JUMPDEST PUSH0 DUP1 DUP4 DUP4 PUSH1 0xF8 SHL PUSH1 0x40 MLOAD PUSH1 0x20 ADD PUSH2 0x6D5 SWAP3 SWAP2 SWAP1 PUSH2 0xFC2 JUMP JUMPDEST PUSH1 0x40 MLOAD PUSH1 0x20 DUP2 DUP4 SUB SUB DUP2 MSTORE SWAP1 PUSH1 0x40 MSTORE SWAP1 POP PUSH1 0x5D PUSH20 0xFFFFFFFFFFFFFFFFFFFFFFFFFFFFFFFFFFFFFFFF AND PUSH4 0x4B252EC8 DUP3 PUSH1 0x40 MLOAD DUP3 PUSH4 0xFFFFFFFF AND PUSH1 0xE0 SHL DUP2 MSTORE PUSH1 0x4 ADD PUSH2 0x720 SWAP2 SWAP1 PUSH2 0x1031 JUMP JUMPDEST PUSH1 0x20 PUSH1 0x40 MLOAD DUP1 DUP4 SUB DUP2 DUP7 GAS STATICCALL ISZERO DUP1 ISZERO PUSH2 0x73B JUMPI RETURNDATASIZE PUSH0 DUP1 RETURNDATACOPY RETURNDATASIZE PUSH0 REVERT JUMPDEST POP POP POP POP PUSH1 0x40 MLOAD RETURNDATASIZE PUSH1 0x1F NOT PUSH1 0x1F DUP3 ADD AND DUP3 ADD DUP1 PUSH1 0x40 MSTORE POP DUP2 ADD SWAP1 PUSH2 0x75F SWAP2 SWAP1 PUSH2 0x107B JUMP JUMPDEST SWAP2 POP POP SWAP3 SWAP2 POP POP JUMP JUMPDEST PUSH0 PUSH1 0x5D PUSH20 0xFFFFFFFFFFFFFFFFFFFFFFFFFFFFFFFFFFFFFFFF AND PUSH4 0xE71746B8 DUP5 DUP5 PUSH1 0xF8 SHL PUSH1 0x40 MLOAD DUP4 PUSH4 0xFFFFFFFF AND PUSH1 0xE0 SHL DUP2 MSTORE PUSH1 0x4 ADD PUSH2 0x7A8 SWAP3 SWAP2 SWAP1 PUSH2 0x10C4 JUMP JUMPDEST PUSH1 0x20 PUSH1 0x40 MLOAD DUP1 DUP4 SUB DUP2 DUP7 GAS STATICCALL ISZERO DUP1 ISZERO PUSH2 0x7C3 JUMPI RETURNDATASIZE PUSH0 DUP1 RETURNDATACOPY RETURNDATASIZE PUSH0 REVERT JUMPDEST POP POP POP POP PUSH1 0x40 MLOAD RETURNDATASIZE PUSH1 0x1F NOT PUSH1 0x1F DUP3 ADD AND DUP3 ADD DUP1 PUSH1 0x40 MSTORE POP DUP2 ADD SWAP1 PUSH2 0x7E7 SWAP2 SWAP1 PUSH2 0x107B JUMP JUMPDEST SWAP1 POP SWAP3 SWAP2 POP POP JUMP JUMPDEST PUSH1 0x40 MLOAD DUP1 PUSH1 0xC0 ADD PUSH1 0x40 MSTORE DUP1 PUSH0 DUP2 MSTORE PUSH1 0x20 ADD PUSH0 PUSH20 0xFFFFFFFFFFFFFFFFFFFFFFFFFFFFFFFFFFFFFFFF AND DUP2 MSTORE PUSH1 0x20 ADD PUSH0 DUP2 MSTORE PUSH1 0x20 ADD PUSH0 DUP2 MSTORE PUSH1 0x20 ADD PUSH0 DUP2 MSTORE PUSH1 0x20 ADD PUSH0 PUSH20 0xFFFFFFFFFFFFFFFFFFFFFFFFFFFFFFFFFFFFFFFF AND DUP2 MSTORE POP SWAP1 JUMP JUMPDEST PUSH0 PUSH1 0x40 MLOAD SWAP1 POP SWAP1 JUMP JUMPDEST PUSH0 DUP1 REVERT JUMPDEST PUSH0 DUP1 REVERT JUMPDEST PUSH0 DUP2 SWAP1 POP SWAP2 SWAP1 POP JUMP JUMPDEST PUSH2 0x86E DUP2 PUSH2 0x85C JUMP JUMPDEST DUP2 EQ PUSH2 0x878 JUMPI PUSH0 DUP1 REVERT JUMPDEST POP JUMP JUMPDEST PUSH0 DUP2 CALLDATALOAD SWAP1 POP PUSH2 0x889 DUP2 PUSH2 0x865 JUMP JUMPDEST SWAP3 SWAP2 POP POP JUMP JUMPDEST PUSH0 DUP1 REVERT JUMPDEST PUSH0 DUP1 REVERT JUMPDEST PUSH0 PUSH1 0x1F NOT PUSH1 0x1F DUP4 ADD AND SWAP1 POP SWAP2 SWAP1 POP JUMP JUMPDEST PUSH32 0x4E487B7100000000000000000000000000000000000000000000000000000000 PUSH0 MSTORE PUSH1 0x41 PUSH1 0x4 MSTORE PUSH1 0x24 PUSH0 REVERT JUMPDEST PUSH2 0x8DD DUP3 PUSH2 0x897 JUMP JUMPDEST DUP2 ADD DUP2 DUP2 LT PUSH8 0xFFFFFFFFFFFFFFFF DUP3 GT OR ISZERO PUSH2 0x8FC JUMPI PUSH2 0x8FB PUSH2 0x8A7 JUMP JUMPDEST JUMPDEST DUP1 PUSH1 0x40 MSTORE POP POP POP JUMP JUMPDEST PUSH0 PUSH2 0x90E PUSH2 0x84B JUMP JUMPDEST SWAP1 POP PUSH2 0x91A DUP3 DUP3 PUSH2 0x8D4 JUMP JUMPDEST SWAP2 SWAP1 POP JUMP JUMPDEST PUSH0 PUSH8 0xFFFFFFFFFFFFFFFF DUP3 GT ISZERO PUSH2 0x939 JUMPI PUSH2 0x938 PUSH2 0x8A7 JUMP JUMPDEST JUMPDEST PUSH2 0x942 DUP3 PUSH2 0x897 JUMP JUMPDEST SWAP1 POP PUSH1 0x20 DUP2 ADD SWAP1 POP SWAP2 SWAP1 POP JUMP JUMPDEST DUP3 DUP2 DUP4 CALLDATACOPY PUSH0 DUP4 DUP4 ADD MSTORE POP POP POP JUMP JUMPDEST PUSH0 PUSH2 0x96F PUSH2 0x96A DUP5 PUSH2 0x91F JUMP JUMPDEST PUSH2 0x905 JUMP JUMPDEST SWAP1 POP DUP3 DUP2 MSTORE PUSH1 0x20 DUP2 ADD DUP5 DUP5 DUP5 ADD GT ISZERO PUSH2 0x98B JUMPI PUSH2 0x98A PUSH2 0x893 JUMP JUMPDEST JUMPDEST PUSH2 0x996 DUP5 DUP3 DUP6 PUSH2 0x94F JUMP JUMPDEST POP SWAP4 SWAP3 POP POP POP JUMP JUMPDEST PUSH0 DUP3 PUSH1 0x1F DUP4 ADD SLT PUSH2 0x9B2 JUMPI PUSH2 0x9B1 PUSH2 0x88F JUMP JUMPDEST JUMPDEST DUP2 CALLDATALOAD PUSH2 0x9C2 DUP5 DUP3 PUSH1 0x20 DUP7 ADD PUSH2 0x95D JUMP JUMPDEST SWAP2 POP POP SWAP3 SWAP2 POP POP JUMP JUMPDEST PUSH0 DUP1 PUSH1 0x40 DUP4 DUP6 SUB SLT ISZERO PUSH2 0x9E1 JUMPI PUSH2 0x9E0 PUSH2 0x854 JUMP JUMPDEST JUMPDEST PUSH0 PUSH2 0x9EE DUP6 DUP3 DUP7 ADD PUSH2 0x87B JUMP JUMPDEST SWAP3 POP POP PUSH1 0x20 DUP4 ADD CALLDATALOAD PUSH8 0xFFFFFFFFFFFFFFFF DUP2 GT ISZERO PUSH2 0xA0F JUMPI PUSH2 0xA0E PUSH2 0x858 JUMP JUMPDEST JUMPDEST PUSH2 0xA1B DUP6 DUP3 DUP7 ADD PUSH2 0x99E JUMP JUMPDEST SWAP2 POP POP SWAP3 POP SWAP3 SWAP1 POP JUMP JUMPDEST PUSH0 DUP1 REVERT JUMPDEST PUSH0 PUSH1 0x60 DUP3 DUP5 SUB SLT ISZERO PUSH2 0xA3E JUMPI PUSH2 0xA3D PUSH2 0xA25 JUMP JUMPDEST JUMPDEST DUP2 SWAP1 POP SWAP3 SWAP2 POP POP JUMP JUMPDEST PUSH0 DUP1 PUSH1 0x40 DUP4 DUP6 SUB SLT ISZERO PUSH2 0xA5D JUMPI PUSH2 0xA5C PUSH2 0x854 JUMP JUMPDEST JUMPDEST PUSH0 PUSH2 0xA6A DUP6 DUP3 DUP7 ADD PUSH2 0x87B JUMP JUMPDEST SWAP3 POP POP PUSH1 0x20 DUP4 ADD CALLDATALOAD PUSH8 0xFFFFFFFFFFFFFFFF DUP2 GT ISZERO PUSH2 0xA8B JUMPI PUSH2 0xA8A PUSH2 0x858 JUMP JUMPDEST JUMPDEST PUSH2 0xA97 DUP6 DUP3 DUP7 ADD PUSH2 0xA29 JUMP JUMPDEST SWAP2 POP POP SWAP3 POP SWAP3 SWAP1 POP JUMP JUMPDEST PUSH0 PUSH20 0xFFFFFFFFFFFFFFFFFFFFFFFFFFFFFFFFFFFFFFFF DUP3 AND SWAP1 POP SWAP2 SWAP1 POP JUMP JUMPDEST PUSH0 PUSH2 0xACA DUP3 PUSH2 0xAA1 JUMP JUMPDEST SWAP1 POP SWAP2 SWAP1 POP JUMP JUMPDEST PUSH2 0xADA DUP2 PUSH2 0xAC0 JUMP JUMPDEST DUP2 EQ PUSH2 0xAE4 JUMPI PUSH0 DUP1 REVERT JUMPDEST POP JUMP JUMPDEST PUSH0 DUP2 CALLDATALOAD SWAP1 POP PUSH2 0xAF5 DUP2 PUSH2 0xAD1 JUMP JUMPDEST SWAP3 SWAP2 POP POP JUMP JUMPDEST PUSH0 PUSH1 0x20 DUP3 DUP5 SUB SLT ISZERO PUSH2 0xB10 JUMPI PUSH2 0xB0F PUSH2 0x854 JUMP JUMPDEST JUMPDEST PUSH0 PUSH2 0xB1D DUP5 DUP3 DUP6 ADD PUSH2 0xAE7 JUMP JUMPDEST SWAP2 POP POP SWAP3 SWAP2 POP POP JUMP JUMPDEST PUSH0 PUSH1 0x60 DUP3 DUP5 SUB SLT ISZERO PUSH2 0xB3B JUMPI PUSH2 0xB3A PUSH2 0xA25 JUMP JUMPDEST JUMPDEST DUP2 SWAP1 POP SWAP3 SWAP2 POP POP JUMP JUMPDEST PUSH0 DUP1 PUSH1 0x40 DUP4 DUP6 SUB SLT ISZERO PUSH2 0xB5A JUMPI PUSH2 0xB59 PUSH2 0x854 JUMP JUMPDEST JUMPDEST PUSH0 PUSH2 0xB67 DUP6 DUP3 DUP7 ADD PUSH2 0x87B JUMP JUMPDEST SWAP3 POP POP PUSH1 0x20 DUP4 ADD CALLDATALOAD PUSH8 0xFFFFFFFFFFFFFFFF DUP2 GT ISZERO PUSH2 0xB88 JUMPI PUSH2 0xB87 PUSH2 0x858 JUMP JUMPDEST JUMPDEST PUSH2 0xB94 DUP6 DUP3 DUP7 ADD PUSH2 0xB26 JUMP JUMPDEST SWAP2 POP POP SWAP3 POP SWAP3 SWAP1 POP JUMP JUMPDEST PUSH0 DUP2 SWAP1 POP SWAP2 SWAP1 POP JUMP JUMPDEST PUSH0 DUP2 SWAP1 POP SWAP2 SWAP1 POP JUMP JUMPDEST PUSH0 PUSH2 0xBCA PUSH2 0xBC5 PUSH2 0xBC0 DUP5 PUSH2 0xB9E JUMP JUMPDEST PUSH2 0xBA7 JUMP JUMPDEST PUSH2 0xB9E JUMP JUMPDEST SWAP1 POP SWAP2 SWAP1 POP JUMP JUMPDEST PUSH2 0xBDA DUP2 PUSH2 0xBB0 JUMP JUMPDEST DUP3 MSTORE POP POP JUMP JUMPDEST PUSH2 0xBE9 DUP2 PUSH2 0x85C JUMP JUMPDEST DUP3 MSTORE POP POP JUMP JUMPDEST PUSH0 PUSH1 0x40 DUP3 ADD SWAP1 POP PUSH2 0xC02 PUSH0 DUP4 ADD DUP6 PUSH2 0xBD1 JUMP JUMPDEST PUSH2 0xC0F PUSH1 0x20 DUP4 ADD DUP5 PUSH2 0xBE0 JUMP JUMPDEST SWAP4 SWAP3 POP POP POP JUMP JUMPDEST PUSH0 DUP1 REVERT JUMPDEST PUSH0 DUP1 REVERT JUMPDEST PUSH0 DUP1 REVERT JUMPDEST PUSH0 DUP1 DUP4 CALLDATALOAD PUSH1 0x1 PUSH1 0x20 SUB DUP5 CALLDATASIZE SUB SUB DUP2 SLT PUSH2 0xC3E JUMPI PUSH2 0xC3D PUSH2 0xC16 JUMP JUMPDEST JUMPDEST DUP1 DUP5 ADD SWAP3 POP DUP3 CALLDATALOAD SWAP2 POP PUSH8 0xFFFFFFFFFFFFFFFF DUP3 GT ISZERO PUSH2 0xC60 JUMPI PUSH2 0xC5F PUSH2 0xC1A JUMP JUMPDEST JUMPDEST PUSH1 0x20 DUP4 ADD SWAP3 POP PUSH1 0x1 DUP3 MUL CALLDATASIZE SUB DUP4 SGT ISZERO PUSH2 0xC7C JUMPI PUSH2 0xC7B PUSH2 0xC1E JUMP JUMPDEST JUMPDEST POP SWAP3 POP SWAP3 SWAP1 POP JUMP JUMPDEST PUSH2 0xC8D DUP2 PUSH2 0xBB0 JUMP JUMPDEST DUP3 MSTORE POP POP JUMP JUMPDEST PUSH1 0xE0 DUP3 ADD PUSH0 DUP3 ADD MLOAD PUSH2 0xCA7 PUSH0 DUP6 ADD DUP3 PUSH2 0xC84 JUMP JUMPDEST POP PUSH1 0x20 DUP3 ADD MLOAD PUSH2 0xCBA PUSH1 0x20 DUP6 ADD DUP3 PUSH2 0xC84 JUMP JUMPDEST POP PUSH1 0x40 DUP3 ADD MLOAD PUSH2 0xCCD PUSH1 0x40 DUP6 ADD DUP3 PUSH2 0xC84 JUMP JUMPDEST POP PUSH1 0x60 DUP3 ADD MLOAD PUSH2 0xCE0 PUSH1 0x60 DUP6 ADD DUP3 PUSH2 0xC84 JUMP JUMPDEST POP PUSH1 0x80 DUP3 ADD MLOAD PUSH2 0xCF3 PUSH1 0x80 DUP6 ADD DUP3 PUSH2 0xC84 JUMP JUMPDEST POP PUSH1 0xA0 DUP3 ADD MLOAD PUSH2 0xD06 PUSH1 0xA0 DUP6 ADD DUP3 PUSH2 0xC84 JUMP JUMPDEST POP PUSH1 0xC0 DUP3 ADD MLOAD PUSH2 0xD19 PUSH1 0xC0 DUP6 ADD DUP3 PUSH2 0xC84 JUMP JUMPDEST POP POP POP POP JUMP JUMPDEST PUSH0 PUSH2 0x100 DUP3 ADD SWAP1 POP PUSH2 0xD33 PUSH0 DUP4 ADD DUP6 PUSH2 0xC93 JUMP JUMPDEST PUSH2 0xD40 PUSH1 0xE0 DUP4 ADD DUP5 PUSH2 0xBE0 JUMP JUMPDEST SWAP4 SWAP3 POP POP POP JUMP JUMPDEST PUSH0 DUP3 DUP3 MSTORE PUSH1 0x20 DUP3 ADD SWAP1 POP SWAP3 SWAP2 POP POP JUMP JUMPDEST PUSH32 0x6E6F742061646D696E0000000000000000000000000000000000000000000000 PUSH0 DUP3 ADD MSTORE POP JUMP JUMPDEST PUSH0 PUSH2 0xD8B PUSH1 0x9 DUP4 PUSH2 0xD47 JUMP JUMPDEST SWAP2 POP PUSH2 0xD96 DUP3 PUSH2 0xD57 JUMP JUMPDEST PUSH1 0x20 DUP3 ADD SWAP1 POP SWAP2 SWAP1 POP JUMP JUMPDEST PUSH0 PUSH1 0x20 DUP3 ADD SWAP1 POP DUP2 DUP2 SUB PUSH0 DUP4 ADD MSTORE PUSH2 0xDB8 DUP2 PUSH2 0xD7F JUMP JUMPDEST SWAP1 POP SWAP2 SWAP1 POP JUMP JUMPDEST PUSH0 PUSH1 0x80 DUP3 ADD SWAP1 POP PUSH2 0xDD2 PUSH0 DUP4 ADD DUP8 PUSH2 0xBD1 JUMP JUMPDEST PUSH2 0xDDF PUSH1 0x20 DUP4 ADD DUP7 PUSH2 0xBD1 JUMP JUMPDEST PUSH2 0xDEC PUSH1 0x40 DUP4 ADD DUP6 PUSH2 0xBD1 JUMP JUMPDEST PUSH2 0xDF9 PUSH1 0x60 DUP4 ADD DUP5 PUSH2 0xBE0 JUMP JUMPDEST SWAP6 SWAP5 POP POP POP POP POP JUMP JUMPDEST PUSH0 PUSH1 0x20 DUP3 ADD SWAP1 POP PUSH2 0xE15 PUSH0 DUP4 ADD DUP5 PUSH2 0xBE0 JUMP JUMPDEST SWAP3 SWAP2 POP POP JUMP JUMPDEST PUSH0 DUP1 REVERT JUMPDEST PUSH2 0xE28 DUP2 PUSH2 0xB9E JUMP JUMPDEST DUP2 EQ PUSH2 0xE32 JUMPI PUSH0 DUP1 REVERT JUMPDEST POP JUMP JUMPDEST PUSH0 DUP2 MLOAD SWAP1 POP PUSH2 0xE43 DUP2 PUSH2 0xE1F JUMP JUMPDEST SWAP3 SWAP2 POP POP JUMP JUMPDEST PUSH0 DUP2 MLOAD SWAP1 POP PUSH2 0xE57 DUP2 PUSH2 0xAD1 JUMP JUMPDEST SWAP3 SWAP2 POP POP JUMP JUMPDEST PUSH0 PUSH1 0xC0 DUP3 DUP5 SUB SLT ISZERO PUSH2 0xE72 JUMPI PUSH2 0xE71 PUSH2 0xE1B JUMP JUMPDEST JUMPDEST PUSH2 0xE7C PUSH1 0xC0 PUSH2 0x905 JUMP JUMPDEST SWAP1 POP PUSH0 PUSH2 0xE8B DUP5 DUP3 DUP6 ADD PUSH2 0xE35 JUMP JUMPDEST PUSH0 DUP4 ADD MSTORE POP PUSH1 0x20 PUSH2 0xE9E DUP5 DUP3 DUP6 ADD PUSH2 0xE49 JUMP JUMPDEST PUSH1 0x20 DUP4 ADD MSTORE POP PUSH1 0x40 PUSH2 0xEB2 DUP5 DUP3 DUP6 ADD PUSH2 0xE35 JUMP JUMPDEST PUSH1 0x40 DUP4 ADD MSTORE POP PUSH1 0x60 PUSH2 0xEC6 DUP5 DUP3 DUP6 ADD PUSH2 0xE35 JUMP JUMPDEST PUSH1 0x60 DUP4 ADD MSTORE POP PUSH1 0x80 PUSH2 0xEDA DUP5 DUP3 DUP6 ADD PUSH2 0xE35 JUMP JUMPDEST PUSH1 0x80 DUP4 ADD MSTORE POP PUSH1 0xA0 PUSH2 0xEEE DUP5 DUP3 DUP6 ADD PUSH2 0xE49 JUMP JUMPDEST PUSH1 0xA0 DUP4 ADD MSTORE POP SWAP3 SWAP2 POP POP JUMP JUMPDEST PUSH0 PUSH1 0xC0 DUP3 DUP5 SUB SLT ISZERO PUSH2 0xF0F JUMPI PUSH2 0xF0E PUSH2 0x854 JUMP JUMPDEST JUMPDEST PUSH0 PUSH2 0xF1C DUP5 DUP3 DUP6 ADD PUSH2 0xE5D JUMP JUMPDEST SWAP2 POP POP SWAP3 SWAP2 POP POP JUMP JUMPDEST PUSH0 DUP2 MLOAD SWAP1 POP SWAP2 SWAP1 POP JUMP JUMPDEST PUSH0 DUP2 SWAP1 POP SWAP3 SWAP2 POP POP JUMP JUMPDEST DUP3 DUP2 DUP4 MCOPY PUSH0 DUP4 DUP4 ADD MSTORE POP POP POP JUMP JUMPDEST PUSH0 PUSH2 0xF51 DUP3 PUSH2 0xF25 JUMP JUMPDEST PUSH2 0xF5B DUP2 DUP6 PUSH2 0xF2F JUMP JUMPDEST SWAP4 POP PUSH2 0xF6B DUP2 DUP6 PUSH1 0x20 DUP7 ADD PUSH2 0xF39 JUMP JUMPDEST DUP1 DUP5 ADD SWAP2 POP POP SWAP3 SWAP2 POP POP JUMP JUMPDEST PUSH0 PUSH32 0xFF00000000000000000000000000000000000000000000000000000000000000 DUP3 AND SWAP1 POP SWAP2 SWAP1 POP JUMP JUMPDEST PUSH0 DUP2 SWAP1 POP SWAP2 SWAP1 POP JUMP JUMPDEST PUSH2 0xFBC PUSH2 0xFB7 DUP3 PUSH2 0xF77 JUMP JUMPDEST PUSH2 0xFA2 JUMP JUMPDEST DUP3 MSTORE POP POP JUMP JUMPDEST PUSH0 PUSH2 0xFCD DUP3 DUP6 PUSH2 0xF47 JUMP JUMPDEST SWAP2 POP PUSH2 0xFD9 DUP3 DUP5 PUSH2 0xFAB JUMP JUMPDEST PUSH1 0x1 DUP3 ADD SWAP2 POP DUP2 SWAP1 POP SWAP4 SWAP3 POP POP POP JUMP JUMPDEST PUSH0 DUP3 DUP3 MSTORE PUSH1 0x20 DUP3 ADD SWAP1 POP SWAP3 SWAP2 POP POP JUMP JUMPDEST PUSH0 PUSH2 0x1003 DUP3 PUSH2 0xF25 JUMP JUMPDEST PUSH2 0x100D DUP2 DUP6 PUSH2 0xFE9 JUMP JUMPDEST SWAP4 POP PUSH2 0x101D DUP2 DUP6 PUSH1 0x20 DUP7 ADD PUSH2 0xF39 JUMP JUMPDEST PUSH2 0x1026 DUP2 PUSH2 0x897 JUMP JUMPDEST DUP5 ADD SWAP2 POP POP SWAP3 SWAP2 POP POP JUMP JUMPDEST PUSH0 PUSH1 0x20 DUP3 ADD SWAP1 POP DUP2 DUP2 SUB PUSH0 DUP4 ADD MSTORE PUSH2 0x1049 DUP2 DUP5 PUSH2 0xFF9 JUMP JUMPDEST SWAP1 POP SWAP3 SWAP2 POP POP JUMP JUMPDEST PUSH2 0x105A DUP2 PUSH2 0xB9E JUMP JUMPDEST DUP2 EQ PUSH2 0x1064 JUMPI PUSH0 DUP1 REVERT JUMPDEST POP JUMP JUMPDEST PUSH0 DUP2 MLOAD SWAP1 POP PUSH2 0x1075 DUP2 PUSH2 0x1051 JUMP JUMPDEST SWAP3 SWAP2 POP POP JUMP JUMPDEST PUSH0 PUSH1 0x20 DUP3 DUP5 SUB SLT ISZERO PUSH2 0x1090 JUMPI PUSH2 0x108F PUSH2 0x854 JUMP JUMPDEST JUMPDEST PUSH0 PUSH2 0x109D DUP5 DUP3 DUP6 ADD PUSH2 0x1067 JUMP JUMPDEST SWAP2 POP POP SWAP3 SWAP2 POP POP JUMP JUMPDEST PUSH2 0x10AF DUP2 PUSH2 0xB9E JUMP JUMPDEST DUP3 MSTORE POP POP JUMP JUMPDEST PUSH2 0x10BE DUP2 PUSH2 0xF77 JUMP JUMPDEST DUP3 MSTORE POP POP JUMP JUMPDEST PUSH0 PUSH1 0x40 DUP3 ADD SWAP1 POP PUSH2 0x10D7 PUSH0 DUP4 ADD DUP6 PUSH2 0x10A6 JUMP JUMPDEST PUSH2 0x10E4 PUSH1 0x20 DUP4 ADD DUP5 PUSH2 0x10B5 JUMP JUMPDEST SWAP4 SWAP3 POP POP POP JUMP INVALID LOG2 PUSH5 0x6970667358 0x22 SLT KECCAK256 PUSH21 0x1EB274552B6F0E89A8F6BE0AA683ED0FAE23085797 0xA5 0xAB SWAP5 0xE1 AND 0xE3 SWAP5 DUP6 LOG4 SIGNEXTEND PUSH5 0x736F6C6343 STOP ADDMOD NOT STOP CALLER "
		},
		"gasEstimates": {
			"creation": {
				"codeDepositCost": "877000",
				"executionCost": "25179",
				"totalCost": "902179"
			},
			"external": {
				"addCaptable(address)": "26906",
				"addTotalVestingAmount(bytes32,bytes)": "infinite",
				"addVestingPercentage(bytes32,(bytes,bytes,bytes))": "infinite",
				"addVestingPeriod(bytes32,(bytes,bytes,bytes))": "infinite"
			},
			"internal": {
				"getCompany(bytes32)": "infinite"
			}
		},
		"methodIdentifiers": {
			"addCaptable(address)": "5a373db5",
			"addTotalVestingAmount(bytes32,bytes)": "481edb40",
			"addVestingPercentage(bytes32,(bytes,bytes,bytes))": "89a499f4",
			"addVestingPeriod(bytes32,(bytes,bytes,bytes))": "5a0ef09d"
		}
	},
	"abi": [
		{
			"inputs": [],
			"stateMutability": "nonpayable",
			"type": "constructor"
		},
		{
			"anonymous": false,
			"inputs": [
				{
					"indexed": false,
					"internalType": "address",
					"name": "beneficiary",
					"type": "address"
				},
				{
					"indexed": false,
					"internalType": "uint256",
					"name": "amount",
					"type": "uint256"
				}
			],
			"name": "TokensReleased",
			"type": "event"
		},
		{
			"inputs": [
				{
					"internalType": "address",
					"name": "_address",
					"type": "address"
				}
			],
			"name": "addCaptable",
			"outputs": [],
			"stateMutability": "nonpayable",
			"type": "function"
		},
		{
			"inputs": [
				{
					"internalType": "bytes32",
					"name": "_key",
					"type": "bytes32"
				},
				{
					"internalType": "bytes",
					"name": "totalAmount",
					"type": "bytes"
				}
			],
			"name": "addTotalVestingAmount",
			"outputs": [],
			"stateMutability": "nonpayable",
			"type": "function"
		},
		{
			"inputs": [
				{
					"internalType": "bytes32",
					"name": "_key",
					"type": "bytes32"
				},
				{
					"components": [
						{
							"internalType": "bytes",
							"name": "EreleaseAtStartPercentage",
							"type": "bytes"
						},
						{
							"internalType": "bytes",
							"name": "EreleaseAtCliffPercentage",
							"type": "bytes"
						},
						{
							"internalType": "bytes",
							"name": "ElinearReleasePercentage",
							"type": "bytes"
						}
					],
					"internalType": "struct Vesting.VestingParam2",
					"name": "params",
					"type": "tuple"
				}
			],
			"name": "addVestingPercentage",
			"outputs": [],
			"stateMutability": "nonpayable",
			"type": "function"
		},
		{
			"inputs": [
				{
					"internalType": "bytes32",
					"name": "_key",
					"type": "bytes32"
				},
				{
					"components": [
						{
							"internalType": "bytes",
							"name": "startTimestamp",
							"type": "bytes"
						},
						{
							"internalType": "bytes",
							"name": "cliffDurationInSeconds",
							"type": "bytes"
						},
						{
							"internalType": "bytes",
							"name": "totalVestingDurationInSeconds",
							"type": "bytes"
						}
					],
					"internalType": "struct Vesting.VestingParam1",
					"name": "params",
					"type": "tuple"
				}
			],
			"name": "addVestingPeriod",
			"outputs": [],
			"stateMutability": "nonpayable",
			"type": "function"
		}
	]
}